{
	"RPS.sol": {
		"RPSGame": {
			"abi": [
				{
					"inputs": [
						{
							"internalType": "address",
							"name": "_timeUnitAddress",
							"type": "address"
						},
						{
							"internalType": "address",
							"name": "_commitRevealAddress",
							"type": "address"
						}
					],
					"stateMutability": "nonpayable",
					"type": "constructor"
				},
				{
					"inputs": [
						{
							"internalType": "uint256",
							"name": "",
							"type": "uint256"
						}
					],
					"name": "activePlayers",
					"outputs": [
						{
							"internalType": "address",
							"name": "",
							"type": "address"
						}
					],
					"stateMutability": "view",
					"type": "function"
				},
				{
					"inputs": [
						{
							"internalType": "bytes32",
							"name": "hashChoice",
							"type": "bytes32"
						}
					],
					"name": "commitPlayerChoice",
					"outputs": [],
					"stateMutability": "nonpayable",
					"type": "function"
				},
				{
					"inputs": [],
					"name": "commitRevealModule",
					"outputs": [
						{
							"internalType": "contract CommitReveal",
							"name": "",
							"type": "address"
						}
					],
					"stateMutability": "view",
					"type": "function"
				},
				{
					"inputs": [
						{
							"internalType": "uint256",
							"name": "choice",
							"type": "uint256"
						},
						{
							"internalType": "uint256",
							"name": "nonce",
							"type": "uint256"
						}
					],
					"name": "computeCommitmentHash",
					"outputs": [
						{
							"internalType": "bytes32",
							"name": "",
							"type": "bytes32"
						}
					],
					"stateMutability": "pure",
					"type": "function"
				},
				{
					"inputs": [],
					"name": "gameDuration",
					"outputs": [
						{
							"internalType": "uint256",
							"name": "",
							"type": "uint256"
						}
					],
					"stateMutability": "view",
					"type": "function"
				},
				{
					"inputs": [],
					"name": "gameStartTimestamp",
					"outputs": [
						{
							"internalType": "uint256",
							"name": "",
							"type": "uint256"
						}
					],
					"stateMutability": "view",
					"type": "function"
				},
				{
					"inputs": [],
					"name": "inputCount",
					"outputs": [
						{
							"internalType": "uint256",
							"name": "",
							"type": "uint256"
						}
					],
					"stateMutability": "view",
					"type": "function"
				},
				{
					"inputs": [],
					"name": "joinGame",
					"outputs": [],
					"stateMutability": "payable",
					"type": "function"
				},
				{
					"inputs": [
						{
							"internalType": "address",
							"name": "",
							"type": "address"
						}
					],
					"name": "playerChoices",
					"outputs": [
						{
							"internalType": "uint256",
							"name": "",
							"type": "uint256"
						}
					],
					"stateMutability": "view",
					"type": "function"
				},
				{
					"inputs": [],
					"name": "playerCount",
					"outputs": [
						{
							"internalType": "uint256",
							"name": "",
							"type": "uint256"
						}
					],
					"stateMutability": "view",
					"type": "function"
				},
				{
					"inputs": [
						{
							"internalType": "address",
							"name": "",
							"type": "address"
						}
					],
					"name": "playerHashes",
					"outputs": [
						{
							"internalType": "bytes32",
							"name": "",
							"type": "bytes32"
						}
					],
					"stateMutability": "view",
					"type": "function"
				},
				{
					"inputs": [],
					"name": "prizePool",
					"outputs": [
						{
							"internalType": "uint256",
							"name": "",
							"type": "uint256"
						}
					],
					"stateMutability": "view",
					"type": "function"
				},
				{
					"inputs": [
						{
							"internalType": "uint256",
							"name": "choice",
							"type": "uint256"
						},
						{
							"internalType": "uint256",
							"name": "nonce",
							"type": "uint256"
						}
					],
					"name": "revealPlayerChoice",
					"outputs": [],
					"stateMutability": "nonpayable",
					"type": "function"
				},
				{
					"inputs": [],
					"name": "timeModule",
					"outputs": [
						{
							"internalType": "contract TimeUnit",
							"name": "",
							"type": "address"
						}
					],
					"stateMutability": "view",
					"type": "function"
				},
				{
					"inputs": [],
					"name": "withdrawIfGameTimedOut",
					"outputs": [],
					"stateMutability": "nonpayable",
					"type": "function"
				}
			],
			"devdoc": {
				"kind": "dev",
				"methods": {},
				"version": 1
			},
			"evm": {
				"assembly": "    /* \"RPS.sol\":130:9534  contract RPSGame {... */\n  mstore(0x40, 0x80)\n    /* \"RPS.sol\":180:181  0 */\n  0x00\n    /* \"RPS.sol\":154:181  uint public playerCount = 0 */\n  dup1\n  sstore\n    /* \"RPS.sol\":295:296  0 */\n  0x00\n    /* \"RPS.sol\":271:296  uint public prizePool = 0 */\n  0x01\n  sstore\n    /* \"RPS.sol\":796:797  0 */\n  0x00\n    /* \"RPS.sol\":771:797  uint public inputCount = 0 */\n  0x05\n  sstore\n    /* \"RPS.sol\":1025:1034  6 minutes */\n  0x0168\n    /* \"RPS.sol\":995:1034  uint256 public gameDuration = 6 minutes */\n  0x07\n  sstore\n    /* \"RPS.sol\":1713:1968  address[4] private allowedPlayers = [... */\n  mload(0x40)\n  dup1\n  0x80\n  add\n  0x40\n  mstore\n  dup1\n    /* \"RPS.sol\":1760:1802  0x5B38Da6a701c568545dCfcB03FcB875f56beddC4 */\n  0x5b38da6a701c568545dcfcb03fcb875f56beddc4\n    /* \"RPS.sol\":1713:1968  address[4] private allowedPlayers = [... */\n  0xffffffffffffffffffffffffffffffffffffffff\n  and\n  0xffffffffffffffffffffffffffffffffffffffff\n  and\n  dup2\n  mstore\n  0x20\n  add\n    /* \"RPS.sol\":1813:1855  0xAb8483F64d9C6d1EcF9b849Ae677dD3315835cb2 */\n  0xab8483f64d9c6d1ecf9b849ae677dd3315835cb2\n    /* \"RPS.sol\":1713:1968  address[4] private allowedPlayers = [... */\n  0xffffffffffffffffffffffffffffffffffffffff\n  and\n  0xffffffffffffffffffffffffffffffffffffffff\n  and\n  dup2\n  mstore\n  0x20\n  add\n    /* \"RPS.sol\":1866:1908  0x4B20993Bc481177ec7E8f571ceCaE8A9e22C02db */\n  0x4b20993bc481177ec7e8f571cecae8a9e22c02db\n    /* \"RPS.sol\":1713:1968  address[4] private allowedPlayers = [... */\n  0xffffffffffffffffffffffffffffffffffffffff\n  and\n  0xffffffffffffffffffffffffffffffffffffffff\n  and\n  dup2\n  mstore\n  0x20\n  add\n    /* \"RPS.sol\":1919:1961  0x78731D3Ca6b7E34aC0F824c42a7cC18A495cabaB */\n  0x78731d3ca6b7e34ac0f824c42a7cc18a495cabab\n    /* \"RPS.sol\":1713:1968  address[4] private allowedPlayers = [... */\n  0xffffffffffffffffffffffffffffffffffffffff\n  and\n  0xffffffffffffffffffffffffffffffffffffffff\n  and\n  dup2\n  mstore\n  pop\n  0x0a\n  swap1\n  0x04\n  tag_1\n  swap3\n  swap2\n  swap1\n  tag_2\n  jump\t// in\ntag_1:\n  pop\n    /* \"RPS.sol\":1381:1573  constructor(address _timeUnitAddress, address _commitRevealAddress) {... */\n  callvalue\n  dup1\n  iszero\n  tag_3\n  jumpi\n  0x00\n  dup1\n  revert\ntag_3:\n  pop\n  mload(0x40)\n  sub(codesize, bytecodeSize)\n  dup1\n  bytecodeSize\n  dup4\n  codecopy\n  dup2\n  dup2\n  add\n  0x40\n  mstore\n  dup2\n  add\n  swap1\n  tag_4\n  swap2\n  swap1\n  tag_5\n  jump\t// in\ntag_4:\n    /* \"RPS.sol\":1482:1498  _timeUnitAddress */\n  dup2\n    /* \"RPS.sol\":1460:1470  timeModule */\n  0x08\n  0x00\n    /* \"RPS.sol\":1460:1499  timeModule = TimeUnit(_timeUnitAddress) */\n  0x0100\n  exp\n  dup2\n  sload\n  dup2\n  0xffffffffffffffffffffffffffffffffffffffff\n  mul\n  not\n  and\n  swap1\n  dup4\n  0xffffffffffffffffffffffffffffffffffffffff\n  and\n  mul\n  or\n  swap1\n  sstore\n  pop\n    /* \"RPS.sol\":1544:1564  _commitRevealAddress */\n  dup1\n    /* \"RPS.sol\":1510:1528  commitRevealModule */\n  0x09\n  0x00\n    /* \"RPS.sol\":1510:1565  commitRevealModule = CommitReveal(_commitRevealAddress) */\n  0x0100\n  exp\n  dup2\n  sload\n  dup2\n  0xffffffffffffffffffffffffffffffffffffffff\n  mul\n  not\n  and\n  swap1\n  dup4\n  0xffffffffffffffffffffffffffffffffffffffff\n  and\n  mul\n  or\n  swap1\n  sstore\n  pop\n    /* \"RPS.sol\":1381:1573  constructor(address _timeUnitAddress, address _commitRevealAddress) {... */\n  pop\n  pop\n    /* \"RPS.sol\":130:9534  contract RPSGame {... */\n  jump(tag_8)\ntag_2:\n  dup3\n  0x04\n  dup2\n  add\n  swap3\n  dup3\n  iszero\n  tag_9\n  jumpi\n  swap2\n  0x20\n  mul\n  dup3\n  add\ntag_10:\n  dup3\n  dup2\n  gt\n  iszero\n  tag_11\n  jumpi\n  dup3\n  mload\n  dup3\n  exp(0x0100, 0x00)\n  dup2\n  sload\n  dup2\n  0xffffffffffffffffffffffffffffffffffffffff\n  mul\n  not\n  and\n  swap1\n  dup4\n  0xffffffffffffffffffffffffffffffffffffffff\n  and\n  mul\n  or\n  swap1\n  sstore\n  pop\n  swap2\n  0x20\n  add\n  swap2\n  swap1\n  0x01\n  add\n  swap1\n  jump(tag_10)\ntag_11:\ntag_9:\n  pop\n  swap1\n  pop\n  tag_12\n  swap2\n  swap1\n  tag_13\n  jump\t// in\ntag_12:\n  pop\n  swap1\n  jump\t// out\ntag_13:\ntag_14:\n  dup1\n  dup3\n  gt\n  iszero\n  tag_15\n  jumpi\n  0x00\n  dup2\n  0x00\n  swap1\n  sstore\n  pop\n  0x01\n  add\n  jump(tag_14)\ntag_15:\n  pop\n  swap1\n  jump\t// out\n    /* \"#utility.yul\":88:205   */\ntag_17:\n    /* \"#utility.yul\":197:198   */\n  0x00\n    /* \"#utility.yul\":194:195   */\n  dup1\n    /* \"#utility.yul\":187:199   */\n  revert\n    /* \"#utility.yul\":334:460   */\ntag_19:\n    /* \"#utility.yul\":371:378   */\n  0x00\n    /* \"#utility.yul\":411:453   */\n  0xffffffffffffffffffffffffffffffffffffffff\n    /* \"#utility.yul\":404:409   */\n  dup3\n    /* \"#utility.yul\":400:454   */\n  and\n    /* \"#utility.yul\":389:454   */\n  swap1\n  pop\n    /* \"#utility.yul\":334:460   */\n  swap2\n  swap1\n  pop\n  jump\t// out\n    /* \"#utility.yul\":466:562   */\ntag_20:\n    /* \"#utility.yul\":503:510   */\n  0x00\n    /* \"#utility.yul\":532:556   */\n  tag_29\n    /* \"#utility.yul\":550:555   */\n  dup3\n    /* \"#utility.yul\":532:556   */\n  tag_19\n  jump\t// in\ntag_29:\n    /* \"#utility.yul\":521:556   */\n  swap1\n  pop\n    /* \"#utility.yul\":466:562   */\n  swap2\n  swap1\n  pop\n  jump\t// out\n    /* \"#utility.yul\":568:690   */\ntag_21:\n    /* \"#utility.yul\":641:665   */\n  tag_31\n    /* \"#utility.yul\":659:664   */\n  dup2\n    /* \"#utility.yul\":641:665   */\n  tag_20\n  jump\t// in\ntag_31:\n    /* \"#utility.yul\":634:639   */\n  dup2\n    /* \"#utility.yul\":631:666   */\n  eq\n    /* \"#utility.yul\":621:684   */\n  tag_32\n  jumpi\n    /* \"#utility.yul\":680:681   */\n  0x00\n    /* \"#utility.yul\":677:678   */\n  dup1\n    /* \"#utility.yul\":670:682   */\n  revert\n    /* \"#utility.yul\":621:684   */\ntag_32:\n    /* \"#utility.yul\":568:690   */\n  pop\n  jump\t// out\n    /* \"#utility.yul\":696:839   */\ntag_22:\n    /* \"#utility.yul\":753:758   */\n  0x00\n    /* \"#utility.yul\":784:790   */\n  dup2\n    /* \"#utility.yul\":778:791   */\n  mload\n    /* \"#utility.yul\":769:791   */\n  swap1\n  pop\n    /* \"#utility.yul\":800:833   */\n  tag_34\n    /* \"#utility.yul\":827:832   */\n  dup2\n    /* \"#utility.yul\":800:833   */\n  tag_21\n  jump\t// in\ntag_34:\n    /* \"#utility.yul\":696:839   */\n  swap3\n  swap2\n  pop\n  pop\n  jump\t// out\n    /* \"#utility.yul\":845:1352   */\ntag_5:\n    /* \"#utility.yul\":924:930   */\n  0x00\n    /* \"#utility.yul\":932:938   */\n  dup1\n    /* \"#utility.yul\":981:983   */\n  0x40\n    /* \"#utility.yul\":969:978   */\n  dup4\n    /* \"#utility.yul\":960:967   */\n  dup6\n    /* \"#utility.yul\":956:979   */\n  sub\n    /* \"#utility.yul\":952:984   */\n  slt\n    /* \"#utility.yul\":949:1068   */\n  iszero\n  tag_36\n  jumpi\n    /* \"#utility.yul\":987:1066   */\n  tag_37\n  tag_17\n  jump\t// in\ntag_37:\n    /* \"#utility.yul\":949:1068   */\ntag_36:\n    /* \"#utility.yul\":1107:1108   */\n  0x00\n    /* \"#utility.yul\":1132:1196   */\n  tag_38\n    /* \"#utility.yul\":1188:1195   */\n  dup6\n    /* \"#utility.yul\":1179:1185   */\n  dup3\n    /* \"#utility.yul\":1168:1177   */\n  dup7\n    /* \"#utility.yul\":1164:1186   */\n  add\n    /* \"#utility.yul\":1132:1196   */\n  tag_22\n  jump\t// in\ntag_38:\n    /* \"#utility.yul\":1122:1196   */\n  swap3\n  pop\n    /* \"#utility.yul\":1078:1206   */\n  pop\n    /* \"#utility.yul\":1245:1247   */\n  0x20\n    /* \"#utility.yul\":1271:1335   */\n  tag_39\n    /* \"#utility.yul\":1327:1334   */\n  dup6\n    /* \"#utility.yul\":1318:1324   */\n  dup3\n    /* \"#utility.yul\":1307:1316   */\n  dup7\n    /* \"#utility.yul\":1303:1325   */\n  add\n    /* \"#utility.yul\":1271:1335   */\n  tag_22\n  jump\t// in\ntag_39:\n    /* \"#utility.yul\":1261:1335   */\n  swap2\n  pop\n    /* \"#utility.yul\":1216:1345   */\n  pop\n    /* \"#utility.yul\":845:1352   */\n  swap3\n  pop\n  swap3\n  swap1\n  pop\n  jump\t// out\n    /* \"RPS.sol\":130:9534  contract RPSGame {... */\ntag_8:\n  dataSize(sub_0)\n  dup1\n  dataOffset(sub_0)\n  0x00\n  codecopy\n  0x00\n  return\nstop\n\nsub_0: assembly {\n        /* \"RPS.sol\":130:9534  contract RPSGame {... */\n      mstore(0x40, 0x80)\n      jumpi(tag_1, lt(calldatasize, 0x04))\n      shr(0xe0, calldataload(0x00))\n      dup1\n      0xae65f4ff\n      gt\n      tag_17\n      jumpi\n      dup1\n      0xd4f77b1c\n      gt\n      tag_18\n      jumpi\n      dup1\n      0xd4f77b1c\n      eq\n      tag_13\n      jumpi\n      dup1\n      0xe1f0c376\n      eq\n      tag_14\n      jumpi\n      dup1\n      0xe7dc36ad\n      eq\n      tag_15\n      jumpi\n      dup1\n      0xfea3ee59\n      eq\n      tag_16\n      jumpi\n      jump(tag_1)\n    tag_18:\n      dup1\n      0xae65f4ff\n      eq\n      tag_9\n      jumpi\n      dup1\n      0xb55f108f\n      eq\n      tag_10\n      jumpi\n      dup1\n      0xc34039ff\n      eq\n      tag_11\n      jumpi\n      dup1\n      0xc8d9b6d5\n      eq\n      tag_12\n      jumpi\n      jump(tag_1)\n    tag_17:\n      dup1\n      0x5bfe6e00\n      gt\n      tag_19\n      jumpi\n      dup1\n      0x5bfe6e00\n      eq\n      tag_5\n      jumpi\n      dup1\n      0x719ce73e\n      eq\n      tag_6\n      jumpi\n      dup1\n      0x8c0ccf3e\n      eq\n      tag_7\n      jumpi\n      dup1\n      0x91b3f40e\n      eq\n      tag_8\n      jumpi\n      jump(tag_1)\n    tag_19:\n      dup1\n      0x0652e0f6\n      eq\n      tag_2\n      jumpi\n      dup1\n      0x302bcc57\n      eq\n      tag_3\n      jumpi\n      dup1\n      0x436ba795\n      eq\n      tag_4\n      jumpi\n    tag_1:\n      0x00\n      dup1\n      revert\n        /* \"RPS.sol\":4562:5761  function revealPlayerChoice(uint choice, uint nonce) public onlyAuthorizedPlayers {... */\n    tag_2:\n      callvalue\n      dup1\n      iszero\n      tag_20\n      jumpi\n      0x00\n      dup1\n      revert\n    tag_20:\n      pop\n      tag_21\n      0x04\n      dup1\n      calldatasize\n      sub\n      dup2\n      add\n      swap1\n      tag_22\n      swap2\n      swap1\n      tag_23\n      jump\t// in\n    tag_22:\n      tag_24\n      jump\t// in\n    tag_21:\n      stop\n        /* \"RPS.sol\":154:181  uint public playerCount = 0 */\n    tag_3:\n      callvalue\n      dup1\n      iszero\n      tag_25\n      jumpi\n      0x00\n      dup1\n      revert\n    tag_25:\n      pop\n      tag_26\n      tag_27\n      jump\t// in\n    tag_26:\n      mload(0x40)\n      tag_28\n      swap2\n      swap1\n      tag_29\n      jump\t// in\n    tag_28:\n      mload(0x40)\n      dup1\n      swap2\n      sub\n      swap1\n      return\n        /* \"RPS.sol\":1155:1193  CommitReveal public commitRevealModule */\n    tag_4:\n      callvalue\n      dup1\n      iszero\n      tag_30\n      jumpi\n      0x00\n      dup1\n      revert\n    tag_30:\n      pop\n      tag_31\n      tag_32\n      jump\t// in\n    tag_31:\n      mload(0x40)\n      tag_33\n      swap2\n      swap1\n      tag_34\n      jump\t// in\n    tag_33:\n      mload(0x40)\n      dup1\n      swap2\n      sub\n      swap1\n      return\n        /* \"RPS.sol\":905:938  uint256 public gameStartTimestamp */\n    tag_5:\n      callvalue\n      dup1\n      iszero\n      tag_35\n      jumpi\n      0x00\n      dup1\n      revert\n    tag_35:\n      pop\n      tag_36\n      tag_37\n      jump\t// in\n    tag_36:\n      mload(0x40)\n      tag_38\n      swap2\n      swap1\n      tag_29\n      jump\t// in\n    tag_38:\n      mload(0x40)\n      dup1\n      swap2\n      sub\n      swap1\n      return\n        /* \"RPS.sol\":271:296  uint public prizePool = 0 */\n    tag_6:\n      callvalue\n      dup1\n      iszero\n      tag_39\n      jumpi\n      0x00\n      dup1\n      revert\n    tag_39:\n      pop\n      tag_40\n      tag_41\n      jump\t// in\n    tag_40:\n      mload(0x40)\n      tag_42\n      swap2\n      swap1\n      tag_29\n      jump\t// in\n    tag_42:\n      mload(0x40)\n      dup1\n      swap2\n      sub\n      swap1\n      return\n        /* \"RPS.sol\":5916:6863  function withdrawIfGameTimedOut() public {... */\n    tag_7:\n      callvalue\n      dup1\n      iszero\n      tag_43\n      jumpi\n      0x00\n      dup1\n      revert\n    tag_43:\n      pop\n      tag_44\n      tag_45\n      jump\t// in\n    tag_44:\n      stop\n        /* \"RPS.sol\":495:540  mapping(address => uint) public playerChoices */\n    tag_8:\n      callvalue\n      dup1\n      iszero\n      tag_46\n      jumpi\n      0x00\n      dup1\n      revert\n    tag_46:\n      pop\n      tag_47\n      0x04\n      dup1\n      calldatasize\n      sub\n      dup2\n      add\n      swap1\n      tag_48\n      swap2\n      swap1\n      tag_49\n      jump\t// in\n    tag_48:\n      tag_50\n      jump\t// in\n    tag_47:\n      mload(0x40)\n      tag_51\n      swap2\n      swap1\n      tag_29\n      jump\t// in\n    tag_51:\n      mload(0x40)\n      dup1\n      swap2\n      sub\n      swap1\n      return\n        /* \"RPS.sol\":364:411  mapping(address => bytes32) public playerHashes */\n    tag_9:\n      callvalue\n      dup1\n      iszero\n      tag_52\n      jumpi\n      0x00\n      dup1\n      revert\n    tag_52:\n      pop\n      tag_53\n      0x04\n      dup1\n      calldatasize\n      sub\n      dup2\n      add\n      swap1\n      tag_54\n      swap2\n      swap1\n      tag_49\n      jump\t// in\n    tag_54:\n      tag_55\n      jump\t// in\n    tag_53:\n      mload(0x40)\n      tag_56\n      swap2\n      swap1\n      tag_57\n      jump\t// in\n    tag_56:\n      mload(0x40)\n      dup1\n      swap2\n      sub\n      swap1\n      return\n        /* \"RPS.sol\":618:648  address[] public activePlayers */\n    tag_10:\n      callvalue\n      dup1\n      iszero\n      tag_58\n      jumpi\n      0x00\n      dup1\n      revert\n    tag_58:\n      pop\n      tag_59\n      0x04\n      dup1\n      calldatasize\n      sub\n      dup2\n      add\n      swap1\n      tag_60\n      swap2\n      swap1\n      tag_61\n      jump\t// in\n    tag_60:\n      tag_62\n      jump\t// in\n    tag_59:\n      mload(0x40)\n      tag_63\n      swap2\n      swap1\n      tag_64\n      jump\t// in\n    tag_63:\n      mload(0x40)\n      dup1\n      swap2\n      sub\n      swap1\n      return\n        /* \"RPS.sol\":9316:9531  function computeCommitmentHash(uint choice, uint nonce) public pure returns (bytes32) {... */\n    tag_11:\n      callvalue\n      dup1\n      iszero\n      tag_65\n      jumpi\n      0x00\n      dup1\n      revert\n    tag_65:\n      pop\n      tag_66\n      0x04\n      dup1\n      calldatasize\n      sub\n      dup2\n      add\n      swap1\n      tag_67\n      swap2\n      swap1\n      tag_23\n      jump\t// in\n    tag_67:\n      tag_68\n      jump\t// in\n    tag_66:\n      mload(0x40)\n      tag_69\n      swap2\n      swap1\n      tag_57\n      jump\t// in\n    tag_69:\n      mload(0x40)\n      dup1\n      swap2\n      sub\n      swap1\n      return\n        /* \"RPS.sol\":1081:1107  TimeUnit public timeModule */\n    tag_12:\n      callvalue\n      dup1\n      iszero\n      tag_70\n      jumpi\n      0x00\n      dup1\n      revert\n    tag_70:\n      pop\n      tag_71\n      tag_72\n      jump\t// in\n    tag_71:\n      mload(0x40)\n      tag_73\n      swap2\n      swap1\n      tag_74\n      jump\t// in\n    tag_73:\n      mload(0x40)\n      dup1\n      swap2\n      sub\n      swap1\n      return\n        /* \"RPS.sol\":2604:3633  function joinGame() public payable onlyAuthorizedPlayers {... */\n    tag_13:\n      tag_75\n      tag_76\n      jump\t// in\n    tag_75:\n      stop\n        /* \"RPS.sol\":995:1034  uint256 public gameDuration = 6 minutes */\n    tag_14:\n      callvalue\n      dup1\n      iszero\n      tag_77\n      jumpi\n      0x00\n      dup1\n      revert\n    tag_77:\n      pop\n      tag_78\n      tag_79\n      jump\t// in\n    tag_78:\n      mload(0x40)\n      tag_80\n      swap2\n      swap1\n      tag_29\n      jump\t// in\n    tag_80:\n      mload(0x40)\n      dup1\n      swap2\n      sub\n      swap1\n      return\n        /* \"RPS.sol\":771:797  uint public inputCount = 0 */\n    tag_15:\n      callvalue\n      dup1\n      iszero\n      tag_81\n      jumpi\n      0x00\n      dup1\n      revert\n    tag_81:\n      pop\n      tag_82\n      tag_83\n      jump\t// in\n    tag_82:\n      mload(0x40)\n      tag_84\n      swap2\n      swap1\n      tag_29\n      jump\t// in\n    tag_84:\n      mload(0x40)\n      dup1\n      swap2\n      sub\n      swap1\n      return\n        /* \"RPS.sol\":3774:4367  function commitPlayerChoice(bytes32 hashChoice) public onlyAuthorizedPlayers {... */\n    tag_16:\n      callvalue\n      dup1\n      iszero\n      tag_85\n      jumpi\n      0x00\n      dup1\n      revert\n    tag_85:\n      pop\n      tag_86\n      0x04\n      dup1\n      calldatasize\n      sub\n      dup2\n      add\n      swap1\n      tag_87\n      swap2\n      swap1\n      tag_88\n      jump\t// in\n    tag_87:\n      tag_89\n      jump\t// in\n    tag_86:\n      stop\n        /* \"RPS.sol\":4562:5761  function revealPlayerChoice(uint choice, uint nonce) public onlyAuthorizedPlayers {... */\n    tag_24:\n        /* \"RPS.sol\":2156:2173  bool isAuthorized */\n      0x00\n        /* \"RPS.sol\":2197:2203  uint i */\n      dup1\n        /* \"RPS.sol\":2192:2382  for (uint i = 0; i < allowedPlayers.length; i++) {... */\n    tag_91:\n        /* \"RPS.sol\":2213:2234  allowedPlayers.length */\n      0x04\n        /* \"RPS.sol\":2209:2210  i */\n      dup2\n        /* \"RPS.sol\":2209:2234  i < allowedPlayers.length */\n      lt\n        /* \"RPS.sol\":2192:2382  for (uint i = 0; i < allowedPlayers.length; i++) {... */\n      iszero\n      tag_92\n      jumpi\n        /* \"RPS.sol\":2274:2288  allowedPlayers */\n      0x0a\n        /* \"RPS.sol\":2289:2290  i */\n      dup2\n        /* \"RPS.sol\":2274:2291  allowedPlayers[i] */\n      0x04\n      dup2\n      lt\n      tag_94\n      jumpi\n      tag_95\n      tag_96\n      jump\t// in\n    tag_95:\n    tag_94:\n      add\n      0x00\n      swap1\n      sload\n      swap1\n      0x0100\n      exp\n      swap1\n      div\n      0xffffffffffffffffffffffffffffffffffffffff\n      and\n        /* \"RPS.sol\":2260:2291  msg.sender == allowedPlayers[i] */\n      0xffffffffffffffffffffffffffffffffffffffff\n      and\n        /* \"RPS.sol\":2260:2270  msg.sender */\n      caller\n        /* \"RPS.sol\":2260:2291  msg.sender == allowedPlayers[i] */\n      0xffffffffffffffffffffffffffffffffffffffff\n      and\n      sub\n        /* \"RPS.sol\":2256:2371  if (msg.sender == allowedPlayers[i]) {... */\n      tag_98\n      jumpi\n        /* \"RPS.sol\":2327:2331  true */\n      0x01\n        /* \"RPS.sol\":2312:2331  isAuthorized = true */\n      swap2\n      pop\n        /* \"RPS.sol\":2350:2355  break */\n      jump(tag_92)\n        /* \"RPS.sol\":2256:2371  if (msg.sender == allowedPlayers[i]) {... */\n    tag_98:\n        /* \"RPS.sol\":2236:2239  i++ */\n      dup1\n      dup1\n      0x01\n      add\n      swap2\n      pop\n      pop\n        /* \"RPS.sol\":2192:2382  for (uint i = 0; i < allowedPlayers.length; i++) {... */\n      jump(tag_91)\n    tag_92:\n      pop\n        /* \"RPS.sol\":2400:2412  isAuthorized */\n      dup1\n        /* \"RPS.sol\":2392:2447  require(isAuthorized, \"You are not authorized to play\") */\n      tag_99\n      jumpi\n      mload(0x40)\n      0x08c379a000000000000000000000000000000000000000000000000000000000\n      dup2\n      mstore\n      0x04\n      add\n      tag_100\n      swap1\n      tag_101\n      jump\t// in\n    tag_100:\n      mload(0x40)\n      dup1\n      swap2\n      sub\n      swap1\n      revert\n    tag_99:\n        /* \"RPS.sol\":4678:4679  2 */\n      0x02\n        /* \"RPS.sol\":4663:4674  playerCount */\n      sload(0x00)\n        /* \"RPS.sol\":4663:4679  playerCount == 2 */\n      eq\n        /* \"RPS.sol\":4655:4708  require(playerCount == 2, \"Game has not started yet\") */\n      tag_103\n      jumpi\n      mload(0x40)\n      0x08c379a000000000000000000000000000000000000000000000000000000000\n      dup2\n      mstore\n      0x04\n      add\n      tag_104\n      swap1\n      tag_105\n      jump\t// in\n    tag_104:\n      mload(0x40)\n      dup1\n      swap2\n      sub\n      swap1\n      revert\n    tag_103:\n        /* \"RPS.sol\":4802:4803  0 */\n      0x00\n        /* \"RPS.sol\":4774:4803  playerHashes[msg.sender] != 0 */\n      dup1\n      shl\n        /* \"RPS.sol\":4774:4786  playerHashes */\n      0x02\n        /* \"RPS.sol\":4774:4798  playerHashes[msg.sender] */\n      0x00\n        /* \"RPS.sol\":4787:4797  msg.sender */\n      caller\n        /* \"RPS.sol\":4774:4798  playerHashes[msg.sender] */\n      0xffffffffffffffffffffffffffffffffffffffff\n      and\n      0xffffffffffffffffffffffffffffffffffffffff\n      and\n      dup2\n      mstore\n      0x20\n      add\n      swap1\n      dup2\n      mstore\n      0x20\n      add\n      0x00\n      keccak256\n      sload\n        /* \"RPS.sol\":4774:4803  playerHashes[msg.sender] != 0 */\n      sub\n        /* \"RPS.sol\":4766:4827  require(playerHashes[msg.sender] != 0, \"No choice committed\") */\n      tag_106\n      jumpi\n      mload(0x40)\n      0x08c379a000000000000000000000000000000000000000000000000000000000\n      dup2\n      mstore\n      0x04\n      add\n      tag_107\n      swap1\n      tag_108\n      jump\t// in\n    tag_107:\n      mload(0x40)\n      dup1\n      swap2\n      sub\n      swap1\n      revert\n    tag_106:\n        /* \"RPS.sol\":4941:4942  0 */\n      0x00\n        /* \"RPS.sol\":4931:4937  choice */\n      dup4\n        /* \"RPS.sol\":4931:4942  choice >= 0 */\n      lt\n      iszero\n        /* \"RPS.sol\":4931:4957  choice >= 0 && choice <= 4 */\n      dup1\n      iszero\n      tag_109\n      jumpi\n      pop\n        /* \"RPS.sol\":4956:4957  4 */\n      0x04\n        /* \"RPS.sol\":4946:4952  choice */\n      dup4\n        /* \"RPS.sol\":4946:4957  choice <= 4 */\n      gt\n      iszero\n        /* \"RPS.sol\":4931:4957  choice >= 0 && choice <= 4 */\n    tag_109:\n        /* \"RPS.sol\":4923:4976  require(choice >= 0 && choice <= 4, \"Invalid choice\") */\n      tag_110\n      jumpi\n      mload(0x40)\n      0x08c379a000000000000000000000000000000000000000000000000000000000\n      dup2\n      mstore\n      0x04\n      add\n      tag_111\n      swap1\n      tag_112\n      jump\t// in\n    tag_111:\n      mload(0x40)\n      dup1\n      swap2\n      sub\n      swap1\n      revert\n    tag_110:\n        /* \"RPS.sol\":5173:5185  playerHashes */\n      0x02\n        /* \"RPS.sol\":5173:5197  playerHashes[msg.sender] */\n      0x00\n        /* \"RPS.sol\":5186:5196  msg.sender */\n      caller\n        /* \"RPS.sol\":5173:5197  playerHashes[msg.sender] */\n      0xffffffffffffffffffffffffffffffffffffffff\n      and\n      0xffffffffffffffffffffffffffffffffffffffff\n      and\n      dup2\n      mstore\n      0x20\n      add\n      swap1\n      dup2\n      mstore\n      0x20\n      add\n      0x00\n      keccak256\n      sload\n        /* \"RPS.sol\":5099:5117  commitRevealModule */\n      0x09\n      0x00\n      swap1\n      sload\n      swap1\n      0x0100\n      exp\n      swap1\n      div\n      0xffffffffffffffffffffffffffffffffffffffff\n      and\n        /* \"RPS.sol\":5099:5125  commitRevealModule.getHash */\n      0xffffffffffffffffffffffffffffffffffffffff\n      and\n      0x3cf5040a\n        /* \"RPS.sol\":5153:5159  choice */\n      dup6\n        /* \"RPS.sol\":5161:5166  nonce */\n      dup6\n        /* \"RPS.sol\":5136:5167  abi.encodePacked(choice, nonce) */\n      add(0x20, mload(0x40))\n      tag_113\n      swap3\n      swap2\n      swap1\n      tag_114\n      jump\t// in\n    tag_113:\n      mload(0x40)\n      0x20\n      dup2\n      dup4\n      sub\n      sub\n      dup2\n      mstore\n      swap1\n      0x40\n      mstore\n        /* \"RPS.sol\":5126:5168  keccak256(abi.encodePacked(choice, nonce)) */\n      dup1\n      mload\n      swap1\n      0x20\n      add\n      keccak256\n        /* \"RPS.sol\":5099:5169  commitRevealModule.getHash(keccak256(abi.encodePacked(choice, nonce))) */\n      mload(0x40)\n      dup3\n      0xffffffff\n      and\n      0xe0\n      shl\n      dup2\n      mstore\n      0x04\n      add\n      tag_115\n      swap2\n      swap1\n      tag_57\n      jump\t// in\n    tag_115:\n      0x20\n      mload(0x40)\n      dup1\n      dup4\n      sub\n      dup2\n      dup7\n      gas\n      staticcall\n      iszero\n      dup1\n      iszero\n      tag_117\n      jumpi\n      returndatasize\n      0x00\n      dup1\n      returndatacopy\n      revert(0x00, returndatasize)\n    tag_117:\n      pop\n      pop\n      pop\n      pop\n      mload(0x40)\n      returndatasize\n      not(0x1f)\n      0x1f\n      dup3\n      add\n      and\n      dup3\n      add\n      dup1\n      0x40\n      mstore\n      pop\n      dup2\n      add\n      swap1\n      tag_118\n      swap2\n      swap1\n      tag_119\n      jump\t// in\n    tag_118:\n        /* \"RPS.sol\":5099:5197  commitRevealModule.getHash(keccak256(abi.encodePacked(choice, nonce))) == playerHashes[msg.sender] */\n      eq\n        /* \"RPS.sol\":5091:5234  require(commitRevealModule.getHash(keccak256(abi.encodePacked(choice, nonce))) == playerHashes[msg.sender], \"Reveal does not match commitment\") */\n      tag_120\n      jumpi\n      mload(0x40)\n      0x08c379a000000000000000000000000000000000000000000000000000000000\n      dup2\n      mstore\n      0x04\n      add\n      tag_121\n      swap1\n      tag_122\n      jump\t// in\n    tag_121:\n      mload(0x40)\n      dup1\n      swap2\n      sub\n      swap1\n      revert\n    tag_120:\n        /* \"RPS.sol\":5352:5358  choice */\n      dup3\n        /* \"RPS.sol\":5324:5337  playerChoices */\n      0x03\n        /* \"RPS.sol\":5324:5349  playerChoices[msg.sender] */\n      0x00\n        /* \"RPS.sol\":5338:5348  msg.sender */\n      caller\n        /* \"RPS.sol\":5324:5349  playerChoices[msg.sender] */\n      0xffffffffffffffffffffffffffffffffffffffff\n      and\n      0xffffffffffffffffffffffffffffffffffffffff\n      and\n      dup2\n      mstore\n      0x20\n      add\n      swap1\n      dup2\n      mstore\n      0x20\n      add\n      0x00\n      keccak256\n        /* \"RPS.sol\":5324:5358  playerChoices[msg.sender] = choice */\n      dup2\n      swap1\n      sstore\n      pop\n        /* \"RPS.sol\":5440:5450  inputCount */\n      0x05\n      0x00\n        /* \"RPS.sol\":5440:5452  inputCount++ */\n      dup2\n      sload\n      dup1\n      swap3\n      swap2\n      swap1\n      tag_123\n      swap1\n      tag_124\n      jump\t// in\n    tag_123:\n      swap2\n      swap1\n      pop\n      sstore\n      pop\n        /* \"RPS.sol\":5569:5570  2 */\n      0x02\n        /* \"RPS.sol\":5555:5565  inputCount */\n      sload(0x05)\n        /* \"RPS.sol\":5555:5570  inputCount == 2 */\n      sub\n        /* \"RPS.sol\":5551:5754  if (inputCount == 2) {... */\n      tag_125\n      jumpi\n        /* \"RPS.sol\":5587:5613  determineWinnerAndReward() */\n      tag_126\n        /* \"RPS.sol\":5587:5611  determineWinnerAndReward */\n      tag_127\n        /* \"RPS.sol\":5587:5613  determineWinnerAndReward() */\n      jump\t// in\n    tag_126:\n        /* \"RPS.sol\":5551:5754  if (inputCount == 2) {... */\n    tag_125:\n        /* \"RPS.sol\":2145:2467  {... */\n      pop\n        /* \"RPS.sol\":4562:5761  function revealPlayerChoice(uint choice, uint nonce) public onlyAuthorizedPlayers {... */\n      pop\n      pop\n      jump\t// out\n        /* \"RPS.sol\":154:181  uint public playerCount = 0 */\n    tag_27:\n      sload(0x00)\n      dup2\n      jump\t// out\n        /* \"RPS.sol\":1155:1193  CommitReveal public commitRevealModule */\n    tag_32:\n      0x09\n      0x00\n      swap1\n      sload\n      swap1\n      0x0100\n      exp\n      swap1\n      div\n      0xffffffffffffffffffffffffffffffffffffffff\n      and\n      dup2\n      jump\t// out\n        /* \"RPS.sol\":905:938  uint256 public gameStartTimestamp */\n    tag_37:\n      sload(0x06)\n      dup2\n      jump\t// out\n        /* \"RPS.sol\":271:296  uint public prizePool = 0 */\n    tag_41:\n      sload(0x01)\n      dup2\n      jump\t// out\n        /* \"RPS.sol\":5916:6863  function withdrawIfGameTimedOut() public {... */\n    tag_45:\n        /* \"RPS.sol\":6016:6028  gameDuration */\n      sload(0x07)\n        /* \"RPS.sol\":5995:6013  gameStartTimestamp */\n      sload(0x06)\n        /* \"RPS.sol\":5995:6028  gameStartTimestamp + gameDuration */\n      tag_129\n      swap2\n      swap1\n      tag_130\n      jump\t// in\n    tag_129:\n        /* \"RPS.sol\":5976:5991  block.timestamp */\n      timestamp\n        /* \"RPS.sol\":5976:6028  block.timestamp >= gameStartTimestamp + gameDuration */\n      lt\n      iszero\n        /* \"RPS.sol\":5968:6059  require(block.timestamp >= gameStartTimestamp + gameDuration, \"Game has not timed out yet\") */\n      tag_131\n      jumpi\n      mload(0x40)\n      0x08c379a000000000000000000000000000000000000000000000000000000000\n      dup2\n      mstore\n      0x04\n      add\n      tag_132\n      swap1\n      tag_133\n      jump\t// in\n    tag_132:\n      mload(0x40)\n      dup1\n      swap2\n      sub\n      swap1\n      revert\n    tag_131:\n        /* \"RPS.sol\":6168:6169  1 */\n      0x01\n        /* \"RPS.sol\":6153:6164  playerCount */\n      sload(0x00)\n        /* \"RPS.sol\":6153:6169  playerCount == 1 */\n      sub\n        /* \"RPS.sol\":6149:6778  if (playerCount == 1) {... */\n      tag_134\n      jumpi\n        /* \"RPS.sol\":6194:6207  activePlayers */\n      0x04\n        /* \"RPS.sol\":6208:6209  0 */\n      0x00\n        /* \"RPS.sol\":6194:6210  activePlayers[0] */\n      dup2\n      sload\n      dup2\n      lt\n      tag_135\n      jumpi\n      tag_136\n      tag_96\n      jump\t// in\n    tag_136:\n    tag_135:\n      swap1\n      0x00\n      mstore\n      keccak256(0x00, 0x20)\n      add\n      0x00\n      swap1\n      sload\n      swap1\n      0x0100\n      exp\n      swap1\n      div\n      0xffffffffffffffffffffffffffffffffffffffff\n      and\n        /* \"RPS.sol\":6186:6220  payable(activePlayers[0]).transfer */\n      0xffffffffffffffffffffffffffffffffffffffff\n      and\n        /* \"RPS.sol\":6186:6231  payable(activePlayers[0]).transfer(prizePool) */\n      0x08fc\n        /* \"RPS.sol\":6221:6230  prizePool */\n      sload(0x01)\n        /* \"RPS.sol\":6186:6231  payable(activePlayers[0]).transfer(prizePool) */\n      swap1\n      dup2\n      iszero\n      mul\n      swap1\n      mload(0x40)\n      0x00\n      mload(0x40)\n      dup1\n      dup4\n      sub\n      dup2\n      dup6\n      dup9\n      dup9\n      call\n      swap4\n      pop\n      pop\n      pop\n      pop\n      iszero\n      dup1\n      iszero\n      tag_139\n      jumpi\n      returndatasize\n      0x00\n      dup1\n      returndatacopy\n      revert(0x00, returndatasize)\n    tag_139:\n      pop\n        /* \"RPS.sol\":6149:6778  if (playerCount == 1) {... */\n      jump(tag_140)\n    tag_134:\n        /* \"RPS.sol\":6388:6389  2 */\n      0x02\n        /* \"RPS.sol\":6373:6384  playerCount */\n      sload(0x00)\n        /* \"RPS.sol\":6373:6389  playerCount == 2 */\n      sub\n        /* \"RPS.sol\":6369:6778  if (playerCount == 2) {... */\n      tag_141\n      jumpi\n        /* \"RPS.sol\":6414:6427  activePlayers */\n      0x04\n        /* \"RPS.sol\":6428:6429  0 */\n      0x00\n        /* \"RPS.sol\":6414:6430  activePlayers[0] */\n      dup2\n      sload\n      dup2\n      lt\n      tag_142\n      jumpi\n      tag_143\n      tag_96\n      jump\t// in\n    tag_143:\n    tag_142:\n      swap1\n      0x00\n      mstore\n      keccak256(0x00, 0x20)\n      add\n      0x00\n      swap1\n      sload\n      swap1\n      0x0100\n      exp\n      swap1\n      div\n      0xffffffffffffffffffffffffffffffffffffffff\n      and\n        /* \"RPS.sol\":6406:6440  payable(activePlayers[0]).transfer */\n      0xffffffffffffffffffffffffffffffffffffffff\n      and\n        /* \"RPS.sol\":6406:6455  payable(activePlayers[0]).transfer(prizePool / 2) */\n      0x08fc\n        /* \"RPS.sol\":6453:6454  2 */\n      0x02\n        /* \"RPS.sol\":6441:6450  prizePool */\n      sload(0x01)\n        /* \"RPS.sol\":6441:6454  prizePool / 2 */\n      tag_145\n      swap2\n      swap1\n      tag_146\n      jump\t// in\n    tag_145:\n        /* \"RPS.sol\":6406:6455  payable(activePlayers[0]).transfer(prizePool / 2) */\n      swap1\n      dup2\n      iszero\n      mul\n      swap1\n      mload(0x40)\n      0x00\n      mload(0x40)\n      dup1\n      dup4\n      sub\n      dup2\n      dup6\n      dup9\n      dup9\n      call\n      swap4\n      pop\n      pop\n      pop\n      pop\n      iszero\n      dup1\n      iszero\n      tag_148\n      jumpi\n      returndatasize\n      0x00\n      dup1\n      returndatacopy\n      revert(0x00, returndatasize)\n    tag_148:\n      pop\n        /* \"RPS.sol\":6597:6610  activePlayers */\n      0x04\n        /* \"RPS.sol\":6611:6612  1 */\n      0x01\n        /* \"RPS.sol\":6597:6613  activePlayers[1] */\n      dup2\n      sload\n      dup2\n      lt\n      tag_149\n      jumpi\n      tag_150\n      tag_96\n      jump\t// in\n    tag_150:\n    tag_149:\n      swap1\n      0x00\n      mstore\n      keccak256(0x00, 0x20)\n      add\n      0x00\n      swap1\n      sload\n      swap1\n      0x0100\n      exp\n      swap1\n      div\n      0xffffffffffffffffffffffffffffffffffffffff\n      and\n        /* \"RPS.sol\":6589:6623  payable(activePlayers[1]).transfer */\n      0xffffffffffffffffffffffffffffffffffffffff\n      and\n        /* \"RPS.sol\":6589:6638  payable(activePlayers[1]).transfer(prizePool / 2) */\n      0x08fc\n        /* \"RPS.sol\":6636:6637  2 */\n      0x02\n        /* \"RPS.sol\":6624:6633  prizePool */\n      sload(0x01)\n        /* \"RPS.sol\":6624:6637  prizePool / 2 */\n      tag_152\n      swap2\n      swap1\n      tag_146\n      jump\t// in\n    tag_152:\n        /* \"RPS.sol\":6589:6638  payable(activePlayers[1]).transfer(prizePool / 2) */\n      swap1\n      dup2\n      iszero\n      mul\n      swap1\n      mload(0x40)\n      0x00\n      mload(0x40)\n      dup1\n      dup4\n      sub\n      dup2\n      dup6\n      dup9\n      dup9\n      call\n      swap4\n      pop\n      pop\n      pop\n      pop\n      iszero\n      dup1\n      iszero\n      tag_154\n      jumpi\n      returndatasize\n      0x00\n      dup1\n      returndatacopy\n      revert(0x00, returndatasize)\n    tag_154:\n      pop\n        /* \"RPS.sol\":6369:6778  if (playerCount == 2) {... */\n    tag_141:\n        /* \"RPS.sol\":6149:6778  if (playerCount == 1) {... */\n    tag_140:\n        /* \"RPS.sol\":6788:6799  resetGame() */\n      tag_155\n        /* \"RPS.sol\":6788:6797  resetGame */\n      tag_156\n        /* \"RPS.sol\":6788:6799  resetGame() */\n      jump\t// in\n    tag_155:\n        /* \"RPS.sol\":5916:6863  function withdrawIfGameTimedOut() public {... */\n      jump\t// out\n        /* \"RPS.sol\":495:540  mapping(address => uint) public playerChoices */\n    tag_50:\n      mstore(0x20, 0x03)\n      dup1\n      0x00\n      mstore\n      keccak256(0x00, 0x40)\n      0x00\n      swap2\n      pop\n      swap1\n      pop\n      sload\n      dup2\n      jump\t// out\n        /* \"RPS.sol\":364:411  mapping(address => bytes32) public playerHashes */\n    tag_55:\n      mstore(0x20, 0x02)\n      dup1\n      0x00\n      mstore\n      keccak256(0x00, 0x40)\n      0x00\n      swap2\n      pop\n      swap1\n      pop\n      sload\n      dup2\n      jump\t// out\n        /* \"RPS.sol\":618:648  address[] public activePlayers */\n    tag_62:\n      0x04\n      dup2\n      dup2\n      sload\n      dup2\n      lt\n      tag_157\n      jumpi\n      0x00\n      dup1\n      revert\n    tag_157:\n      swap1\n      0x00\n      mstore\n      keccak256(0x00, 0x20)\n      add\n      0x00\n      swap2\n      pop\n      sload\n      swap1\n      0x0100\n      exp\n      swap1\n      div\n      0xffffffffffffffffffffffffffffffffffffffff\n      and\n      dup2\n      jump\t// out\n        /* \"RPS.sol\":9316:9531  function computeCommitmentHash(uint choice, uint nonce) public pure returns (bytes32) {... */\n    tag_68:\n        /* \"RPS.sol\":9393:9400  bytes32 */\n      0x00\n        /* \"RPS.sol\":9447:9453  choice */\n      dup3\n        /* \"RPS.sol\":9455:9460  nonce */\n      dup3\n        /* \"RPS.sol\":9430:9461  abi.encodePacked(choice, nonce) */\n      add(0x20, mload(0x40))\n      tag_160\n      swap3\n      swap2\n      swap1\n      tag_114\n      jump\t// in\n    tag_160:\n      mload(0x40)\n      0x20\n      dup2\n      dup4\n      sub\n      sub\n      dup2\n      mstore\n      swap1\n      0x40\n      mstore\n        /* \"RPS.sol\":9420:9462  keccak256(abi.encodePacked(choice, nonce)) */\n      dup1\n      mload\n      swap1\n      0x20\n      add\n      keccak256\n        /* \"RPS.sol\":9413:9462  return keccak256(abi.encodePacked(choice, nonce)) */\n      swap1\n      pop\n        /* \"RPS.sol\":9316:9531  function computeCommitmentHash(uint choice, uint nonce) public pure returns (bytes32) {... */\n      swap3\n      swap2\n      pop\n      pop\n      jump\t// out\n        /* \"RPS.sol\":1081:1107  TimeUnit public timeModule */\n    tag_72:\n      0x08\n      0x00\n      swap1\n      sload\n      swap1\n      0x0100\n      exp\n      swap1\n      div\n      0xffffffffffffffffffffffffffffffffffffffff\n      and\n      dup2\n      jump\t// out\n        /* \"RPS.sol\":2604:3633  function joinGame() public payable onlyAuthorizedPlayers {... */\n    tag_76:\n        /* \"RPS.sol\":2156:2173  bool isAuthorized */\n      0x00\n        /* \"RPS.sol\":2197:2203  uint i */\n      dup1\n        /* \"RPS.sol\":2192:2382  for (uint i = 0; i < allowedPlayers.length; i++) {... */\n    tag_162:\n        /* \"RPS.sol\":2213:2234  allowedPlayers.length */\n      0x04\n        /* \"RPS.sol\":2209:2210  i */\n      dup2\n        /* \"RPS.sol\":2209:2234  i < allowedPlayers.length */\n      lt\n        /* \"RPS.sol\":2192:2382  for (uint i = 0; i < allowedPlayers.length; i++) {... */\n      iszero\n      tag_163\n      jumpi\n        /* \"RPS.sol\":2274:2288  allowedPlayers */\n      0x0a\n        /* \"RPS.sol\":2289:2290  i */\n      dup2\n        /* \"RPS.sol\":2274:2291  allowedPlayers[i] */\n      0x04\n      dup2\n      lt\n      tag_165\n      jumpi\n      tag_166\n      tag_96\n      jump\t// in\n    tag_166:\n    tag_165:\n      add\n      0x00\n      swap1\n      sload\n      swap1\n      0x0100\n      exp\n      swap1\n      div\n      0xffffffffffffffffffffffffffffffffffffffff\n      and\n        /* \"RPS.sol\":2260:2291  msg.sender == allowedPlayers[i] */\n      0xffffffffffffffffffffffffffffffffffffffff\n      and\n        /* \"RPS.sol\":2260:2270  msg.sender */\n      caller\n        /* \"RPS.sol\":2260:2291  msg.sender == allowedPlayers[i] */\n      0xffffffffffffffffffffffffffffffffffffffff\n      and\n      sub\n        /* \"RPS.sol\":2256:2371  if (msg.sender == allowedPlayers[i]) {... */\n      tag_168\n      jumpi\n        /* \"RPS.sol\":2327:2331  true */\n      0x01\n        /* \"RPS.sol\":2312:2331  isAuthorized = true */\n      swap2\n      pop\n        /* \"RPS.sol\":2350:2355  break */\n      jump(tag_163)\n        /* \"RPS.sol\":2256:2371  if (msg.sender == allowedPlayers[i]) {... */\n    tag_168:\n        /* \"RPS.sol\":2236:2239  i++ */\n      dup1\n      dup1\n      0x01\n      add\n      swap2\n      pop\n      pop\n        /* \"RPS.sol\":2192:2382  for (uint i = 0; i < allowedPlayers.length; i++) {... */\n      jump(tag_162)\n    tag_163:\n      pop\n        /* \"RPS.sol\":2400:2412  isAuthorized */\n      dup1\n        /* \"RPS.sol\":2392:2447  require(isAuthorized, \"You are not authorized to play\") */\n      tag_169\n      jumpi\n      mload(0x40)\n      0x08c379a000000000000000000000000000000000000000000000000000000000\n      dup2\n      mstore\n      0x04\n      add\n      tag_170\n      swap1\n      tag_101\n      jump\t// in\n    tag_170:\n      mload(0x40)\n      dup1\n      swap2\n      sub\n      swap1\n      revert\n    tag_169:\n        /* \"RPS.sol\":2694:2695  2 */\n      0x02\n        /* \"RPS.sol\":2680:2691  playerCount */\n      sload(0x00)\n        /* \"RPS.sol\":2680:2695  playerCount < 2 */\n      lt\n        /* \"RPS.sol\":2672:2720  require(playerCount < 2, \"Game is already full\") */\n      tag_172\n      jumpi\n      mload(0x40)\n      0x08c379a000000000000000000000000000000000000000000000000000000000\n      dup2\n      mstore\n      0x04\n      add\n      tag_173\n      swap1\n      tag_174\n      jump\t// in\n    tag_173:\n      mload(0x40)\n      dup1\n      swap2\n      sub\n      swap1\n      revert\n    tag_172:\n        /* \"RPS.sol\":2790:2797  1 ether */\n      0x0de0b6b3a7640000\n        /* \"RPS.sol\":2777:2786  msg.value */\n      callvalue\n        /* \"RPS.sol\":2777:2797  msg.value == 1 ether */\n      eq\n        /* \"RPS.sol\":2769:2825  require(msg.value == 1 ether, \"Must send exactly 1 ETH\") */\n      tag_175\n      jumpi\n      mload(0x40)\n      0x08c379a000000000000000000000000000000000000000000000000000000000\n      dup2\n      mstore\n      0x04\n      add\n      tag_176\n      swap1\n      tag_177\n      jump\t// in\n    tag_176:\n      mload(0x40)\n      dup1\n      swap2\n      sub\n      swap1\n      revert\n    tag_175:\n        /* \"RPS.sol\":2925:2926  0 */\n      0x00\n        /* \"RPS.sol\":2901:2914  activePlayers */\n      0x04\n        /* \"RPS.sol\":2901:2921  activePlayers.length */\n      dup1\n      sload\n      swap1\n      pop\n        /* \"RPS.sol\":2901:2926  activePlayers.length == 0 */\n      eq\n        /* \"RPS.sol\":2901:2960  activePlayers.length == 0 || msg.sender != activePlayers[0] */\n      dup1\n      tag_178\n      jumpi\n      pop\n        /* \"RPS.sol\":2944:2957  activePlayers */\n      0x04\n        /* \"RPS.sol\":2958:2959  0 */\n      0x00\n        /* \"RPS.sol\":2944:2960  activePlayers[0] */\n      dup2\n      sload\n      dup2\n      lt\n      tag_179\n      jumpi\n      tag_180\n      tag_96\n      jump\t// in\n    tag_180:\n    tag_179:\n      swap1\n      0x00\n      mstore\n      keccak256(0x00, 0x20)\n      add\n      0x00\n      swap1\n      sload\n      swap1\n      0x0100\n      exp\n      swap1\n      div\n      0xffffffffffffffffffffffffffffffffffffffff\n      and\n        /* \"RPS.sol\":2930:2960  msg.sender != activePlayers[0] */\n      0xffffffffffffffffffffffffffffffffffffffff\n      and\n        /* \"RPS.sol\":2930:2940  msg.sender */\n      caller\n        /* \"RPS.sol\":2930:2960  msg.sender != activePlayers[0] */\n      0xffffffffffffffffffffffffffffffffffffffff\n      and\n      eq\n      iszero\n        /* \"RPS.sol\":2901:2960  activePlayers.length == 0 || msg.sender != activePlayers[0] */\n    tag_178:\n        /* \"RPS.sol\":2893:2986  require(activePlayers.length == 0 || msg.sender != activePlayers[0], \"Player already joined\") */\n      tag_182\n      jumpi\n      mload(0x40)\n      0x08c379a000000000000000000000000000000000000000000000000000000000\n      dup2\n      mstore\n      0x04\n      add\n      tag_183\n      swap1\n      tag_184\n      jump\t// in\n    tag_183:\n      mload(0x40)\n      dup1\n      swap2\n      sub\n      swap1\n      revert\n    tag_182:\n        /* \"RPS.sol\":3155:3156  0 */\n      0x00\n        /* \"RPS.sol\":3140:3151  playerCount */\n      dup1\n      sload\n        /* \"RPS.sol\":3140:3156  playerCount == 0 */\n      sub\n        /* \"RPS.sol\":3136:3346  if (playerCount == 0) {... */\n      tag_185\n      jumpi\n        /* \"RPS.sol\":3194:3209  block.timestamp */\n      timestamp\n        /* \"RPS.sol\":3173:3191  gameStartTimestamp */\n      0x06\n        /* \"RPS.sol\":3173:3209  gameStartTimestamp = block.timestamp */\n      dup2\n      swap1\n      sstore\n      pop\n        /* \"RPS.sol\":3136:3346  if (playerCount == 0) {... */\n    tag_185:\n        /* \"RPS.sol\":3371:3380  msg.value */\n      callvalue\n        /* \"RPS.sol\":3358:3367  prizePool */\n      0x01\n      0x00\n        /* \"RPS.sol\":3358:3380  prizePool += msg.value */\n      dup3\n      dup3\n      sload\n      tag_186\n      swap2\n      swap1\n      tag_130\n      jump\t// in\n    tag_186:\n      swap3\n      pop\n      pop\n      dup2\n      swap1\n      sstore\n      pop\n        /* \"RPS.sol\":3450:3463  activePlayers */\n      0x04\n        /* \"RPS.sol\":3469:3479  msg.sender */\n      caller\n        /* \"RPS.sol\":3450:3480  activePlayers.push(msg.sender) */\n      swap1\n      dup1\n      0x01\n      dup2\n      sload\n      add\n      dup1\n      dup3\n      sstore\n      dup1\n      swap2\n      pop\n      pop\n      0x01\n      swap1\n      sub\n      swap1\n      0x00\n      mstore\n      keccak256(0x00, 0x20)\n      add\n      0x00\n      swap1\n      swap2\n      swap1\n      swap2\n      swap1\n      swap2\n      0x0100\n      exp\n      dup2\n      sload\n      dup2\n      0xffffffffffffffffffffffffffffffffffffffff\n      mul\n      not\n      and\n      swap1\n      dup4\n      0xffffffffffffffffffffffffffffffffffffffff\n      and\n      mul\n      or\n      swap1\n      sstore\n      pop\n        /* \"RPS.sol\":3556:3567  playerCount */\n      0x00\n      dup1\n        /* \"RPS.sol\":3556:3569  playerCount++ */\n      dup2\n      sload\n      dup1\n      swap3\n      swap2\n      swap1\n      tag_188\n      swap1\n      tag_124\n      jump\t// in\n    tag_188:\n      swap2\n      swap1\n      pop\n      sstore\n      pop\n        /* \"RPS.sol\":2145:2467  {... */\n      pop\n        /* \"RPS.sol\":2604:3633  function joinGame() public payable onlyAuthorizedPlayers {... */\n      jump\t// out\n        /* \"RPS.sol\":995:1034  uint256 public gameDuration = 6 minutes */\n    tag_79:\n      sload(0x07)\n      dup2\n      jump\t// out\n        /* \"RPS.sol\":771:797  uint public inputCount = 0 */\n    tag_83:\n      sload(0x05)\n      dup2\n      jump\t// out\n        /* \"RPS.sol\":3774:4367  function commitPlayerChoice(bytes32 hashChoice) public onlyAuthorizedPlayers {... */\n    tag_89:\n        /* \"RPS.sol\":2156:2173  bool isAuthorized */\n      0x00\n        /* \"RPS.sol\":2197:2203  uint i */\n      dup1\n        /* \"RPS.sol\":2192:2382  for (uint i = 0; i < allowedPlayers.length; i++) {... */\n    tag_190:\n        /* \"RPS.sol\":2213:2234  allowedPlayers.length */\n      0x04\n        /* \"RPS.sol\":2209:2210  i */\n      dup2\n        /* \"RPS.sol\":2209:2234  i < allowedPlayers.length */\n      lt\n        /* \"RPS.sol\":2192:2382  for (uint i = 0; i < allowedPlayers.length; i++) {... */\n      iszero\n      tag_191\n      jumpi\n        /* \"RPS.sol\":2274:2288  allowedPlayers */\n      0x0a\n        /* \"RPS.sol\":2289:2290  i */\n      dup2\n        /* \"RPS.sol\":2274:2291  allowedPlayers[i] */\n      0x04\n      dup2\n      lt\n      tag_193\n      jumpi\n      tag_194\n      tag_96\n      jump\t// in\n    tag_194:\n    tag_193:\n      add\n      0x00\n      swap1\n      sload\n      swap1\n      0x0100\n      exp\n      swap1\n      div\n      0xffffffffffffffffffffffffffffffffffffffff\n      and\n        /* \"RPS.sol\":2260:2291  msg.sender == allowedPlayers[i] */\n      0xffffffffffffffffffffffffffffffffffffffff\n      and\n        /* \"RPS.sol\":2260:2270  msg.sender */\n      caller\n        /* \"RPS.sol\":2260:2291  msg.sender == allowedPlayers[i] */\n      0xffffffffffffffffffffffffffffffffffffffff\n      and\n      sub\n        /* \"RPS.sol\":2256:2371  if (msg.sender == allowedPlayers[i]) {... */\n      tag_196\n      jumpi\n        /* \"RPS.sol\":2327:2331  true */\n      0x01\n        /* \"RPS.sol\":2312:2331  isAuthorized = true */\n      swap2\n      pop\n        /* \"RPS.sol\":2350:2355  break */\n      jump(tag_191)\n        /* \"RPS.sol\":2256:2371  if (msg.sender == allowedPlayers[i]) {... */\n    tag_196:\n        /* \"RPS.sol\":2236:2239  i++ */\n      dup1\n      dup1\n      0x01\n      add\n      swap2\n      pop\n      pop\n        /* \"RPS.sol\":2192:2382  for (uint i = 0; i < allowedPlayers.length; i++) {... */\n      jump(tag_190)\n    tag_191:\n      pop\n        /* \"RPS.sol\":2400:2412  isAuthorized */\n      dup1\n        /* \"RPS.sol\":2392:2447  require(isAuthorized, \"You are not authorized to play\") */\n      tag_197\n      jumpi\n      mload(0x40)\n      0x08c379a000000000000000000000000000000000000000000000000000000000\n      dup2\n      mstore\n      0x04\n      add\n      tag_198\n      swap1\n      tag_101\n      jump\t// in\n    tag_198:\n      mload(0x40)\n      dup1\n      swap2\n      sub\n      swap1\n      revert\n    tag_197:\n        /* \"RPS.sol\":3885:3886  2 */\n      0x02\n        /* \"RPS.sol\":3870:3881  playerCount */\n      sload(0x00)\n        /* \"RPS.sol\":3870:3886  playerCount == 2 */\n      eq\n        /* \"RPS.sol\":3862:3915  require(playerCount == 2, \"Game has not started yet\") */\n      tag_200\n      jumpi\n      mload(0x40)\n      0x08c379a000000000000000000000000000000000000000000000000000000000\n      dup2\n      mstore\n      0x04\n      add\n      tag_201\n      swap1\n      tag_105\n      jump\t// in\n    tag_201:\n      mload(0x40)\n      dup1\n      swap2\n      sub\n      swap1\n      revert\n    tag_200:\n        /* \"RPS.sol\":4009:4010  0 */\n      0x00\n        /* \"RPS.sol\":3981:4010  playerHashes[msg.sender] == 0 */\n      dup1\n      shl\n        /* \"RPS.sol\":3981:3993  playerHashes */\n      0x02\n        /* \"RPS.sol\":3981:4005  playerHashes[msg.sender] */\n      0x00\n        /* \"RPS.sol\":3994:4004  msg.sender */\n      caller\n        /* \"RPS.sol\":3981:4005  playerHashes[msg.sender] */\n      0xffffffffffffffffffffffffffffffffffffffff\n      and\n      0xffffffffffffffffffffffffffffffffffffffff\n      and\n      dup2\n      mstore\n      0x20\n      add\n      swap1\n      dup2\n      mstore\n      0x20\n      add\n      0x00\n      keccak256\n      sload\n        /* \"RPS.sol\":3981:4010  playerHashes[msg.sender] == 0 */\n      eq\n        /* \"RPS.sol\":3973:4039  require(playerHashes[msg.sender] == 0, \"Choice already committed\") */\n      tag_202\n      jumpi\n      mload(0x40)\n      0x08c379a000000000000000000000000000000000000000000000000000000000\n      dup2\n      mstore\n      0x04\n      add\n      tag_203\n      swap1\n      tag_204\n      jump\t// in\n    tag_203:\n      mload(0x40)\n      dup1\n      swap2\n      sub\n      swap1\n      revert\n    tag_202:\n        /* \"RPS.sol\":4165:4183  commitRevealModule */\n      0x09\n      0x00\n      swap1\n      sload\n      swap1\n      0x0100\n      exp\n      swap1\n      div\n      0xffffffffffffffffffffffffffffffffffffffff\n      and\n        /* \"RPS.sol\":4165:4190  commitRevealModule.commit */\n      0xffffffffffffffffffffffffffffffffffffffff\n      and\n      0xf14fcbc8\n        /* \"RPS.sol\":4191:4201  hashChoice */\n      dup4\n        /* \"RPS.sol\":4165:4202  commitRevealModule.commit(hashChoice) */\n      mload(0x40)\n      dup3\n      0xffffffff\n      and\n      0xe0\n      shl\n      dup2\n      mstore\n      0x04\n      add\n      tag_205\n      swap2\n      swap1\n      tag_57\n      jump\t// in\n    tag_205:\n      0x00\n      mload(0x40)\n      dup1\n      dup4\n      sub\n      dup2\n      0x00\n      dup8\n      dup1\n      extcodesize\n      iszero\n      dup1\n      iszero\n      tag_206\n      jumpi\n      0x00\n      dup1\n      revert\n    tag_206:\n      pop\n      gas\n      call\n      iszero\n      dup1\n      iszero\n      tag_208\n      jumpi\n      returndatasize\n      0x00\n      dup1\n      returndatacopy\n      revert(0x00, returndatasize)\n    tag_208:\n      pop\n      pop\n      pop\n      pop\n        /* \"RPS.sol\":4302:4312  hashChoice */\n      dup2\n        /* \"RPS.sol\":4275:4287  playerHashes */\n      0x02\n        /* \"RPS.sol\":4275:4299  playerHashes[msg.sender] */\n      0x00\n        /* \"RPS.sol\":4288:4298  msg.sender */\n      caller\n        /* \"RPS.sol\":4275:4299  playerHashes[msg.sender] */\n      0xffffffffffffffffffffffffffffffffffffffff\n      and\n      0xffffffffffffffffffffffffffffffffffffffff\n      and\n      dup2\n      mstore\n      0x20\n      add\n      swap1\n      dup2\n      mstore\n      0x20\n      add\n      0x00\n      keccak256\n        /* \"RPS.sol\":4275:4312  playerHashes[msg.sender] = hashChoice */\n      dup2\n      swap1\n      sstore\n      pop\n        /* \"RPS.sol\":2145:2467  {... */\n      pop\n        /* \"RPS.sol\":3774:4367  function commitPlayerChoice(bytes32 hashChoice) public onlyAuthorizedPlayers {... */\n      pop\n      jump\t// out\n        /* \"RPS.sol\":7006:8263  function determineWinnerAndReward() private {... */\n    tag_127:\n        /* \"RPS.sol\":7061:7079  uint player1Choice */\n      0x00\n        /* \"RPS.sol\":7082:7095  playerChoices */\n      0x03\n        /* \"RPS.sol\":7082:7113  playerChoices[activePlayers[0]] */\n      0x00\n        /* \"RPS.sol\":7096:7109  activePlayers */\n      0x04\n        /* \"RPS.sol\":7110:7111  0 */\n      0x00\n        /* \"RPS.sol\":7096:7112  activePlayers[0] */\n      dup2\n      sload\n      dup2\n      lt\n      tag_210\n      jumpi\n      tag_211\n      tag_96\n      jump\t// in\n    tag_211:\n    tag_210:\n      swap1\n      0x00\n      mstore\n      keccak256(0x00, 0x20)\n      add\n      0x00\n      swap1\n      sload\n      swap1\n      0x0100\n      exp\n      swap1\n      div\n      0xffffffffffffffffffffffffffffffffffffffff\n      and\n        /* \"RPS.sol\":7082:7113  playerChoices[activePlayers[0]] */\n      0xffffffffffffffffffffffffffffffffffffffff\n      and\n      0xffffffffffffffffffffffffffffffffffffffff\n      and\n      dup2\n      mstore\n      0x20\n      add\n      swap1\n      dup2\n      mstore\n      0x20\n      add\n      0x00\n      keccak256\n      sload\n        /* \"RPS.sol\":7061:7113  uint player1Choice = playerChoices[activePlayers[0]] */\n      swap1\n      pop\n        /* \"RPS.sol\":7198:7216  uint player2Choice */\n      0x00\n        /* \"RPS.sol\":7219:7232  playerChoices */\n      0x03\n        /* \"RPS.sol\":7219:7250  playerChoices[activePlayers[1]] */\n      0x00\n        /* \"RPS.sol\":7233:7246  activePlayers */\n      0x04\n        /* \"RPS.sol\":7247:7248  1 */\n      0x01\n        /* \"RPS.sol\":7233:7249  activePlayers[1] */\n      dup2\n      sload\n      dup2\n      lt\n      tag_213\n      jumpi\n      tag_214\n      tag_96\n      jump\t// in\n    tag_214:\n    tag_213:\n      swap1\n      0x00\n      mstore\n      keccak256(0x00, 0x20)\n      add\n      0x00\n      swap1\n      sload\n      swap1\n      0x0100\n      exp\n      swap1\n      div\n      0xffffffffffffffffffffffffffffffffffffffff\n      and\n        /* \"RPS.sol\":7219:7250  playerChoices[activePlayers[1]] */\n      0xffffffffffffffffffffffffffffffffffffffff\n      and\n      0xffffffffffffffffffffffffffffffffffffffff\n      and\n      dup2\n      mstore\n      0x20\n      add\n      swap1\n      dup2\n      mstore\n      0x20\n      add\n      0x00\n      keccak256\n      sload\n        /* \"RPS.sol\":7198:7250  uint player2Choice = playerChoices[activePlayers[1]] */\n      swap1\n      pop\n        /* \"RPS.sol\":7344:7367  address payable player1 */\n      0x00\n        /* \"RPS.sol\":7378:7391  activePlayers */\n      0x04\n        /* \"RPS.sol\":7392:7393  0 */\n      0x00\n        /* \"RPS.sol\":7378:7394  activePlayers[0] */\n      dup2\n      sload\n      dup2\n      lt\n      tag_216\n      jumpi\n      tag_217\n      tag_96\n      jump\t// in\n    tag_217:\n    tag_216:\n      swap1\n      0x00\n      mstore\n      keccak256(0x00, 0x20)\n      add\n      0x00\n      swap1\n      sload\n      swap1\n      0x0100\n      exp\n      swap1\n      div\n      0xffffffffffffffffffffffffffffffffffffffff\n      and\n        /* \"RPS.sol\":7344:7395  address payable player1 = payable(activePlayers[0]) */\n      swap1\n      pop\n        /* \"RPS.sol\":7406:7429  address payable player2 */\n      0x00\n        /* \"RPS.sol\":7440:7453  activePlayers */\n      0x04\n        /* \"RPS.sol\":7454:7455  1 */\n      0x01\n        /* \"RPS.sol\":7440:7456  activePlayers[1] */\n      dup2\n      sload\n      dup2\n      lt\n      tag_219\n      jumpi\n      tag_220\n      tag_96\n      jump\t// in\n    tag_220:\n    tag_219:\n      swap1\n      0x00\n      mstore\n      keccak256(0x00, 0x20)\n      add\n      0x00\n      swap1\n      sload\n      swap1\n      0x0100\n      exp\n      swap1\n      div\n      0xffffffffffffffffffffffffffffffffffffffff\n      and\n        /* \"RPS.sol\":7406:7457  address payable player2 = payable(activePlayers[1]) */\n      swap1\n      pop\n        /* \"RPS.sol\":7582:7595  player2Choice */\n      dup3\n        /* \"RPS.sol\":7577:7578  5 */\n      0x05\n        /* \"RPS.sol\":7572:7573  1 */\n      0x01\n        /* \"RPS.sol\":7556:7569  player1Choice */\n      dup7\n        /* \"RPS.sol\":7556:7573  player1Choice + 1 */\n      tag_222\n      swap2\n      swap1\n      tag_130\n      jump\t// in\n    tag_222:\n        /* \"RPS.sol\":7555:7578  (player1Choice + 1) % 5 */\n      tag_223\n      swap2\n      swap1\n      tag_224\n      jump\t// in\n    tag_223:\n        /* \"RPS.sol\":7555:7595  (player1Choice + 1) % 5 == player2Choice */\n      eq\n        /* \"RPS.sol\":7555:7639  (player1Choice + 1) % 5 == player2Choice || (player1Choice + 3) % 5 == player2Choice */\n      dup1\n      tag_225\n      jumpi\n      pop\n        /* \"RPS.sol\":7626:7639  player2Choice */\n      dup3\n        /* \"RPS.sol\":7621:7622  5 */\n      0x05\n        /* \"RPS.sol\":7616:7617  3 */\n      0x03\n        /* \"RPS.sol\":7600:7613  player1Choice */\n      dup7\n        /* \"RPS.sol\":7600:7617  player1Choice + 3 */\n      tag_226\n      swap2\n      swap1\n      tag_130\n      jump\t// in\n    tag_226:\n        /* \"RPS.sol\":7599:7622  (player1Choice + 3) % 5 */\n      tag_227\n      swap2\n      swap1\n      tag_224\n      jump\t// in\n    tag_227:\n        /* \"RPS.sol\":7599:7639  (player1Choice + 3) % 5 == player2Choice */\n      eq\n        /* \"RPS.sol\":7555:7639  (player1Choice + 1) % 5 == player2Choice || (player1Choice + 3) % 5 == player2Choice */\n    tag_225:\n        /* \"RPS.sol\":7551:8157  if ((player1Choice + 1) % 5 == player2Choice || (player1Choice + 3) % 5 == player2Choice) {... */\n      iszero\n      tag_228\n      jumpi\n        /* \"RPS.sol\":7656:7663  player2 */\n      dup1\n        /* \"RPS.sol\":7656:7672  player2.transfer */\n      0xffffffffffffffffffffffffffffffffffffffff\n      and\n        /* \"RPS.sol\":7656:7683  player2.transfer(prizePool) */\n      0x08fc\n        /* \"RPS.sol\":7673:7682  prizePool */\n      sload(0x01)\n        /* \"RPS.sol\":7656:7683  player2.transfer(prizePool) */\n      swap1\n      dup2\n      iszero\n      mul\n      swap1\n      mload(0x40)\n      0x00\n      mload(0x40)\n      dup1\n      dup4\n      sub\n      dup2\n      dup6\n      dup9\n      dup9\n      call\n      swap4\n      pop\n      pop\n      pop\n      pop\n      iszero\n      dup1\n      iszero\n      tag_230\n      jumpi\n      returndatasize\n      0x00\n      dup1\n      returndatacopy\n      revert(0x00, returndatasize)\n    tag_230:\n      pop\n        /* \"RPS.sol\":7551:8157  if ((player1Choice + 1) % 5 == player2Choice || (player1Choice + 3) % 5 == player2Choice) {... */\n      jump(tag_231)\n    tag_228:\n        /* \"RPS.sol\":7776:7789  player1Choice */\n      dup4\n        /* \"RPS.sol\":7771:7772  5 */\n      0x05\n        /* \"RPS.sol\":7766:7767  1 */\n      0x01\n        /* \"RPS.sol\":7750:7763  player2Choice */\n      dup6\n        /* \"RPS.sol\":7750:7767  player2Choice + 1 */\n      tag_232\n      swap2\n      swap1\n      tag_130\n      jump\t// in\n    tag_232:\n        /* \"RPS.sol\":7749:7772  (player2Choice + 1) % 5 */\n      tag_233\n      swap2\n      swap1\n      tag_224\n      jump\t// in\n    tag_233:\n        /* \"RPS.sol\":7749:7789  (player2Choice + 1) % 5 == player1Choice */\n      eq\n        /* \"RPS.sol\":7749:7833  (player2Choice + 1) % 5 == player1Choice || (player2Choice + 3) % 5 == player1Choice */\n      dup1\n      tag_234\n      jumpi\n      pop\n        /* \"RPS.sol\":7820:7833  player1Choice */\n      dup4\n        /* \"RPS.sol\":7815:7816  5 */\n      0x05\n        /* \"RPS.sol\":7810:7811  3 */\n      0x03\n        /* \"RPS.sol\":7794:7807  player2Choice */\n      dup6\n        /* \"RPS.sol\":7794:7811  player2Choice + 3 */\n      tag_235\n      swap2\n      swap1\n      tag_130\n      jump\t// in\n    tag_235:\n        /* \"RPS.sol\":7793:7816  (player2Choice + 3) % 5 */\n      tag_236\n      swap2\n      swap1\n      tag_224\n      jump\t// in\n    tag_236:\n        /* \"RPS.sol\":7793:7833  (player2Choice + 3) % 5 == player1Choice */\n      eq\n        /* \"RPS.sol\":7749:7833  (player2Choice + 1) % 5 == player1Choice || (player2Choice + 3) % 5 == player1Choice */\n    tag_234:\n        /* \"RPS.sol\":7745:8157  if ((player2Choice + 1) % 5 == player1Choice || (player2Choice + 3) % 5 == player1Choice) {... */\n      iszero\n      tag_237\n      jumpi\n        /* \"RPS.sol\":7850:7857  player1 */\n      dup2\n        /* \"RPS.sol\":7850:7866  player1.transfer */\n      0xffffffffffffffffffffffffffffffffffffffff\n      and\n        /* \"RPS.sol\":7850:7877  player1.transfer(prizePool) */\n      0x08fc\n        /* \"RPS.sol\":7867:7876  prizePool */\n      sload(0x01)\n        /* \"RPS.sol\":7850:7877  player1.transfer(prizePool) */\n      swap1\n      dup2\n      iszero\n      mul\n      swap1\n      mload(0x40)\n      0x00\n      mload(0x40)\n      dup1\n      dup4\n      sub\n      dup2\n      dup6\n      dup9\n      dup9\n      call\n      swap4\n      pop\n      pop\n      pop\n      pop\n      iszero\n      dup1\n      iszero\n      tag_239\n      jumpi\n      returndatasize\n      0x00\n      dup1\n      returndatacopy\n      revert(0x00, returndatasize)\n    tag_239:\n      pop\n        /* \"RPS.sol\":7745:8157  if ((player2Choice + 1) % 5 == player1Choice || (player2Choice + 3) % 5 == player1Choice) {... */\n      jump(tag_240)\n    tag_237:\n        /* \"RPS.sol\":7960:7967  player1 */\n      dup2\n        /* \"RPS.sol\":7960:7976  player1.transfer */\n      0xffffffffffffffffffffffffffffffffffffffff\n      and\n        /* \"RPS.sol\":7960:7991  player1.transfer(prizePool / 2) */\n      0x08fc\n        /* \"RPS.sol\":7989:7990  2 */\n      0x02\n        /* \"RPS.sol\":7977:7986  prizePool */\n      sload(0x01)\n        /* \"RPS.sol\":7977:7990  prizePool / 2 */\n      tag_241\n      swap2\n      swap1\n      tag_146\n      jump\t// in\n    tag_241:\n        /* \"RPS.sol\":7960:7991  player1.transfer(prizePool / 2) */\n      swap1\n      dup2\n      iszero\n      mul\n      swap1\n      mload(0x40)\n      0x00\n      mload(0x40)\n      dup1\n      dup4\n      sub\n      dup2\n      dup6\n      dup9\n      dup9\n      call\n      swap4\n      pop\n      pop\n      pop\n      pop\n      iszero\n      dup1\n      iszero\n      tag_243\n      jumpi\n      returndatasize\n      0x00\n      dup1\n      returndatacopy\n      revert(0x00, returndatasize)\n    tag_243:\n      pop\n        /* \"RPS.sol\":8114:8121  player2 */\n      dup1\n        /* \"RPS.sol\":8114:8130  player2.transfer */\n      0xffffffffffffffffffffffffffffffffffffffff\n      and\n        /* \"RPS.sol\":8114:8145  player2.transfer(prizePool / 2) */\n      0x08fc\n        /* \"RPS.sol\":8143:8144  2 */\n      0x02\n        /* \"RPS.sol\":8131:8140  prizePool */\n      sload(0x01)\n        /* \"RPS.sol\":8131:8144  prizePool / 2 */\n      tag_244\n      swap2\n      swap1\n      tag_146\n      jump\t// in\n    tag_244:\n        /* \"RPS.sol\":8114:8145  player2.transfer(prizePool / 2) */\n      swap1\n      dup2\n      iszero\n      mul\n      swap1\n      mload(0x40)\n      0x00\n      mload(0x40)\n      dup1\n      dup4\n      sub\n      dup2\n      dup6\n      dup9\n      dup9\n      call\n      swap4\n      pop\n      pop\n      pop\n      pop\n      iszero\n      dup1\n      iszero\n      tag_246\n      jumpi\n      returndatasize\n      0x00\n      dup1\n      returndatacopy\n      revert(0x00, returndatasize)\n    tag_246:\n      pop\n        /* \"RPS.sol\":7745:8157  if ((player2Choice + 1) % 5 == player1Choice || (player2Choice + 3) % 5 == player1Choice) {... */\n    tag_240:\n        /* \"RPS.sol\":7551:8157  if ((player1Choice + 1) % 5 == player2Choice || (player1Choice + 3) % 5 == player2Choice) {... */\n    tag_231:\n        /* \"RPS.sol\":8167:8178  resetGame() */\n      tag_247\n        /* \"RPS.sol\":8167:8176  resetGame */\n      tag_156\n        /* \"RPS.sol\":8167:8178  resetGame() */\n      jump\t// in\n    tag_247:\n        /* \"RPS.sol\":7050:8263  {... */\n      pop\n      pop\n      pop\n      pop\n        /* \"RPS.sol\":7006:8263  function determineWinnerAndReward() private {... */\n      jump\t// out\n        /* \"RPS.sol\":8270:9199  function resetGame() private {... */\n    tag_156:\n        /* \"RPS.sol\":8318:8319  0 */\n      0x00\n        /* \"RPS.sol\":8306:8315  prizePool */\n      0x01\n        /* \"RPS.sol\":8306:8319  prizePool = 0 */\n      dup2\n      swap1\n      sstore\n      pop\n        /* \"RPS.sol\":8340:8341  0 */\n      0x00\n        /* \"RPS.sol\":8326:8337  playerCount */\n      dup1\n        /* \"RPS.sol\":8326:8341  playerCount = 0 */\n      dup2\n      swap1\n      sstore\n      pop\n        /* \"RPS.sol\":8361:8362  0 */\n      0x00\n        /* \"RPS.sol\":8348:8358  inputCount */\n      0x05\n        /* \"RPS.sol\":8348:8362  inputCount = 0 */\n      dup2\n      swap1\n      sstore\n      pop\n        /* \"RPS.sol\":8553:8554  0 */\n      0x00\n        /* \"RPS.sol\":8530:8543  activePlayers */\n      0x04\n        /* \"RPS.sol\":8530:8550  activePlayers.length */\n      dup1\n      sload\n      swap1\n      pop\n        /* \"RPS.sol\":8530:8554  activePlayers.length > 0 */\n      gt\n        /* \"RPS.sol\":8526:8612  if (activePlayers.length > 0) {... */\n      iszero\n      tag_249\n      jumpi\n        /* \"RPS.sol\":8574:8586  playerHashes */\n      0x02\n        /* \"RPS.sol\":8574:8604  playerHashes[activePlayers[0]] */\n      0x00\n        /* \"RPS.sol\":8587:8600  activePlayers */\n      0x04\n        /* \"RPS.sol\":8601:8602  0 */\n      0x00\n        /* \"RPS.sol\":8587:8603  activePlayers[0] */\n      dup2\n      sload\n      dup2\n      lt\n      tag_250\n      jumpi\n      tag_251\n      tag_96\n      jump\t// in\n    tag_251:\n    tag_250:\n      swap1\n      0x00\n      mstore\n      keccak256(0x00, 0x20)\n      add\n      0x00\n      swap1\n      sload\n      swap1\n      0x0100\n      exp\n      swap1\n      div\n      0xffffffffffffffffffffffffffffffffffffffff\n      and\n        /* \"RPS.sol\":8574:8604  playerHashes[activePlayers[0]] */\n      0xffffffffffffffffffffffffffffffffffffffff\n      and\n      0xffffffffffffffffffffffffffffffffffffffff\n      and\n      dup2\n      mstore\n      0x20\n      add\n      swap1\n      dup2\n      mstore\n      0x20\n      add\n      0x00\n      keccak256\n        /* \"RPS.sol\":8567:8604  delete playerHashes[activePlayers[0]] */\n      0x00\n      swap1\n      sstore\n        /* \"RPS.sol\":8526:8612  if (activePlayers.length > 0) {... */\n    tag_249:\n        /* \"RPS.sol\":8645:8646  1 */\n      0x01\n        /* \"RPS.sol\":8622:8635  activePlayers */\n      0x04\n        /* \"RPS.sol\":8622:8642  activePlayers.length */\n      dup1\n      sload\n      swap1\n      pop\n        /* \"RPS.sol\":8622:8646  activePlayers.length > 1 */\n      gt\n        /* \"RPS.sol\":8618:8704  if (activePlayers.length > 1) {... */\n      iszero\n      tag_253\n      jumpi\n        /* \"RPS.sol\":8666:8678  playerHashes */\n      0x02\n        /* \"RPS.sol\":8666:8696  playerHashes[activePlayers[1]] */\n      0x00\n        /* \"RPS.sol\":8679:8692  activePlayers */\n      0x04\n        /* \"RPS.sol\":8693:8694  1 */\n      0x01\n        /* \"RPS.sol\":8679:8695  activePlayers[1] */\n      dup2\n      sload\n      dup2\n      lt\n      tag_254\n      jumpi\n      tag_255\n      tag_96\n      jump\t// in\n    tag_255:\n    tag_254:\n      swap1\n      0x00\n      mstore\n      keccak256(0x00, 0x20)\n      add\n      0x00\n      swap1\n      sload\n      swap1\n      0x0100\n      exp\n      swap1\n      div\n      0xffffffffffffffffffffffffffffffffffffffff\n      and\n        /* \"RPS.sol\":8666:8696  playerHashes[activePlayers[1]] */\n      0xffffffffffffffffffffffffffffffffffffffff\n      and\n      0xffffffffffffffffffffffffffffffffffffffff\n      and\n      dup2\n      mstore\n      0x20\n      add\n      swap1\n      dup2\n      mstore\n      0x20\n      add\n      0x00\n      keccak256\n        /* \"RPS.sol\":8659:8696  delete playerHashes[activePlayers[1]] */\n      0x00\n      swap1\n      sstore\n        /* \"RPS.sol\":8618:8704  if (activePlayers.length > 1) {... */\n    tag_253:\n        /* \"RPS.sol\":8743:8744  0 */\n      0x00\n        /* \"RPS.sol\":8720:8733  activePlayers */\n      0x04\n        /* \"RPS.sol\":8720:8740  activePlayers.length */\n      dup1\n      sload\n      swap1\n      pop\n        /* \"RPS.sol\":8720:8744  activePlayers.length > 0 */\n      gt\n        /* \"RPS.sol\":8716:8803  if (activePlayers.length > 0) {... */\n      iszero\n      tag_257\n      jumpi\n        /* \"RPS.sol\":8764:8777  playerChoices */\n      0x03\n        /* \"RPS.sol\":8764:8795  playerChoices[activePlayers[0]] */\n      0x00\n        /* \"RPS.sol\":8778:8791  activePlayers */\n      0x04\n        /* \"RPS.sol\":8792:8793  0 */\n      0x00\n        /* \"RPS.sol\":8778:8794  activePlayers[0] */\n      dup2\n      sload\n      dup2\n      lt\n      tag_258\n      jumpi\n      tag_259\n      tag_96\n      jump\t// in\n    tag_259:\n    tag_258:\n      swap1\n      0x00\n      mstore\n      keccak256(0x00, 0x20)\n      add\n      0x00\n      swap1\n      sload\n      swap1\n      0x0100\n      exp\n      swap1\n      div\n      0xffffffffffffffffffffffffffffffffffffffff\n      and\n        /* \"RPS.sol\":8764:8795  playerChoices[activePlayers[0]] */\n      0xffffffffffffffffffffffffffffffffffffffff\n      and\n      0xffffffffffffffffffffffffffffffffffffffff\n      and\n      dup2\n      mstore\n      0x20\n      add\n      swap1\n      dup2\n      mstore\n      0x20\n      add\n      0x00\n      keccak256\n        /* \"RPS.sol\":8757:8795  delete playerChoices[activePlayers[0]] */\n      0x00\n      swap1\n      sstore\n        /* \"RPS.sol\":8716:8803  if (activePlayers.length > 0) {... */\n    tag_257:\n        /* \"RPS.sol\":8836:8837  1 */\n      0x01\n        /* \"RPS.sol\":8813:8826  activePlayers */\n      0x04\n        /* \"RPS.sol\":8813:8833  activePlayers.length */\n      dup1\n      sload\n      swap1\n      pop\n        /* \"RPS.sol\":8813:8837  activePlayers.length > 1 */\n      gt\n        /* \"RPS.sol\":8809:8896  if (activePlayers.length > 1) {... */\n      iszero\n      tag_261\n      jumpi\n        /* \"RPS.sol\":8857:8870  playerChoices */\n      0x03\n        /* \"RPS.sol\":8857:8888  playerChoices[activePlayers[1]] */\n      0x00\n        /* \"RPS.sol\":8871:8884  activePlayers */\n      0x04\n        /* \"RPS.sol\":8885:8886  1 */\n      0x01\n        /* \"RPS.sol\":8871:8887  activePlayers[1] */\n      dup2\n      sload\n      dup2\n      lt\n      tag_262\n      jumpi\n      tag_263\n      tag_96\n      jump\t// in\n    tag_263:\n    tag_262:\n      swap1\n      0x00\n      mstore\n      keccak256(0x00, 0x20)\n      add\n      0x00\n      swap1\n      sload\n      swap1\n      0x0100\n      exp\n      swap1\n      div\n      0xffffffffffffffffffffffffffffffffffffffff\n      and\n        /* \"RPS.sol\":8857:8888  playerChoices[activePlayers[1]] */\n      0xffffffffffffffffffffffffffffffffffffffff\n      and\n      0xffffffffffffffffffffffffffffffffffffffff\n      and\n      dup2\n      mstore\n      0x20\n      add\n      swap1\n      dup2\n      mstore\n      0x20\n      add\n      0x00\n      keccak256\n        /* \"RPS.sol\":8850:8888  delete playerChoices[activePlayers[1]] */\n      0x00\n      swap1\n      sstore\n        /* \"RPS.sol\":8809:8896  if (activePlayers.length > 1) {... */\n    tag_261:\n        /* \"RPS.sol\":9000:9013  activePlayers */\n      0x04\n      0x00\n        /* \"RPS.sol\":8993:9013  delete activePlayers */\n      tag_265\n      swap2\n      swap1\n      tag_266\n      jump\t// in\n    tag_265:\n        /* \"RPS.sol\":9177:9195  gameStartTimestamp */\n      0x06\n        /* \"RPS.sol\":9170:9195  delete gameStartTimestamp */\n      0x00\n      swap1\n      sstore\n        /* \"RPS.sol\":8270:9199  function resetGame() private {... */\n      jump\t// out\n    tag_266:\n      pop\n      dup1\n      sload\n      0x00\n      dup3\n      sstore\n      swap1\n      0x00\n      mstore\n      keccak256(0x00, 0x20)\n      swap1\n      dup2\n      add\n      swap1\n      tag_268\n      swap2\n      swap1\n      tag_269\n      jump\t// in\n    tag_268:\n      pop\n      jump\t// out\n    tag_269:\n    tag_270:\n      dup1\n      dup3\n      gt\n      iszero\n      tag_271\n      jumpi\n      0x00\n      dup2\n      0x00\n      swap1\n      sstore\n      pop\n      0x01\n      add\n      jump(tag_270)\n    tag_271:\n      pop\n      swap1\n      jump\t// out\n        /* \"#utility.yul\":88:205   */\n    tag_273:\n        /* \"#utility.yul\":197:198   */\n      0x00\n        /* \"#utility.yul\":194:195   */\n      dup1\n        /* \"#utility.yul\":187:199   */\n      revert\n        /* \"#utility.yul\":334:411   */\n    tag_275:\n        /* \"#utility.yul\":371:378   */\n      0x00\n        /* \"#utility.yul\":400:405   */\n      dup2\n        /* \"#utility.yul\":389:405   */\n      swap1\n      pop\n        /* \"#utility.yul\":334:411   */\n      swap2\n      swap1\n      pop\n      jump\t// out\n        /* \"#utility.yul\":417:539   */\n    tag_276:\n        /* \"#utility.yul\":490:514   */\n      tag_327\n        /* \"#utility.yul\":508:513   */\n      dup2\n        /* \"#utility.yul\":490:514   */\n      tag_275\n      jump\t// in\n    tag_327:\n        /* \"#utility.yul\":483:488   */\n      dup2\n        /* \"#utility.yul\":480:515   */\n      eq\n        /* \"#utility.yul\":470:533   */\n      tag_328\n      jumpi\n        /* \"#utility.yul\":529:530   */\n      0x00\n        /* \"#utility.yul\":526:527   */\n      dup1\n        /* \"#utility.yul\":519:531   */\n      revert\n        /* \"#utility.yul\":470:533   */\n    tag_328:\n        /* \"#utility.yul\":417:539   */\n      pop\n      jump\t// out\n        /* \"#utility.yul\":545:684   */\n    tag_277:\n        /* \"#utility.yul\":591:596   */\n      0x00\n        /* \"#utility.yul\":629:635   */\n      dup2\n        /* \"#utility.yul\":616:636   */\n      calldataload\n        /* \"#utility.yul\":607:636   */\n      swap1\n      pop\n        /* \"#utility.yul\":645:678   */\n      tag_330\n        /* \"#utility.yul\":672:677   */\n      dup2\n        /* \"#utility.yul\":645:678   */\n      tag_276\n      jump\t// in\n    tag_330:\n        /* \"#utility.yul\":545:684   */\n      swap3\n      swap2\n      pop\n      pop\n      jump\t// out\n        /* \"#utility.yul\":690:1164   */\n    tag_23:\n        /* \"#utility.yul\":758:764   */\n      0x00\n        /* \"#utility.yul\":766:772   */\n      dup1\n        /* \"#utility.yul\":815:817   */\n      0x40\n        /* \"#utility.yul\":803:812   */\n      dup4\n        /* \"#utility.yul\":794:801   */\n      dup6\n        /* \"#utility.yul\":790:813   */\n      sub\n        /* \"#utility.yul\":786:818   */\n      slt\n        /* \"#utility.yul\":783:902   */\n      iszero\n      tag_332\n      jumpi\n        /* \"#utility.yul\":821:900   */\n      tag_333\n      tag_273\n      jump\t// in\n    tag_333:\n        /* \"#utility.yul\":783:902   */\n    tag_332:\n        /* \"#utility.yul\":941:942   */\n      0x00\n        /* \"#utility.yul\":966:1019   */\n      tag_334\n        /* \"#utility.yul\":1011:1018   */\n      dup6\n        /* \"#utility.yul\":1002:1008   */\n      dup3\n        /* \"#utility.yul\":991:1000   */\n      dup7\n        /* \"#utility.yul\":987:1009   */\n      add\n        /* \"#utility.yul\":966:1019   */\n      tag_277\n      jump\t// in\n    tag_334:\n        /* \"#utility.yul\":956:1019   */\n      swap3\n      pop\n        /* \"#utility.yul\":912:1029   */\n      pop\n        /* \"#utility.yul\":1068:1070   */\n      0x20\n        /* \"#utility.yul\":1094:1147   */\n      tag_335\n        /* \"#utility.yul\":1139:1146   */\n      dup6\n        /* \"#utility.yul\":1130:1136   */\n      dup3\n        /* \"#utility.yul\":1119:1128   */\n      dup7\n        /* \"#utility.yul\":1115:1137   */\n      add\n        /* \"#utility.yul\":1094:1147   */\n      tag_277\n      jump\t// in\n    tag_335:\n        /* \"#utility.yul\":1084:1147   */\n      swap2\n      pop\n        /* \"#utility.yul\":1039:1157   */\n      pop\n        /* \"#utility.yul\":690:1164   */\n      swap3\n      pop\n      swap3\n      swap1\n      pop\n      jump\t// out\n        /* \"#utility.yul\":1170:1288   */\n    tag_278:\n        /* \"#utility.yul\":1257:1281   */\n      tag_337\n        /* \"#utility.yul\":1275:1280   */\n      dup2\n        /* \"#utility.yul\":1257:1281   */\n      tag_275\n      jump\t// in\n    tag_337:\n        /* \"#utility.yul\":1252:1255   */\n      dup3\n        /* \"#utility.yul\":1245:1282   */\n      mstore\n        /* \"#utility.yul\":1170:1288   */\n      pop\n      pop\n      jump\t// out\n        /* \"#utility.yul\":1294:1516   */\n    tag_29:\n        /* \"#utility.yul\":1387:1391   */\n      0x00\n        /* \"#utility.yul\":1425:1427   */\n      0x20\n        /* \"#utility.yul\":1414:1423   */\n      dup3\n        /* \"#utility.yul\":1410:1428   */\n      add\n        /* \"#utility.yul\":1402:1428   */\n      swap1\n      pop\n        /* \"#utility.yul\":1438:1509   */\n      tag_339\n        /* \"#utility.yul\":1506:1507   */\n      0x00\n        /* \"#utility.yul\":1495:1504   */\n      dup4\n        /* \"#utility.yul\":1491:1508   */\n      add\n        /* \"#utility.yul\":1482:1488   */\n      dup5\n        /* \"#utility.yul\":1438:1509   */\n      tag_278\n      jump\t// in\n    tag_339:\n        /* \"#utility.yul\":1294:1516   */\n      swap3\n      swap2\n      pop\n      pop\n      jump\t// out\n        /* \"#utility.yul\":1522:1648   */\n    tag_279:\n        /* \"#utility.yul\":1559:1566   */\n      0x00\n        /* \"#utility.yul\":1599:1641   */\n      0xffffffffffffffffffffffffffffffffffffffff\n        /* \"#utility.yul\":1592:1597   */\n      dup3\n        /* \"#utility.yul\":1588:1642   */\n      and\n        /* \"#utility.yul\":1577:1642   */\n      swap1\n      pop\n        /* \"#utility.yul\":1522:1648   */\n      swap2\n      swap1\n      pop\n      jump\t// out\n        /* \"#utility.yul\":1654:1714   */\n    tag_280:\n        /* \"#utility.yul\":1682:1685   */\n      0x00\n        /* \"#utility.yul\":1703:1708   */\n      dup2\n        /* \"#utility.yul\":1696:1708   */\n      swap1\n      pop\n        /* \"#utility.yul\":1654:1714   */\n      swap2\n      swap1\n      pop\n      jump\t// out\n        /* \"#utility.yul\":1720:1862   */\n    tag_281:\n        /* \"#utility.yul\":1770:1779   */\n      0x00\n        /* \"#utility.yul\":1803:1856   */\n      tag_343\n        /* \"#utility.yul\":1821:1855   */\n      tag_344\n        /* \"#utility.yul\":1830:1854   */\n      tag_345\n        /* \"#utility.yul\":1848:1853   */\n      dup5\n        /* \"#utility.yul\":1830:1854   */\n      tag_279\n      jump\t// in\n    tag_345:\n        /* \"#utility.yul\":1821:1855   */\n      tag_280\n      jump\t// in\n    tag_344:\n        /* \"#utility.yul\":1803:1856   */\n      tag_279\n      jump\t// in\n    tag_343:\n        /* \"#utility.yul\":1790:1856   */\n      swap1\n      pop\n        /* \"#utility.yul\":1720:1862   */\n      swap2\n      swap1\n      pop\n      jump\t// out\n        /* \"#utility.yul\":1868:1994   */\n    tag_282:\n        /* \"#utility.yul\":1918:1927   */\n      0x00\n        /* \"#utility.yul\":1951:1988   */\n      tag_347\n        /* \"#utility.yul\":1982:1987   */\n      dup3\n        /* \"#utility.yul\":1951:1988   */\n      tag_281\n      jump\t// in\n    tag_347:\n        /* \"#utility.yul\":1938:1988   */\n      swap1\n      pop\n        /* \"#utility.yul\":1868:1994   */\n      swap2\n      swap1\n      pop\n      jump\t// out\n        /* \"#utility.yul\":2000:2146   */\n    tag_283:\n        /* \"#utility.yul\":2070:2079   */\n      0x00\n        /* \"#utility.yul\":2103:2140   */\n      tag_349\n        /* \"#utility.yul\":2134:2139   */\n      dup3\n        /* \"#utility.yul\":2103:2140   */\n      tag_282\n      jump\t// in\n    tag_349:\n        /* \"#utility.yul\":2090:2140   */\n      swap1\n      pop\n        /* \"#utility.yul\":2000:2146   */\n      swap2\n      swap1\n      pop\n      jump\t// out\n        /* \"#utility.yul\":2152:2323   */\n    tag_284:\n        /* \"#utility.yul\":2259:2316   */\n      tag_351\n        /* \"#utility.yul\":2310:2315   */\n      dup2\n        /* \"#utility.yul\":2259:2316   */\n      tag_283\n      jump\t// in\n    tag_351:\n        /* \"#utility.yul\":2254:2257   */\n      dup3\n        /* \"#utility.yul\":2247:2317   */\n      mstore\n        /* \"#utility.yul\":2152:2323   */\n      pop\n      pop\n      jump\t// out\n        /* \"#utility.yul\":2329:2591   */\n    tag_34:\n        /* \"#utility.yul\":2442:2446   */\n      0x00\n        /* \"#utility.yul\":2480:2482   */\n      0x20\n        /* \"#utility.yul\":2469:2478   */\n      dup3\n        /* \"#utility.yul\":2465:2483   */\n      add\n        /* \"#utility.yul\":2457:2483   */\n      swap1\n      pop\n        /* \"#utility.yul\":2493:2584   */\n      tag_353\n        /* \"#utility.yul\":2581:2582   */\n      0x00\n        /* \"#utility.yul\":2570:2579   */\n      dup4\n        /* \"#utility.yul\":2566:2583   */\n      add\n        /* \"#utility.yul\":2557:2563   */\n      dup5\n        /* \"#utility.yul\":2493:2584   */\n      tag_284\n      jump\t// in\n    tag_353:\n        /* \"#utility.yul\":2329:2591   */\n      swap3\n      swap2\n      pop\n      pop\n      jump\t// out\n        /* \"#utility.yul\":2597:2693   */\n    tag_285:\n        /* \"#utility.yul\":2634:2641   */\n      0x00\n        /* \"#utility.yul\":2663:2687   */\n      tag_355\n        /* \"#utility.yul\":2681:2686   */\n      dup3\n        /* \"#utility.yul\":2663:2687   */\n      tag_279\n      jump\t// in\n    tag_355:\n        /* \"#utility.yul\":2652:2687   */\n      swap1\n      pop\n        /* \"#utility.yul\":2597:2693   */\n      swap2\n      swap1\n      pop\n      jump\t// out\n        /* \"#utility.yul\":2699:2821   */\n    tag_286:\n        /* \"#utility.yul\":2772:2796   */\n      tag_357\n        /* \"#utility.yul\":2790:2795   */\n      dup2\n        /* \"#utility.yul\":2772:2796   */\n      tag_285\n      jump\t// in\n    tag_357:\n        /* \"#utility.yul\":2765:2770   */\n      dup2\n        /* \"#utility.yul\":2762:2797   */\n      eq\n        /* \"#utility.yul\":2752:2815   */\n      tag_358\n      jumpi\n        /* \"#utility.yul\":2811:2812   */\n      0x00\n        /* \"#utility.yul\":2808:2809   */\n      dup1\n        /* \"#utility.yul\":2801:2813   */\n      revert\n        /* \"#utility.yul\":2752:2815   */\n    tag_358:\n        /* \"#utility.yul\":2699:2821   */\n      pop\n      jump\t// out\n        /* \"#utility.yul\":2827:2966   */\n    tag_287:\n        /* \"#utility.yul\":2873:2878   */\n      0x00\n        /* \"#utility.yul\":2911:2917   */\n      dup2\n        /* \"#utility.yul\":2898:2918   */\n      calldataload\n        /* \"#utility.yul\":2889:2918   */\n      swap1\n      pop\n        /* \"#utility.yul\":2927:2960   */\n      tag_360\n        /* \"#utility.yul\":2954:2959   */\n      dup2\n        /* \"#utility.yul\":2927:2960   */\n      tag_286\n      jump\t// in\n    tag_360:\n        /* \"#utility.yul\":2827:2966   */\n      swap3\n      swap2\n      pop\n      pop\n      jump\t// out\n        /* \"#utility.yul\":2972:3301   */\n    tag_49:\n        /* \"#utility.yul\":3031:3037   */\n      0x00\n        /* \"#utility.yul\":3080:3082   */\n      0x20\n        /* \"#utility.yul\":3068:3077   */\n      dup3\n        /* \"#utility.yul\":3059:3066   */\n      dup5\n        /* \"#utility.yul\":3055:3078   */\n      sub\n        /* \"#utility.yul\":3051:3083   */\n      slt\n        /* \"#utility.yul\":3048:3167   */\n      iszero\n      tag_362\n      jumpi\n        /* \"#utility.yul\":3086:3165   */\n      tag_363\n      tag_273\n      jump\t// in\n    tag_363:\n        /* \"#utility.yul\":3048:3167   */\n    tag_362:\n        /* \"#utility.yul\":3206:3207   */\n      0x00\n        /* \"#utility.yul\":3231:3284   */\n      tag_364\n        /* \"#utility.yul\":3276:3283   */\n      dup5\n        /* \"#utility.yul\":3267:3273   */\n      dup3\n        /* \"#utility.yul\":3256:3265   */\n      dup6\n        /* \"#utility.yul\":3252:3274   */\n      add\n        /* \"#utility.yul\":3231:3284   */\n      tag_287\n      jump\t// in\n    tag_364:\n        /* \"#utility.yul\":3221:3284   */\n      swap2\n      pop\n        /* \"#utility.yul\":3177:3294   */\n      pop\n        /* \"#utility.yul\":2972:3301   */\n      swap3\n      swap2\n      pop\n      pop\n      jump\t// out\n        /* \"#utility.yul\":3307:3384   */\n    tag_288:\n        /* \"#utility.yul\":3344:3351   */\n      0x00\n        /* \"#utility.yul\":3373:3378   */\n      dup2\n        /* \"#utility.yul\":3362:3378   */\n      swap1\n      pop\n        /* \"#utility.yul\":3307:3384   */\n      swap2\n      swap1\n      pop\n      jump\t// out\n        /* \"#utility.yul\":3390:3508   */\n    tag_289:\n        /* \"#utility.yul\":3477:3501   */\n      tag_367\n        /* \"#utility.yul\":3495:3500   */\n      dup2\n        /* \"#utility.yul\":3477:3501   */\n      tag_288\n      jump\t// in\n    tag_367:\n        /* \"#utility.yul\":3472:3475   */\n      dup3\n        /* \"#utility.yul\":3465:3502   */\n      mstore\n        /* \"#utility.yul\":3390:3508   */\n      pop\n      pop\n      jump\t// out\n        /* \"#utility.yul\":3514:3736   */\n    tag_57:\n        /* \"#utility.yul\":3607:3611   */\n      0x00\n        /* \"#utility.yul\":3645:3647   */\n      0x20\n        /* \"#utility.yul\":3634:3643   */\n      dup3\n        /* \"#utility.yul\":3630:3648   */\n      add\n        /* \"#utility.yul\":3622:3648   */\n      swap1\n      pop\n        /* \"#utility.yul\":3658:3729   */\n      tag_369\n        /* \"#utility.yul\":3726:3727   */\n      0x00\n        /* \"#utility.yul\":3715:3724   */\n      dup4\n        /* \"#utility.yul\":3711:3728   */\n      add\n        /* \"#utility.yul\":3702:3708   */\n      dup5\n        /* \"#utility.yul\":3658:3729   */\n      tag_289\n      jump\t// in\n    tag_369:\n        /* \"#utility.yul\":3514:3736   */\n      swap3\n      swap2\n      pop\n      pop\n      jump\t// out\n        /* \"#utility.yul\":3742:4071   */\n    tag_61:\n        /* \"#utility.yul\":3801:3807   */\n      0x00\n        /* \"#utility.yul\":3850:3852   */\n      0x20\n        /* \"#utility.yul\":3838:3847   */\n      dup3\n        /* \"#utility.yul\":3829:3836   */\n      dup5\n        /* \"#utility.yul\":3825:3848   */\n      sub\n        /* \"#utility.yul\":3821:3853   */\n      slt\n        /* \"#utility.yul\":3818:3937   */\n      iszero\n      tag_371\n      jumpi\n        /* \"#utility.yul\":3856:3935   */\n      tag_372\n      tag_273\n      jump\t// in\n    tag_372:\n        /* \"#utility.yul\":3818:3937   */\n    tag_371:\n        /* \"#utility.yul\":3976:3977   */\n      0x00\n        /* \"#utility.yul\":4001:4054   */\n      tag_373\n        /* \"#utility.yul\":4046:4053   */\n      dup5\n        /* \"#utility.yul\":4037:4043   */\n      dup3\n        /* \"#utility.yul\":4026:4035   */\n      dup6\n        /* \"#utility.yul\":4022:4044   */\n      add\n        /* \"#utility.yul\":4001:4054   */\n      tag_277\n      jump\t// in\n    tag_373:\n        /* \"#utility.yul\":3991:4054   */\n      swap2\n      pop\n        /* \"#utility.yul\":3947:4064   */\n      pop\n        /* \"#utility.yul\":3742:4071   */\n      swap3\n      swap2\n      pop\n      pop\n      jump\t// out\n        /* \"#utility.yul\":4077:4195   */\n    tag_290:\n        /* \"#utility.yul\":4164:4188   */\n      tag_375\n        /* \"#utility.yul\":4182:4187   */\n      dup2\n        /* \"#utility.yul\":4164:4188   */\n      tag_285\n      jump\t// in\n    tag_375:\n        /* \"#utility.yul\":4159:4162   */\n      dup3\n        /* \"#utility.yul\":4152:4189   */\n      mstore\n        /* \"#utility.yul\":4077:4195   */\n      pop\n      pop\n      jump\t// out\n        /* \"#utility.yul\":4201:4423   */\n    tag_64:\n        /* \"#utility.yul\":4294:4298   */\n      0x00\n        /* \"#utility.yul\":4332:4334   */\n      0x20\n        /* \"#utility.yul\":4321:4330   */\n      dup3\n        /* \"#utility.yul\":4317:4335   */\n      add\n        /* \"#utility.yul\":4309:4335   */\n      swap1\n      pop\n        /* \"#utility.yul\":4345:4416   */\n      tag_377\n        /* \"#utility.yul\":4413:4414   */\n      0x00\n        /* \"#utility.yul\":4402:4411   */\n      dup4\n        /* \"#utility.yul\":4398:4415   */\n      add\n        /* \"#utility.yul\":4389:4395   */\n      dup5\n        /* \"#utility.yul\":4345:4416   */\n      tag_290\n      jump\t// in\n    tag_377:\n        /* \"#utility.yul\":4201:4423   */\n      swap3\n      swap2\n      pop\n      pop\n      jump\t// out\n        /* \"#utility.yul\":4429:4571   */\n    tag_291:\n        /* \"#utility.yul\":4495:4504   */\n      0x00\n        /* \"#utility.yul\":4528:4565   */\n      tag_379\n        /* \"#utility.yul\":4559:4564   */\n      dup3\n        /* \"#utility.yul\":4528:4565   */\n      tag_282\n      jump\t// in\n    tag_379:\n        /* \"#utility.yul\":4515:4565   */\n      swap1\n      pop\n        /* \"#utility.yul\":4429:4571   */\n      swap2\n      swap1\n      pop\n      jump\t// out\n        /* \"#utility.yul\":4577:4740   */\n    tag_292:\n        /* \"#utility.yul\":4680:4733   */\n      tag_381\n        /* \"#utility.yul\":4727:4732   */\n      dup2\n        /* \"#utility.yul\":4680:4733   */\n      tag_291\n      jump\t// in\n    tag_381:\n        /* \"#utility.yul\":4675:4678   */\n      dup3\n        /* \"#utility.yul\":4668:4734   */\n      mstore\n        /* \"#utility.yul\":4577:4740   */\n      pop\n      pop\n      jump\t// out\n        /* \"#utility.yul\":4746:5000   */\n    tag_74:\n        /* \"#utility.yul\":4855:4859   */\n      0x00\n        /* \"#utility.yul\":4893:4895   */\n      0x20\n        /* \"#utility.yul\":4882:4891   */\n      dup3\n        /* \"#utility.yul\":4878:4896   */\n      add\n        /* \"#utility.yul\":4870:4896   */\n      swap1\n      pop\n        /* \"#utility.yul\":4906:4993   */\n      tag_383\n        /* \"#utility.yul\":4990:4991   */\n      0x00\n        /* \"#utility.yul\":4979:4988   */\n      dup4\n        /* \"#utility.yul\":4975:4992   */\n      add\n        /* \"#utility.yul\":4966:4972   */\n      dup5\n        /* \"#utility.yul\":4906:4993   */\n      tag_292\n      jump\t// in\n    tag_383:\n        /* \"#utility.yul\":4746:5000   */\n      swap3\n      swap2\n      pop\n      pop\n      jump\t// out\n        /* \"#utility.yul\":5006:5128   */\n    tag_293:\n        /* \"#utility.yul\":5079:5103   */\n      tag_385\n        /* \"#utility.yul\":5097:5102   */\n      dup2\n        /* \"#utility.yul\":5079:5103   */\n      tag_288\n      jump\t// in\n    tag_385:\n        /* \"#utility.yul\":5072:5077   */\n      dup2\n        /* \"#utility.yul\":5069:5104   */\n      eq\n        /* \"#utility.yul\":5059:5122   */\n      tag_386\n      jumpi\n        /* \"#utility.yul\":5118:5119   */\n      0x00\n        /* \"#utility.yul\":5115:5116   */\n      dup1\n        /* \"#utility.yul\":5108:5120   */\n      revert\n        /* \"#utility.yul\":5059:5122   */\n    tag_386:\n        /* \"#utility.yul\":5006:5128   */\n      pop\n      jump\t// out\n        /* \"#utility.yul\":5134:5273   */\n    tag_294:\n        /* \"#utility.yul\":5180:5185   */\n      0x00\n        /* \"#utility.yul\":5218:5224   */\n      dup2\n        /* \"#utility.yul\":5205:5225   */\n      calldataload\n        /* \"#utility.yul\":5196:5225   */\n      swap1\n      pop\n        /* \"#utility.yul\":5234:5267   */\n      tag_388\n        /* \"#utility.yul\":5261:5266   */\n      dup2\n        /* \"#utility.yul\":5234:5267   */\n      tag_293\n      jump\t// in\n    tag_388:\n        /* \"#utility.yul\":5134:5273   */\n      swap3\n      swap2\n      pop\n      pop\n      jump\t// out\n        /* \"#utility.yul\":5279:5608   */\n    tag_88:\n        /* \"#utility.yul\":5338:5344   */\n      0x00\n        /* \"#utility.yul\":5387:5389   */\n      0x20\n        /* \"#utility.yul\":5375:5384   */\n      dup3\n        /* \"#utility.yul\":5366:5373   */\n      dup5\n        /* \"#utility.yul\":5362:5385   */\n      sub\n        /* \"#utility.yul\":5358:5390   */\n      slt\n        /* \"#utility.yul\":5355:5474   */\n      iszero\n      tag_390\n      jumpi\n        /* \"#utility.yul\":5393:5472   */\n      tag_391\n      tag_273\n      jump\t// in\n    tag_391:\n        /* \"#utility.yul\":5355:5474   */\n    tag_390:\n        /* \"#utility.yul\":5513:5514   */\n      0x00\n        /* \"#utility.yul\":5538:5591   */\n      tag_392\n        /* \"#utility.yul\":5583:5590   */\n      dup5\n        /* \"#utility.yul\":5574:5580   */\n      dup3\n        /* \"#utility.yul\":5563:5572   */\n      dup6\n        /* \"#utility.yul\":5559:5581   */\n      add\n        /* \"#utility.yul\":5538:5591   */\n      tag_294\n      jump\t// in\n    tag_392:\n        /* \"#utility.yul\":5528:5591   */\n      swap2\n      pop\n        /* \"#utility.yul\":5484:5601   */\n      pop\n        /* \"#utility.yul\":5279:5608   */\n      swap3\n      swap2\n      pop\n      pop\n      jump\t// out\n        /* \"#utility.yul\":5614:5794   */\n    tag_96:\n        /* \"#utility.yul\":5662:5739   */\n      0x4e487b7100000000000000000000000000000000000000000000000000000000\n        /* \"#utility.yul\":5659:5660   */\n      0x00\n        /* \"#utility.yul\":5652:5740   */\n      mstore\n        /* \"#utility.yul\":5759:5763   */\n      0x32\n        /* \"#utility.yul\":5756:5757   */\n      0x04\n        /* \"#utility.yul\":5749:5764   */\n      mstore\n        /* \"#utility.yul\":5783:5787   */\n      0x24\n        /* \"#utility.yul\":5780:5781   */\n      0x00\n        /* \"#utility.yul\":5773:5788   */\n      revert\n        /* \"#utility.yul\":5800:5969   */\n    tag_295:\n        /* \"#utility.yul\":5884:5895   */\n      0x00\n        /* \"#utility.yul\":5918:5924   */\n      dup3\n        /* \"#utility.yul\":5913:5916   */\n      dup3\n        /* \"#utility.yul\":5906:5925   */\n      mstore\n        /* \"#utility.yul\":5958:5962   */\n      0x20\n        /* \"#utility.yul\":5953:5956   */\n      dup3\n        /* \"#utility.yul\":5949:5963   */\n      add\n        /* \"#utility.yul\":5934:5963   */\n      swap1\n      pop\n        /* \"#utility.yul\":5800:5969   */\n      swap3\n      swap2\n      pop\n      pop\n      jump\t// out\n        /* \"#utility.yul\":5975:6155   */\n    tag_296:\n        /* \"#utility.yul\":6115:6147   */\n      0x596f7520617265206e6f7420617574686f72697a656420746f20706c61790000\n        /* \"#utility.yul\":6111:6112   */\n      0x00\n        /* \"#utility.yul\":6103:6109   */\n      dup3\n        /* \"#utility.yul\":6099:6113   */\n      add\n        /* \"#utility.yul\":6092:6148   */\n      mstore\n        /* \"#utility.yul\":5975:6155   */\n      pop\n      jump\t// out\n        /* \"#utility.yul\":6161:6527   */\n    tag_297:\n        /* \"#utility.yul\":6303:6306   */\n      0x00\n        /* \"#utility.yul\":6324:6391   */\n      tag_397\n        /* \"#utility.yul\":6388:6390   */\n      0x1e\n        /* \"#utility.yul\":6383:6386   */\n      dup4\n        /* \"#utility.yul\":6324:6391   */\n      tag_295\n      jump\t// in\n    tag_397:\n        /* \"#utility.yul\":6317:6391   */\n      swap2\n      pop\n        /* \"#utility.yul\":6400:6493   */\n      tag_398\n        /* \"#utility.yul\":6489:6492   */\n      dup3\n        /* \"#utility.yul\":6400:6493   */\n      tag_296\n      jump\t// in\n    tag_398:\n        /* \"#utility.yul\":6518:6520   */\n      0x20\n        /* \"#utility.yul\":6513:6516   */\n      dup3\n        /* \"#utility.yul\":6509:6521   */\n      add\n        /* \"#utility.yul\":6502:6521   */\n      swap1\n      pop\n        /* \"#utility.yul\":6161:6527   */\n      swap2\n      swap1\n      pop\n      jump\t// out\n        /* \"#utility.yul\":6533:6952   */\n    tag_101:\n        /* \"#utility.yul\":6699:6703   */\n      0x00\n        /* \"#utility.yul\":6737:6739   */\n      0x20\n        /* \"#utility.yul\":6726:6735   */\n      dup3\n        /* \"#utility.yul\":6722:6740   */\n      add\n        /* \"#utility.yul\":6714:6740   */\n      swap1\n      pop\n        /* \"#utility.yul\":6786:6795   */\n      dup2\n        /* \"#utility.yul\":6780:6784   */\n      dup2\n        /* \"#utility.yul\":6776:6796   */\n      sub\n        /* \"#utility.yul\":6772:6773   */\n      0x00\n        /* \"#utility.yul\":6761:6770   */\n      dup4\n        /* \"#utility.yul\":6757:6774   */\n      add\n        /* \"#utility.yul\":6750:6797   */\n      mstore\n        /* \"#utility.yul\":6814:6945   */\n      tag_400\n        /* \"#utility.yul\":6940:6944   */\n      dup2\n        /* \"#utility.yul\":6814:6945   */\n      tag_297\n      jump\t// in\n    tag_400:\n        /* \"#utility.yul\":6806:6945   */\n      swap1\n      pop\n        /* \"#utility.yul\":6533:6952   */\n      swap2\n      swap1\n      pop\n      jump\t// out\n        /* \"#utility.yul\":6958:7132   */\n    tag_298:\n        /* \"#utility.yul\":7098:7124   */\n      0x47616d6520686173206e6f742073746172746564207965740000000000000000\n        /* \"#utility.yul\":7094:7095   */\n      0x00\n        /* \"#utility.yul\":7086:7092   */\n      dup3\n        /* \"#utility.yul\":7082:7096   */\n      add\n        /* \"#utility.yul\":7075:7125   */\n      mstore\n        /* \"#utility.yul\":6958:7132   */\n      pop\n      jump\t// out\n        /* \"#utility.yul\":7138:7504   */\n    tag_299:\n        /* \"#utility.yul\":7280:7283   */\n      0x00\n        /* \"#utility.yul\":7301:7368   */\n      tag_403\n        /* \"#utility.yul\":7365:7367   */\n      0x18\n        /* \"#utility.yul\":7360:7363   */\n      dup4\n        /* \"#utility.yul\":7301:7368   */\n      tag_295\n      jump\t// in\n    tag_403:\n        /* \"#utility.yul\":7294:7368   */\n      swap2\n      pop\n        /* \"#utility.yul\":7377:7470   */\n      tag_404\n        /* \"#utility.yul\":7466:7469   */\n      dup3\n        /* \"#utility.yul\":7377:7470   */\n      tag_298\n      jump\t// in\n    tag_404:\n        /* \"#utility.yul\":7495:7497   */\n      0x20\n        /* \"#utility.yul\":7490:7493   */\n      dup3\n        /* \"#utility.yul\":7486:7498   */\n      add\n        /* \"#utility.yul\":7479:7498   */\n      swap1\n      pop\n        /* \"#utility.yul\":7138:7504   */\n      swap2\n      swap1\n      pop\n      jump\t// out\n        /* \"#utility.yul\":7510:7929   */\n    tag_105:\n        /* \"#utility.yul\":7676:7680   */\n      0x00\n        /* \"#utility.yul\":7714:7716   */\n      0x20\n        /* \"#utility.yul\":7703:7712   */\n      dup3\n        /* \"#utility.yul\":7699:7717   */\n      add\n        /* \"#utility.yul\":7691:7717   */\n      swap1\n      pop\n        /* \"#utility.yul\":7763:7772   */\n      dup2\n        /* \"#utility.yul\":7757:7761   */\n      dup2\n        /* \"#utility.yul\":7753:7773   */\n      sub\n        /* \"#utility.yul\":7749:7750   */\n      0x00\n        /* \"#utility.yul\":7738:7747   */\n      dup4\n        /* \"#utility.yul\":7734:7751   */\n      add\n        /* \"#utility.yul\":7727:7774   */\n      mstore\n        /* \"#utility.yul\":7791:7922   */\n      tag_406\n        /* \"#utility.yul\":7917:7921   */\n      dup2\n        /* \"#utility.yul\":7791:7922   */\n      tag_299\n      jump\t// in\n    tag_406:\n        /* \"#utility.yul\":7783:7922   */\n      swap1\n      pop\n        /* \"#utility.yul\":7510:7929   */\n      swap2\n      swap1\n      pop\n      jump\t// out\n        /* \"#utility.yul\":7935:8104   */\n    tag_300:\n        /* \"#utility.yul\":8075:8096   */\n      0x4e6f2063686f69636520636f6d6d697474656400000000000000000000000000\n        /* \"#utility.yul\":8071:8072   */\n      0x00\n        /* \"#utility.yul\":8063:8069   */\n      dup3\n        /* \"#utility.yul\":8059:8073   */\n      add\n        /* \"#utility.yul\":8052:8097   */\n      mstore\n        /* \"#utility.yul\":7935:8104   */\n      pop\n      jump\t// out\n        /* \"#utility.yul\":8110:8476   */\n    tag_301:\n        /* \"#utility.yul\":8252:8255   */\n      0x00\n        /* \"#utility.yul\":8273:8340   */\n      tag_409\n        /* \"#utility.yul\":8337:8339   */\n      0x13\n        /* \"#utility.yul\":8332:8335   */\n      dup4\n        /* \"#utility.yul\":8273:8340   */\n      tag_295\n      jump\t// in\n    tag_409:\n        /* \"#utility.yul\":8266:8340   */\n      swap2\n      pop\n        /* \"#utility.yul\":8349:8442   */\n      tag_410\n        /* \"#utility.yul\":8438:8441   */\n      dup3\n        /* \"#utility.yul\":8349:8442   */\n      tag_300\n      jump\t// in\n    tag_410:\n        /* \"#utility.yul\":8467:8469   */\n      0x20\n        /* \"#utility.yul\":8462:8465   */\n      dup3\n        /* \"#utility.yul\":8458:8470   */\n      add\n        /* \"#utility.yul\":8451:8470   */\n      swap1\n      pop\n        /* \"#utility.yul\":8110:8476   */\n      swap2\n      swap1\n      pop\n      jump\t// out\n        /* \"#utility.yul\":8482:8901   */\n    tag_108:\n        /* \"#utility.yul\":8648:8652   */\n      0x00\n        /* \"#utility.yul\":8686:8688   */\n      0x20\n        /* \"#utility.yul\":8675:8684   */\n      dup3\n        /* \"#utility.yul\":8671:8689   */\n      add\n        /* \"#utility.yul\":8663:8689   */\n      swap1\n      pop\n        /* \"#utility.yul\":8735:8744   */\n      dup2\n        /* \"#utility.yul\":8729:8733   */\n      dup2\n        /* \"#utility.yul\":8725:8745   */\n      sub\n        /* \"#utility.yul\":8721:8722   */\n      0x00\n        /* \"#utility.yul\":8710:8719   */\n      dup4\n        /* \"#utility.yul\":8706:8723   */\n      add\n        /* \"#utility.yul\":8699:8746   */\n      mstore\n        /* \"#utility.yul\":8763:8894   */\n      tag_412\n        /* \"#utility.yul\":8889:8893   */\n      dup2\n        /* \"#utility.yul\":8763:8894   */\n      tag_301\n      jump\t// in\n    tag_412:\n        /* \"#utility.yul\":8755:8894   */\n      swap1\n      pop\n        /* \"#utility.yul\":8482:8901   */\n      swap2\n      swap1\n      pop\n      jump\t// out\n        /* \"#utility.yul\":8907:9071   */\n    tag_302:\n        /* \"#utility.yul\":9047:9063   */\n      0x496e76616c69642063686f696365000000000000000000000000000000000000\n        /* \"#utility.yul\":9043:9044   */\n      0x00\n        /* \"#utility.yul\":9035:9041   */\n      dup3\n        /* \"#utility.yul\":9031:9045   */\n      add\n        /* \"#utility.yul\":9024:9064   */\n      mstore\n        /* \"#utility.yul\":8907:9071   */\n      pop\n      jump\t// out\n        /* \"#utility.yul\":9077:9443   */\n    tag_303:\n        /* \"#utility.yul\":9219:9222   */\n      0x00\n        /* \"#utility.yul\":9240:9307   */\n      tag_415\n        /* \"#utility.yul\":9304:9306   */\n      0x0e\n        /* \"#utility.yul\":9299:9302   */\n      dup4\n        /* \"#utility.yul\":9240:9307   */\n      tag_295\n      jump\t// in\n    tag_415:\n        /* \"#utility.yul\":9233:9307   */\n      swap2\n      pop\n        /* \"#utility.yul\":9316:9409   */\n      tag_416\n        /* \"#utility.yul\":9405:9408   */\n      dup3\n        /* \"#utility.yul\":9316:9409   */\n      tag_302\n      jump\t// in\n    tag_416:\n        /* \"#utility.yul\":9434:9436   */\n      0x20\n        /* \"#utility.yul\":9429:9432   */\n      dup3\n        /* \"#utility.yul\":9425:9437   */\n      add\n        /* \"#utility.yul\":9418:9437   */\n      swap1\n      pop\n        /* \"#utility.yul\":9077:9443   */\n      swap2\n      swap1\n      pop\n      jump\t// out\n        /* \"#utility.yul\":9449:9868   */\n    tag_112:\n        /* \"#utility.yul\":9615:9619   */\n      0x00\n        /* \"#utility.yul\":9653:9655   */\n      0x20\n        /* \"#utility.yul\":9642:9651   */\n      dup3\n        /* \"#utility.yul\":9638:9656   */\n      add\n        /* \"#utility.yul\":9630:9656   */\n      swap1\n      pop\n        /* \"#utility.yul\":9702:9711   */\n      dup2\n        /* \"#utility.yul\":9696:9700   */\n      dup2\n        /* \"#utility.yul\":9692:9712   */\n      sub\n        /* \"#utility.yul\":9688:9689   */\n      0x00\n        /* \"#utility.yul\":9677:9686   */\n      dup4\n        /* \"#utility.yul\":9673:9690   */\n      add\n        /* \"#utility.yul\":9666:9713   */\n      mstore\n        /* \"#utility.yul\":9730:9861   */\n      tag_418\n        /* \"#utility.yul\":9856:9860   */\n      dup2\n        /* \"#utility.yul\":9730:9861   */\n      tag_303\n      jump\t// in\n    tag_418:\n        /* \"#utility.yul\":9722:9861   */\n      swap1\n      pop\n        /* \"#utility.yul\":9449:9868   */\n      swap2\n      swap1\n      pop\n      jump\t// out\n        /* \"#utility.yul\":9874:9953   */\n    tag_304:\n        /* \"#utility.yul\":9913:9920   */\n      0x00\n        /* \"#utility.yul\":9942:9947   */\n      dup2\n        /* \"#utility.yul\":9931:9947   */\n      swap1\n      pop\n        /* \"#utility.yul\":9874:9953   */\n      swap2\n      swap1\n      pop\n      jump\t// out\n        /* \"#utility.yul\":9959:10116   */\n    tag_305:\n        /* \"#utility.yul\":10064:10109   */\n      tag_421\n        /* \"#utility.yul\":10084:10108   */\n      tag_422\n        /* \"#utility.yul\":10102:10107   */\n      dup3\n        /* \"#utility.yul\":10084:10108   */\n      tag_275\n      jump\t// in\n    tag_422:\n        /* \"#utility.yul\":10064:10109   */\n      tag_304\n      jump\t// in\n    tag_421:\n        /* \"#utility.yul\":10059:10062   */\n      dup3\n        /* \"#utility.yul\":10052:10110   */\n      mstore\n        /* \"#utility.yul\":9959:10116   */\n      pop\n      pop\n      jump\t// out\n        /* \"#utility.yul\":10122:10519   */\n    tag_114:\n        /* \"#utility.yul\":10262:10265   */\n      0x00\n        /* \"#utility.yul\":10277:10352   */\n      tag_424\n        /* \"#utility.yul\":10348:10351   */\n      dup3\n        /* \"#utility.yul\":10339:10345   */\n      dup6\n        /* \"#utility.yul\":10277:10352   */\n      tag_305\n      jump\t// in\n    tag_424:\n        /* \"#utility.yul\":10377:10379   */\n      0x20\n        /* \"#utility.yul\":10372:10375   */\n      dup3\n        /* \"#utility.yul\":10368:10380   */\n      add\n        /* \"#utility.yul\":10361:10380   */\n      swap2\n      pop\n        /* \"#utility.yul\":10390:10465   */\n      tag_425\n        /* \"#utility.yul\":10461:10464   */\n      dup3\n        /* \"#utility.yul\":10452:10458   */\n      dup5\n        /* \"#utility.yul\":10390:10465   */\n      tag_305\n      jump\t// in\n    tag_425:\n        /* \"#utility.yul\":10490:10492   */\n      0x20\n        /* \"#utility.yul\":10485:10488   */\n      dup3\n        /* \"#utility.yul\":10481:10493   */\n      add\n        /* \"#utility.yul\":10474:10493   */\n      swap2\n      pop\n        /* \"#utility.yul\":10510:10513   */\n      dup2\n        /* \"#utility.yul\":10503:10513   */\n      swap1\n      pop\n        /* \"#utility.yul\":10122:10519   */\n      swap4\n      swap3\n      pop\n      pop\n      pop\n      jump\t// out\n        /* \"#utility.yul\":10525:10668   */\n    tag_306:\n        /* \"#utility.yul\":10582:10587   */\n      0x00\n        /* \"#utility.yul\":10613:10619   */\n      dup2\n        /* \"#utility.yul\":10607:10620   */\n      mload\n        /* \"#utility.yul\":10598:10620   */\n      swap1\n      pop\n        /* \"#utility.yul\":10629:10662   */\n      tag_427\n        /* \"#utility.yul\":10656:10661   */\n      dup2\n        /* \"#utility.yul\":10629:10662   */\n      tag_293\n      jump\t// in\n    tag_427:\n        /* \"#utility.yul\":10525:10668   */\n      swap3\n      swap2\n      pop\n      pop\n      jump\t// out\n        /* \"#utility.yul\":10674:11025   */\n    tag_119:\n        /* \"#utility.yul\":10744:10750   */\n      0x00\n        /* \"#utility.yul\":10793:10795   */\n      0x20\n        /* \"#utility.yul\":10781:10790   */\n      dup3\n        /* \"#utility.yul\":10772:10779   */\n      dup5\n        /* \"#utility.yul\":10768:10791   */\n      sub\n        /* \"#utility.yul\":10764:10796   */\n      slt\n        /* \"#utility.yul\":10761:10880   */\n      iszero\n      tag_429\n      jumpi\n        /* \"#utility.yul\":10799:10878   */\n      tag_430\n      tag_273\n      jump\t// in\n    tag_430:\n        /* \"#utility.yul\":10761:10880   */\n    tag_429:\n        /* \"#utility.yul\":10919:10920   */\n      0x00\n        /* \"#utility.yul\":10944:11008   */\n      tag_431\n        /* \"#utility.yul\":11000:11007   */\n      dup5\n        /* \"#utility.yul\":10991:10997   */\n      dup3\n        /* \"#utility.yul\":10980:10989   */\n      dup6\n        /* \"#utility.yul\":10976:10998   */\n      add\n        /* \"#utility.yul\":10944:11008   */\n      tag_306\n      jump\t// in\n    tag_431:\n        /* \"#utility.yul\":10934:11008   */\n      swap2\n      pop\n        /* \"#utility.yul\":10890:11018   */\n      pop\n        /* \"#utility.yul\":10674:11025   */\n      swap3\n      swap2\n      pop\n      pop\n      jump\t// out\n        /* \"#utility.yul\":11031:11213   */\n    tag_307:\n        /* \"#utility.yul\":11171:11205   */\n      0x52657665616c20646f6573206e6f74206d6174636820636f6d6d69746d656e74\n        /* \"#utility.yul\":11167:11168   */\n      0x00\n        /* \"#utility.yul\":11159:11165   */\n      dup3\n        /* \"#utility.yul\":11155:11169   */\n      add\n        /* \"#utility.yul\":11148:11206   */\n      mstore\n        /* \"#utility.yul\":11031:11213   */\n      pop\n      jump\t// out\n        /* \"#utility.yul\":11219:11585   */\n    tag_308:\n        /* \"#utility.yul\":11361:11364   */\n      0x00\n        /* \"#utility.yul\":11382:11449   */\n      tag_434\n        /* \"#utility.yul\":11446:11448   */\n      0x20\n        /* \"#utility.yul\":11441:11444   */\n      dup4\n        /* \"#utility.yul\":11382:11449   */\n      tag_295\n      jump\t// in\n    tag_434:\n        /* \"#utility.yul\":11375:11449   */\n      swap2\n      pop\n        /* \"#utility.yul\":11458:11551   */\n      tag_435\n        /* \"#utility.yul\":11547:11550   */\n      dup3\n        /* \"#utility.yul\":11458:11551   */\n      tag_307\n      jump\t// in\n    tag_435:\n        /* \"#utility.yul\":11576:11578   */\n      0x20\n        /* \"#utility.yul\":11571:11574   */\n      dup3\n        /* \"#utility.yul\":11567:11579   */\n      add\n        /* \"#utility.yul\":11560:11579   */\n      swap1\n      pop\n        /* \"#utility.yul\":11219:11585   */\n      swap2\n      swap1\n      pop\n      jump\t// out\n        /* \"#utility.yul\":11591:12010   */\n    tag_122:\n        /* \"#utility.yul\":11757:11761   */\n      0x00\n        /* \"#utility.yul\":11795:11797   */\n      0x20\n        /* \"#utility.yul\":11784:11793   */\n      dup3\n        /* \"#utility.yul\":11780:11798   */\n      add\n        /* \"#utility.yul\":11772:11798   */\n      swap1\n      pop\n        /* \"#utility.yul\":11844:11853   */\n      dup2\n        /* \"#utility.yul\":11838:11842   */\n      dup2\n        /* \"#utility.yul\":11834:11854   */\n      sub\n        /* \"#utility.yul\":11830:11831   */\n      0x00\n        /* \"#utility.yul\":11819:11828   */\n      dup4\n        /* \"#utility.yul\":11815:11832   */\n      add\n        /* \"#utility.yul\":11808:11855   */\n      mstore\n        /* \"#utility.yul\":11872:12003   */\n      tag_437\n        /* \"#utility.yul\":11998:12002   */\n      dup2\n        /* \"#utility.yul\":11872:12003   */\n      tag_308\n      jump\t// in\n    tag_437:\n        /* \"#utility.yul\":11864:12003   */\n      swap1\n      pop\n        /* \"#utility.yul\":11591:12010   */\n      swap2\n      swap1\n      pop\n      jump\t// out\n        /* \"#utility.yul\":12016:12196   */\n    tag_309:\n        /* \"#utility.yul\":12064:12141   */\n      0x4e487b7100000000000000000000000000000000000000000000000000000000\n        /* \"#utility.yul\":12061:12062   */\n      0x00\n        /* \"#utility.yul\":12054:12142   */\n      mstore\n        /* \"#utility.yul\":12161:12165   */\n      0x11\n        /* \"#utility.yul\":12158:12159   */\n      0x04\n        /* \"#utility.yul\":12151:12166   */\n      mstore\n        /* \"#utility.yul\":12185:12189   */\n      0x24\n        /* \"#utility.yul\":12182:12183   */\n      0x00\n        /* \"#utility.yul\":12175:12190   */\n      revert\n        /* \"#utility.yul\":12202:12435   */\n    tag_124:\n        /* \"#utility.yul\":12241:12244   */\n      0x00\n        /* \"#utility.yul\":12264:12288   */\n      tag_440\n        /* \"#utility.yul\":12282:12287   */\n      dup3\n        /* \"#utility.yul\":12264:12288   */\n      tag_275\n      jump\t// in\n    tag_440:\n        /* \"#utility.yul\":12255:12288   */\n      swap2\n      pop\n        /* \"#utility.yul\":12310:12376   */\n      0xffffffffffffffffffffffffffffffffffffffffffffffffffffffffffffffff\n        /* \"#utility.yul\":12303:12308   */\n      dup3\n        /* \"#utility.yul\":12300:12377   */\n      sub\n        /* \"#utility.yul\":12297:12400   */\n      tag_441\n      jumpi\n        /* \"#utility.yul\":12380:12398   */\n      tag_442\n      tag_309\n      jump\t// in\n    tag_442:\n        /* \"#utility.yul\":12297:12400   */\n    tag_441:\n        /* \"#utility.yul\":12427:12428   */\n      0x01\n        /* \"#utility.yul\":12420:12425   */\n      dup3\n        /* \"#utility.yul\":12416:12429   */\n      add\n        /* \"#utility.yul\":12409:12429   */\n      swap1\n      pop\n        /* \"#utility.yul\":12202:12435   */\n      swap2\n      swap1\n      pop\n      jump\t// out\n        /* \"#utility.yul\":12441:12632   */\n    tag_130:\n        /* \"#utility.yul\":12481:12484   */\n      0x00\n        /* \"#utility.yul\":12500:12520   */\n      tag_444\n        /* \"#utility.yul\":12518:12519   */\n      dup3\n        /* \"#utility.yul\":12500:12520   */\n      tag_275\n      jump\t// in\n    tag_444:\n        /* \"#utility.yul\":12495:12520   */\n      swap2\n      pop\n        /* \"#utility.yul\":12534:12554   */\n      tag_445\n        /* \"#utility.yul\":12552:12553   */\n      dup4\n        /* \"#utility.yul\":12534:12554   */\n      tag_275\n      jump\t// in\n    tag_445:\n        /* \"#utility.yul\":12529:12554   */\n      swap3\n      pop\n        /* \"#utility.yul\":12577:12578   */\n      dup3\n        /* \"#utility.yul\":12574:12575   */\n      dup3\n        /* \"#utility.yul\":12570:12579   */\n      add\n        /* \"#utility.yul\":12563:12579   */\n      swap1\n      pop\n        /* \"#utility.yul\":12598:12601   */\n      dup1\n        /* \"#utility.yul\":12595:12596   */\n      dup3\n        /* \"#utility.yul\":12592:12602   */\n      gt\n        /* \"#utility.yul\":12589:12625   */\n      iszero\n      tag_446\n      jumpi\n        /* \"#utility.yul\":12605:12623   */\n      tag_447\n      tag_309\n      jump\t// in\n    tag_447:\n        /* \"#utility.yul\":12589:12625   */\n    tag_446:\n        /* \"#utility.yul\":12441:12632   */\n      swap3\n      swap2\n      pop\n      pop\n      jump\t// out\n        /* \"#utility.yul\":12638:12814   */\n    tag_310:\n        /* \"#utility.yul\":12778:12806   */\n      0x47616d6520686173206e6f742074696d6564206f757420796574000000000000\n        /* \"#utility.yul\":12774:12775   */\n      0x00\n        /* \"#utility.yul\":12766:12772   */\n      dup3\n        /* \"#utility.yul\":12762:12776   */\n      add\n        /* \"#utility.yul\":12755:12807   */\n      mstore\n        /* \"#utility.yul\":12638:12814   */\n      pop\n      jump\t// out\n        /* \"#utility.yul\":12820:13186   */\n    tag_311:\n        /* \"#utility.yul\":12962:12965   */\n      0x00\n        /* \"#utility.yul\":12983:13050   */\n      tag_450\n        /* \"#utility.yul\":13047:13049   */\n      0x1a\n        /* \"#utility.yul\":13042:13045   */\n      dup4\n        /* \"#utility.yul\":12983:13050   */\n      tag_295\n      jump\t// in\n    tag_450:\n        /* \"#utility.yul\":12976:13050   */\n      swap2\n      pop\n        /* \"#utility.yul\":13059:13152   */\n      tag_451\n        /* \"#utility.yul\":13148:13151   */\n      dup3\n        /* \"#utility.yul\":13059:13152   */\n      tag_310\n      jump\t// in\n    tag_451:\n        /* \"#utility.yul\":13177:13179   */\n      0x20\n        /* \"#utility.yul\":13172:13175   */\n      dup3\n        /* \"#utility.yul\":13168:13180   */\n      add\n        /* \"#utility.yul\":13161:13180   */\n      swap1\n      pop\n        /* \"#utility.yul\":12820:13186   */\n      swap2\n      swap1\n      pop\n      jump\t// out\n        /* \"#utility.yul\":13192:13611   */\n    tag_133:\n        /* \"#utility.yul\":13358:13362   */\n      0x00\n        /* \"#utility.yul\":13396:13398   */\n      0x20\n        /* \"#utility.yul\":13385:13394   */\n      dup3\n        /* \"#utility.yul\":13381:13399   */\n      add\n        /* \"#utility.yul\":13373:13399   */\n      swap1\n      pop\n        /* \"#utility.yul\":13445:13454   */\n      dup2\n        /* \"#utility.yul\":13439:13443   */\n      dup2\n        /* \"#utility.yul\":13435:13455   */\n      sub\n        /* \"#utility.yul\":13431:13432   */\n      0x00\n        /* \"#utility.yul\":13420:13429   */\n      dup4\n        /* \"#utility.yul\":13416:13433   */\n      add\n        /* \"#utility.yul\":13409:13456   */\n      mstore\n        /* \"#utility.yul\":13473:13604   */\n      tag_453\n        /* \"#utility.yul\":13599:13603   */\n      dup2\n        /* \"#utility.yul\":13473:13604   */\n      tag_311\n      jump\t// in\n    tag_453:\n        /* \"#utility.yul\":13465:13604   */\n      swap1\n      pop\n        /* \"#utility.yul\":13192:13611   */\n      swap2\n      swap1\n      pop\n      jump\t// out\n        /* \"#utility.yul\":13617:13797   */\n    tag_312:\n        /* \"#utility.yul\":13665:13742   */\n      0x4e487b7100000000000000000000000000000000000000000000000000000000\n        /* \"#utility.yul\":13662:13663   */\n      0x00\n        /* \"#utility.yul\":13655:13743   */\n      mstore\n        /* \"#utility.yul\":13762:13766   */\n      0x12\n        /* \"#utility.yul\":13759:13760   */\n      0x04\n        /* \"#utility.yul\":13752:13767   */\n      mstore\n        /* \"#utility.yul\":13786:13790   */\n      0x24\n        /* \"#utility.yul\":13783:13784   */\n      0x00\n        /* \"#utility.yul\":13776:13791   */\n      revert\n        /* \"#utility.yul\":13803:13988   */\n    tag_146:\n        /* \"#utility.yul\":13843:13844   */\n      0x00\n        /* \"#utility.yul\":13860:13880   */\n      tag_456\n        /* \"#utility.yul\":13878:13879   */\n      dup3\n        /* \"#utility.yul\":13860:13880   */\n      tag_275\n      jump\t// in\n    tag_456:\n        /* \"#utility.yul\":13855:13880   */\n      swap2\n      pop\n        /* \"#utility.yul\":13894:13914   */\n      tag_457\n        /* \"#utility.yul\":13912:13913   */\n      dup4\n        /* \"#utility.yul\":13894:13914   */\n      tag_275\n      jump\t// in\n    tag_457:\n        /* \"#utility.yul\":13889:13914   */\n      swap3\n      pop\n        /* \"#utility.yul\":13933:13934   */\n      dup3\n        /* \"#utility.yul\":13923:13958   */\n      tag_458\n      jumpi\n        /* \"#utility.yul\":13938:13956   */\n      tag_459\n      tag_312\n      jump\t// in\n    tag_459:\n        /* \"#utility.yul\":13923:13958   */\n    tag_458:\n        /* \"#utility.yul\":13980:13981   */\n      dup3\n        /* \"#utility.yul\":13977:13978   */\n      dup3\n        /* \"#utility.yul\":13973:13982   */\n      div\n        /* \"#utility.yul\":13968:13982   */\n      swap1\n      pop\n        /* \"#utility.yul\":13803:13988   */\n      swap3\n      swap2\n      pop\n      pop\n      jump\t// out\n        /* \"#utility.yul\":13994:14164   */\n    tag_313:\n        /* \"#utility.yul\":14134:14156   */\n      0x47616d6520697320616c72656164792066756c6c000000000000000000000000\n        /* \"#utility.yul\":14130:14131   */\n      0x00\n        /* \"#utility.yul\":14122:14128   */\n      dup3\n        /* \"#utility.yul\":14118:14132   */\n      add\n        /* \"#utility.yul\":14111:14157   */\n      mstore\n        /* \"#utility.yul\":13994:14164   */\n      pop\n      jump\t// out\n        /* \"#utility.yul\":14170:14536   */\n    tag_314:\n        /* \"#utility.yul\":14312:14315   */\n      0x00\n        /* \"#utility.yul\":14333:14400   */\n      tag_462\n        /* \"#utility.yul\":14397:14399   */\n      0x14\n        /* \"#utility.yul\":14392:14395   */\n      dup4\n        /* \"#utility.yul\":14333:14400   */\n      tag_295\n      jump\t// in\n    tag_462:\n        /* \"#utility.yul\":14326:14400   */\n      swap2\n      pop\n        /* \"#utility.yul\":14409:14502   */\n      tag_463\n        /* \"#utility.yul\":14498:14501   */\n      dup3\n        /* \"#utility.yul\":14409:14502   */\n      tag_313\n      jump\t// in\n    tag_463:\n        /* \"#utility.yul\":14527:14529   */\n      0x20\n        /* \"#utility.yul\":14522:14525   */\n      dup3\n        /* \"#utility.yul\":14518:14530   */\n      add\n        /* \"#utility.yul\":14511:14530   */\n      swap1\n      pop\n        /* \"#utility.yul\":14170:14536   */\n      swap2\n      swap1\n      pop\n      jump\t// out\n        /* \"#utility.yul\":14542:14961   */\n    tag_174:\n        /* \"#utility.yul\":14708:14712   */\n      0x00\n        /* \"#utility.yul\":14746:14748   */\n      0x20\n        /* \"#utility.yul\":14735:14744   */\n      dup3\n        /* \"#utility.yul\":14731:14749   */\n      add\n        /* \"#utility.yul\":14723:14749   */\n      swap1\n      pop\n        /* \"#utility.yul\":14795:14804   */\n      dup2\n        /* \"#utility.yul\":14789:14793   */\n      dup2\n        /* \"#utility.yul\":14785:14805   */\n      sub\n        /* \"#utility.yul\":14781:14782   */\n      0x00\n        /* \"#utility.yul\":14770:14779   */\n      dup4\n        /* \"#utility.yul\":14766:14783   */\n      add\n        /* \"#utility.yul\":14759:14806   */\n      mstore\n        /* \"#utility.yul\":14823:14954   */\n      tag_465\n        /* \"#utility.yul\":14949:14953   */\n      dup2\n        /* \"#utility.yul\":14823:14954   */\n      tag_314\n      jump\t// in\n    tag_465:\n        /* \"#utility.yul\":14815:14954   */\n      swap1\n      pop\n        /* \"#utility.yul\":14542:14961   */\n      swap2\n      swap1\n      pop\n      jump\t// out\n        /* \"#utility.yul\":14967:15140   */\n    tag_315:\n        /* \"#utility.yul\":15107:15132   */\n      0x4d7573742073656e642065786163746c79203120455448000000000000000000\n        /* \"#utility.yul\":15103:15104   */\n      0x00\n        /* \"#utility.yul\":15095:15101   */\n      dup3\n        /* \"#utility.yul\":15091:15105   */\n      add\n        /* \"#utility.yul\":15084:15133   */\n      mstore\n        /* \"#utility.yul\":14967:15140   */\n      pop\n      jump\t// out\n        /* \"#utility.yul\":15146:15512   */\n    tag_316:\n        /* \"#utility.yul\":15288:15291   */\n      0x00\n        /* \"#utility.yul\":15309:15376   */\n      tag_468\n        /* \"#utility.yul\":15373:15375   */\n      0x17\n        /* \"#utility.yul\":15368:15371   */\n      dup4\n        /* \"#utility.yul\":15309:15376   */\n      tag_295\n      jump\t// in\n    tag_468:\n        /* \"#utility.yul\":15302:15376   */\n      swap2\n      pop\n        /* \"#utility.yul\":15385:15478   */\n      tag_469\n        /* \"#utility.yul\":15474:15477   */\n      dup3\n        /* \"#utility.yul\":15385:15478   */\n      tag_315\n      jump\t// in\n    tag_469:\n        /* \"#utility.yul\":15503:15505   */\n      0x20\n        /* \"#utility.yul\":15498:15501   */\n      dup3\n        /* \"#utility.yul\":15494:15506   */\n      add\n        /* \"#utility.yul\":15487:15506   */\n      swap1\n      pop\n        /* \"#utility.yul\":15146:15512   */\n      swap2\n      swap1\n      pop\n      jump\t// out\n        /* \"#utility.yul\":15518:15937   */\n    tag_177:\n        /* \"#utility.yul\":15684:15688   */\n      0x00\n        /* \"#utility.yul\":15722:15724   */\n      0x20\n        /* \"#utility.yul\":15711:15720   */\n      dup3\n        /* \"#utility.yul\":15707:15725   */\n      add\n        /* \"#utility.yul\":15699:15725   */\n      swap1\n      pop\n        /* \"#utility.yul\":15771:15780   */\n      dup2\n        /* \"#utility.yul\":15765:15769   */\n      dup2\n        /* \"#utility.yul\":15761:15781   */\n      sub\n        /* \"#utility.yul\":15757:15758   */\n      0x00\n        /* \"#utility.yul\":15746:15755   */\n      dup4\n        /* \"#utility.yul\":15742:15759   */\n      add\n        /* \"#utility.yul\":15735:15782   */\n      mstore\n        /* \"#utility.yul\":15799:15930   */\n      tag_471\n        /* \"#utility.yul\":15925:15929   */\n      dup2\n        /* \"#utility.yul\":15799:15930   */\n      tag_316\n      jump\t// in\n    tag_471:\n        /* \"#utility.yul\":15791:15930   */\n      swap1\n      pop\n        /* \"#utility.yul\":15518:15937   */\n      swap2\n      swap1\n      pop\n      jump\t// out\n        /* \"#utility.yul\":15943:16114   */\n    tag_317:\n        /* \"#utility.yul\":16083:16106   */\n      0x506c6179657220616c7265616479206a6f696e65640000000000000000000000\n        /* \"#utility.yul\":16079:16080   */\n      0x00\n        /* \"#utility.yul\":16071:16077   */\n      dup3\n        /* \"#utility.yul\":16067:16081   */\n      add\n        /* \"#utility.yul\":16060:16107   */\n      mstore\n        /* \"#utility.yul\":15943:16114   */\n      pop\n      jump\t// out\n        /* \"#utility.yul\":16120:16486   */\n    tag_318:\n        /* \"#utility.yul\":16262:16265   */\n      0x00\n        /* \"#utility.yul\":16283:16350   */\n      tag_474\n        /* \"#utility.yul\":16347:16349   */\n      0x15\n        /* \"#utility.yul\":16342:16345   */\n      dup4\n        /* \"#utility.yul\":16283:16350   */\n      tag_295\n      jump\t// in\n    tag_474:\n        /* \"#utility.yul\":16276:16350   */\n      swap2\n      pop\n        /* \"#utility.yul\":16359:16452   */\n      tag_475\n        /* \"#utility.yul\":16448:16451   */\n      dup3\n        /* \"#utility.yul\":16359:16452   */\n      tag_317\n      jump\t// in\n    tag_475:\n        /* \"#utility.yul\":16477:16479   */\n      0x20\n        /* \"#utility.yul\":16472:16475   */\n      dup3\n        /* \"#utility.yul\":16468:16480   */\n      add\n        /* \"#utility.yul\":16461:16480   */\n      swap1\n      pop\n        /* \"#utility.yul\":16120:16486   */\n      swap2\n      swap1\n      pop\n      jump\t// out\n        /* \"#utility.yul\":16492:16911   */\n    tag_184:\n        /* \"#utility.yul\":16658:16662   */\n      0x00\n        /* \"#utility.yul\":16696:16698   */\n      0x20\n        /* \"#utility.yul\":16685:16694   */\n      dup3\n        /* \"#utility.yul\":16681:16699   */\n      add\n        /* \"#utility.yul\":16673:16699   */\n      swap1\n      pop\n        /* \"#utility.yul\":16745:16754   */\n      dup2\n        /* \"#utility.yul\":16739:16743   */\n      dup2\n        /* \"#utility.yul\":16735:16755   */\n      sub\n        /* \"#utility.yul\":16731:16732   */\n      0x00\n        /* \"#utility.yul\":16720:16729   */\n      dup4\n        /* \"#utility.yul\":16716:16733   */\n      add\n        /* \"#utility.yul\":16709:16756   */\n      mstore\n        /* \"#utility.yul\":16773:16904   */\n      tag_477\n        /* \"#utility.yul\":16899:16903   */\n      dup2\n        /* \"#utility.yul\":16773:16904   */\n      tag_318\n      jump\t// in\n    tag_477:\n        /* \"#utility.yul\":16765:16904   */\n      swap1\n      pop\n        /* \"#utility.yul\":16492:16911   */\n      swap2\n      swap1\n      pop\n      jump\t// out\n        /* \"#utility.yul\":16917:17091   */\n    tag_319:\n        /* \"#utility.yul\":17057:17083   */\n      0x43686f69636520616c726561647920636f6d6d69747465640000000000000000\n        /* \"#utility.yul\":17053:17054   */\n      0x00\n        /* \"#utility.yul\":17045:17051   */\n      dup3\n        /* \"#utility.yul\":17041:17055   */\n      add\n        /* \"#utility.yul\":17034:17084   */\n      mstore\n        /* \"#utility.yul\":16917:17091   */\n      pop\n      jump\t// out\n        /* \"#utility.yul\":17097:17463   */\n    tag_320:\n        /* \"#utility.yul\":17239:17242   */\n      0x00\n        /* \"#utility.yul\":17260:17327   */\n      tag_480\n        /* \"#utility.yul\":17324:17326   */\n      0x18\n        /* \"#utility.yul\":17319:17322   */\n      dup4\n        /* \"#utility.yul\":17260:17327   */\n      tag_295\n      jump\t// in\n    tag_480:\n        /* \"#utility.yul\":17253:17327   */\n      swap2\n      pop\n        /* \"#utility.yul\":17336:17429   */\n      tag_481\n        /* \"#utility.yul\":17425:17428   */\n      dup3\n        /* \"#utility.yul\":17336:17429   */\n      tag_319\n      jump\t// in\n    tag_481:\n        /* \"#utility.yul\":17454:17456   */\n      0x20\n        /* \"#utility.yul\":17449:17452   */\n      dup3\n        /* \"#utility.yul\":17445:17457   */\n      add\n        /* \"#utility.yul\":17438:17457   */\n      swap1\n      pop\n        /* \"#utility.yul\":17097:17463   */\n      swap2\n      swap1\n      pop\n      jump\t// out\n        /* \"#utility.yul\":17469:17888   */\n    tag_204:\n        /* \"#utility.yul\":17635:17639   */\n      0x00\n        /* \"#utility.yul\":17673:17675   */\n      0x20\n        /* \"#utility.yul\":17662:17671   */\n      dup3\n        /* \"#utility.yul\":17658:17676   */\n      add\n        /* \"#utility.yul\":17650:17676   */\n      swap1\n      pop\n        /* \"#utility.yul\":17722:17731   */\n      dup2\n        /* \"#utility.yul\":17716:17720   */\n      dup2\n        /* \"#utility.yul\":17712:17732   */\n      sub\n        /* \"#utility.yul\":17708:17709   */\n      0x00\n        /* \"#utility.yul\":17697:17706   */\n      dup4\n        /* \"#utility.yul\":17693:17710   */\n      add\n        /* \"#utility.yul\":17686:17733   */\n      mstore\n        /* \"#utility.yul\":17750:17881   */\n      tag_483\n        /* \"#utility.yul\":17876:17880   */\n      dup2\n        /* \"#utility.yul\":17750:17881   */\n      tag_320\n      jump\t// in\n    tag_483:\n        /* \"#utility.yul\":17742:17881   */\n      swap1\n      pop\n        /* \"#utility.yul\":17469:17888   */\n      swap2\n      swap1\n      pop\n      jump\t// out\n        /* \"#utility.yul\":17894:18070   */\n    tag_224:\n        /* \"#utility.yul\":17926:17927   */\n      0x00\n        /* \"#utility.yul\":17943:17963   */\n      tag_485\n        /* \"#utility.yul\":17961:17962   */\n      dup3\n        /* \"#utility.yul\":17943:17963   */\n      tag_275\n      jump\t// in\n    tag_485:\n        /* \"#utility.yul\":17938:17963   */\n      swap2\n      pop\n        /* \"#utility.yul\":17977:17997   */\n      tag_486\n        /* \"#utility.yul\":17995:17996   */\n      dup4\n        /* \"#utility.yul\":17977:17997   */\n      tag_275\n      jump\t// in\n    tag_486:\n        /* \"#utility.yul\":17972:17997   */\n      swap3\n      pop\n        /* \"#utility.yul\":18016:18017   */\n      dup3\n        /* \"#utility.yul\":18006:18041   */\n      tag_487\n      jumpi\n        /* \"#utility.yul\":18021:18039   */\n      tag_488\n      tag_312\n      jump\t// in\n    tag_488:\n        /* \"#utility.yul\":18006:18041   */\n    tag_487:\n        /* \"#utility.yul\":18062:18063   */\n      dup3\n        /* \"#utility.yul\":18059:18060   */\n      dup3\n        /* \"#utility.yul\":18055:18064   */\n      mod\n        /* \"#utility.yul\":18050:18064   */\n      swap1\n      pop\n        /* \"#utility.yul\":17894:18070   */\n      swap3\n      swap2\n      pop\n      pop\n      jump\t// out\n\n    auxdata: 0xa2646970667358221220c171db8289dfea867249a626417c198de1f6d598e1a42dc6b093d16bcba29c7864736f6c634300081a0033\n}\n",
				"bytecode": {
					"linkReferences": {},
					"object": "60806040525f80555f6001555f6005556101686007556040518060800160405280735b38da6a701c568545dcfcb03fcb875f56beddc473ffffffffffffffffffffffffffffffffffffffff1673ffffffffffffffffffffffffffffffffffffffff16815260200173ab8483f64d9c6d1ecf9b849ae677dd3315835cb273ffffffffffffffffffffffffffffffffffffffff1673ffffffffffffffffffffffffffffffffffffffff168152602001734b20993bc481177ec7e8f571cecae8a9e22c02db73ffffffffffffffffffffffffffffffffffffffff1673ffffffffffffffffffffffffffffffffffffffff1681526020017378731d3ca6b7e34ac0f824c42a7cc18a495cabab73ffffffffffffffffffffffffffffffffffffffff1673ffffffffffffffffffffffffffffffffffffffff16815250600a9060046101469291906101fb565b50348015610152575f80fd5b50604051612110380380612110833981810160405281019061017491906102f0565b8160085f6101000a81548173ffffffffffffffffffffffffffffffffffffffff021916908373ffffffffffffffffffffffffffffffffffffffff1602179055508060095f6101000a81548173ffffffffffffffffffffffffffffffffffffffff021916908373ffffffffffffffffffffffffffffffffffffffff160217905550505061032e565b8260048101928215610266579160200282015b82811115610265578251825f6101000a81548173ffffffffffffffffffffffffffffffffffffffff021916908373ffffffffffffffffffffffffffffffffffffffff1602179055509160200191906001019061020e565b5b5090506102739190610277565b5090565b5b8082111561028e575f815f905550600101610278565b5090565b5f80fd5b5f73ffffffffffffffffffffffffffffffffffffffff82169050919050565b5f6102bf82610296565b9050919050565b6102cf816102b5565b81146102d9575f80fd5b50565b5f815190506102ea816102c6565b92915050565b5f806040838503121561030657610305610292565b5b5f610313858286016102dc565b9250506020610324858286016102dc565b9150509250929050565b611dd58061033b5f395ff3fe6080604052600436106100e7575f3560e01c8063ae65f4ff11610089578063d4f77b1c11610058578063d4f77b1c146102eb578063e1f0c376146102f5578063e7dc36ad1461031f578063fea3ee5914610349576100e7565b8063ae65f4ff1461020d578063b55f108f14610249578063c34039ff14610285578063c8d9b6d5146102c1576100e7565b80635bfe6e00116100c55780635bfe6e0014610167578063719ce73e146101915780638c0ccf3e146101bb57806391b3f40e146101d1576100e7565b80630652e0f6146100eb578063302bcc5714610113578063436ba7951461013d575b5f80fd5b3480156100f6575f80fd5b50610111600480360381019061010c9190611523565b610371565b005b34801561011e575f80fd5b50610127610700565b6040516101349190611570565b60405180910390f35b348015610148575f80fd5b50610151610705565b60405161015e9190611603565b60405180910390f35b348015610172575f80fd5b5061017b61072a565b6040516101889190611570565b60405180910390f35b34801561019c575f80fd5b506101a5610730565b6040516101b29190611570565b60405180910390f35b3480156101c6575f80fd5b506101cf610736565b005b3480156101dc575f80fd5b506101f760048036038101906101f29190611657565b610947565b6040516102049190611570565b60405180910390f35b348015610218575f80fd5b50610233600480360381019061022e9190611657565b61095c565b604051610240919061169a565b60405180910390f35b348015610254575f80fd5b5061026f600480360381019061026a91906116b3565b610971565b60405161027c91906116ed565b60405180910390f35b348015610290575f80fd5b506102ab60048036038101906102a69190611523565b6109ac565b6040516102b8919061169a565b60405180910390f35b3480156102cc575f80fd5b506102d56109de565b6040516102e29190611726565b60405180910390f35b6102f3610a03565b005b348015610300575f80fd5b50610309610cb5565b6040516103169190611570565b60405180910390f35b34801561032a575f80fd5b50610333610cbb565b6040516103409190611570565b60405180910390f35b348015610354575f80fd5b5061036f600480360381019061036a9190611769565b610cc1565b005b5f805b60048110156103fa57600a816004811061039157610390611794565b5b015f9054906101000a900473ffffffffffffffffffffffffffffffffffffffff1673ffffffffffffffffffffffffffffffffffffffff163373ffffffffffffffffffffffffffffffffffffffff16036103ed57600191506103fa565b8080600101915050610374565b508061043b576040517f08c379a00000000000000000000000000000000000000000000000000000000081526004016104329061181b565b60405180910390fd5b60025f541461047f576040517f08c379a000000000000000000000000000000000000000000000000000000000815260040161047690611883565b60405180910390fd5b5f801b60025f3373ffffffffffffffffffffffffffffffffffffffff1673ffffffffffffffffffffffffffffffffffffffff1681526020019081526020015f205403610500576040517f08c379a00000000000000000000000000000000000000000000000000000000081526004016104f7906118eb565b60405180910390fd5b5f8310158015610511575060048311155b610550576040517f08c379a000000000000000000000000000000000000000000000000000000000815260040161054790611953565b60405180910390fd5b60025f3373ffffffffffffffffffffffffffffffffffffffff1673ffffffffffffffffffffffffffffffffffffffff1681526020019081526020015f205460095f9054906101000a900473ffffffffffffffffffffffffffffffffffffffff1673ffffffffffffffffffffffffffffffffffffffff16633cf5040a85856040516020016105de929190611991565b604051602081830303815290604052805190602001206040518263ffffffff1660e01b8152600401610610919061169a565b602060405180830381865afa15801561062b573d5f803e3d5ffd5b505050506040513d601f19601f8201168201806040525081019061064f91906119d0565b1461068f576040517f08c379a000000000000000000000000000000000000000000000000000000000815260040161068690611a45565b60405180910390fd5b8260035f3373ffffffffffffffffffffffffffffffffffffffff1673ffffffffffffffffffffffffffffffffffffffff1681526020019081526020015f208190555060055f8154809291906106e390611a90565b91905055506002600554036106fb576106fa610f1d565b5b505050565b5f5481565b60095f9054906101000a900473ffffffffffffffffffffffffffffffffffffffff1681565b60065481565b60015481565b6007546006546107469190611ad7565b421015610788576040517f08c379a000000000000000000000000000000000000000000000000000000000815260040161077f90611b54565b60405180910390fd5b60015f54036108175760045f815481106107a5576107a4611794565b5b905f5260205f20015f9054906101000a900473ffffffffffffffffffffffffffffffffffffffff1673ffffffffffffffffffffffffffffffffffffffff166108fc60015490811502906040515f60405180830381858888f19350505050158015610811573d5f803e3d5ffd5b5061093d565b60025f540361093c5760045f8154811061083457610833611794565b5b905f5260205f20015f9054906101000a900473ffffffffffffffffffffffffffffffffffffffff1673ffffffffffffffffffffffffffffffffffffffff166108fc60026001546108849190611b9f565b90811502906040515f60405180830381858888f193505050501580156108ac573d5f803e3d5ffd5b5060046001815481106108c2576108c1611794565b5b905f5260205f20015f9054906101000a900473ffffffffffffffffffffffffffffffffffffffff1673ffffffffffffffffffffffffffffffffffffffff166108fc60026001546109129190611b9f565b90811502906040515f60405180830381858888f1935050505015801561093a573d5f803e3d5ffd5b505b5b610945611263565b565b6003602052805f5260405f205f915090505481565b6002602052805f5260405f205f915090505481565b60048181548110610980575f80fd5b905f5260205f20015f915054906101000a900473ffffffffffffffffffffffffffffffffffffffff1681565b5f82826040516020016109c0929190611991565b60405160208183030381529060405280519060200120905092915050565b60085f9054906101000a900473ffffffffffffffffffffffffffffffffffffffff1681565b5f805b6004811015610a8c57600a8160048110610a2357610a22611794565b5b015f9054906101000a900473ffffffffffffffffffffffffffffffffffffffff1673ffffffffffffffffffffffffffffffffffffffff163373ffffffffffffffffffffffffffffffffffffffff1603610a7f5760019150610a8c565b8080600101915050610a06565b5080610acd576040517f08c379a0000000000000000000000000000000000000000000000000000000008152600401610ac49061181b565b60405180910390fd5b60025f5410610b11576040517f08c379a0000000000000000000000000000000000000000000000000000000008152600401610b0890611c19565b60405180910390fd5b670de0b6b3a76400003414610b5b576040517f08c379a0000000000000000000000000000000000000000000000000000000008152600401610b5290611c81565b60405180910390fd5b5f6004805490501480610bd5575060045f81548110610b7d57610b7c611794565b5b905f5260205f20015f9054906101000a900473ffffffffffffffffffffffffffffffffffffffff1673ffffffffffffffffffffffffffffffffffffffff163373ffffffffffffffffffffffffffffffffffffffff1614155b610c14576040517f08c379a0000000000000000000000000000000000000000000000000000000008152600401610c0b90611ce9565b60405180910390fd5b5f805403610c2457426006819055505b3460015f828254610c359190611ad7565b92505081905550600433908060018154018082558091505060019003905f5260205f20015f9091909190916101000a81548173ffffffffffffffffffffffffffffffffffffffff021916908373ffffffffffffffffffffffffffffffffffffffff1602179055505f80815480929190610cad90611a90565b919050555050565b60075481565b60055481565b5f805b6004811015610d4a57600a8160048110610ce157610ce0611794565b5b015f9054906101000a900473ffffffffffffffffffffffffffffffffffffffff1673ffffffffffffffffffffffffffffffffffffffff163373ffffffffffffffffffffffffffffffffffffffff1603610d3d5760019150610d4a565b8080600101915050610cc4565b5080610d8b576040517f08c379a0000000000000000000000000000000000000000000000000000000008152600401610d829061181b565b60405180910390fd5b60025f5414610dcf576040517f08c379a0000000000000000000000000000000000000000000000000000000008152600401610dc690611883565b60405180910390fd5b5f801b60025f3373ffffffffffffffffffffffffffffffffffffffff1673ffffffffffffffffffffffffffffffffffffffff1681526020019081526020015f205414610e50576040517f08c379a0000000000000000000000000000000000000000000000000000000008152600401610e4790611d51565b60405180910390fd5b60095f9054906101000a900473ffffffffffffffffffffffffffffffffffffffff1673ffffffffffffffffffffffffffffffffffffffff1663f14fcbc8836040518263ffffffff1660e01b8152600401610eaa919061169a565b5f604051808303815f87803b158015610ec1575f80fd5b505af1158015610ed3573d5f803e3d5ffd5b505050508160025f3373ffffffffffffffffffffffffffffffffffffffff1673ffffffffffffffffffffffffffffffffffffffff1681526020019081526020015f20819055505050565b5f60035f60045f81548110610f3557610f34611794565b5b905f5260205f20015f9054906101000a900473ffffffffffffffffffffffffffffffffffffffff1673ffffffffffffffffffffffffffffffffffffffff1673ffffffffffffffffffffffffffffffffffffffff1681526020019081526020015f205490505f60035f6004600181548110610fb257610fb1611794565b5b905f5260205f20015f9054906101000a900473ffffffffffffffffffffffffffffffffffffffff1673ffffffffffffffffffffffffffffffffffffffff1673ffffffffffffffffffffffffffffffffffffffff1681526020019081526020015f205490505f60045f8154811061102b5761102a611794565b5b905f5260205f20015f9054906101000a900473ffffffffffffffffffffffffffffffffffffffff1690505f600460018154811061106b5761106a611794565b5b905f5260205f20015f9054906101000a900473ffffffffffffffffffffffffffffffffffffffff1690508260056001866110a59190611ad7565b6110af9190611d6f565b14806110d257508260056003866110c69190611ad7565b6110d09190611d6f565b145b15611122578073ffffffffffffffffffffffffffffffffffffffff166108fc60015490811502906040515f60405180830381858888f1935050505015801561111c573d5f803e3d5ffd5b50611255565b8360056001856111329190611ad7565b61113c9190611d6f565b148061115f57508360056003856111539190611ad7565b61115d9190611d6f565b145b156111af578173ffffffffffffffffffffffffffffffffffffffff166108fc60015490811502906040515f60405180830381858888f193505050501580156111a9573d5f803e3d5ffd5b50611254565b8173ffffffffffffffffffffffffffffffffffffffff166108fc60026001546111d89190611b9f565b90811502906040515f60405180830381858888f19350505050158015611200573d5f803e3d5ffd5b508073ffffffffffffffffffffffffffffffffffffffff166108fc600260015461122a9190611b9f565b90811502906040515f60405180830381858888f19350505050158015611252573d5f803e3d5ffd5b505b5b61125d611263565b50505050565b5f6001819055505f80819055505f6005819055505f60048054905011156113005760025f60045f8154811061129b5761129a611794565b5b905f5260205f20015f9054906101000a900473ffffffffffffffffffffffffffffffffffffffff1673ffffffffffffffffffffffffffffffffffffffff1673ffffffffffffffffffffffffffffffffffffffff1681526020019081526020015f205f90555b6001600480549050111561138b5760025f600460018154811061132657611325611794565b5b905f5260205f20015f9054906101000a900473ffffffffffffffffffffffffffffffffffffffff1673ffffffffffffffffffffffffffffffffffffffff1673ffffffffffffffffffffffffffffffffffffffff1681526020019081526020015f205f90555b5f60048054905011156114145760035f60045f815481106113af576113ae611794565b5b905f5260205f20015f9054906101000a900473ffffffffffffffffffffffffffffffffffffffff1673ffffffffffffffffffffffffffffffffffffffff1673ffffffffffffffffffffffffffffffffffffffff1681526020019081526020015f205f90555b6001600480549050111561149f5760035f600460018154811061143a57611439611794565b5b905f5260205f20015f9054906101000a900473ffffffffffffffffffffffffffffffffffffffff1673ffffffffffffffffffffffffffffffffffffffff1673ffffffffffffffffffffffffffffffffffffffff1681526020019081526020015f205f90555b60045f6114ac91906114b3565b60065f9055565b5080545f8255905f5260205f20908101906114ce91906114d1565b50565b5b808211156114e8575f815f9055506001016114d2565b5090565b5f80fd5b5f819050919050565b611502816114f0565b811461150c575f80fd5b50565b5f8135905061151d816114f9565b92915050565b5f8060408385031215611539576115386114ec565b5b5f6115468582860161150f565b92505060206115578582860161150f565b9150509250929050565b61156a816114f0565b82525050565b5f6020820190506115835f830184611561565b92915050565b5f73ffffffffffffffffffffffffffffffffffffffff82169050919050565b5f819050919050565b5f6115cb6115c66115c184611589565b6115a8565b611589565b9050919050565b5f6115dc826115b1565b9050919050565b5f6115ed826115d2565b9050919050565b6115fd816115e3565b82525050565b5f6020820190506116165f8301846115f4565b92915050565b5f61162682611589565b9050919050565b6116368161161c565b8114611640575f80fd5b50565b5f813590506116518161162d565b92915050565b5f6020828403121561166c5761166b6114ec565b5b5f61167984828501611643565b91505092915050565b5f819050919050565b61169481611682565b82525050565b5f6020820190506116ad5f83018461168b565b92915050565b5f602082840312156116c8576116c76114ec565b5b5f6116d58482850161150f565b91505092915050565b6116e78161161c565b82525050565b5f6020820190506117005f8301846116de565b92915050565b5f611710826115d2565b9050919050565b61172081611706565b82525050565b5f6020820190506117395f830184611717565b92915050565b61174881611682565b8114611752575f80fd5b50565b5f813590506117638161173f565b92915050565b5f6020828403121561177e5761177d6114ec565b5b5f61178b84828501611755565b91505092915050565b7f4e487b71000000000000000000000000000000000000000000000000000000005f52603260045260245ffd5b5f82825260208201905092915050565b7f596f7520617265206e6f7420617574686f72697a656420746f20706c617900005f82015250565b5f611805601e836117c1565b9150611810826117d1565b602082019050919050565b5f6020820190508181035f830152611832816117f9565b9050919050565b7f47616d6520686173206e6f7420737461727465642079657400000000000000005f82015250565b5f61186d6018836117c1565b915061187882611839565b602082019050919050565b5f6020820190508181035f83015261189a81611861565b9050919050565b7f4e6f2063686f69636520636f6d6d6974746564000000000000000000000000005f82015250565b5f6118d56013836117c1565b91506118e0826118a1565b602082019050919050565b5f6020820190508181035f830152611902816118c9565b9050919050565b7f496e76616c69642063686f6963650000000000000000000000000000000000005f82015250565b5f61193d600e836117c1565b915061194882611909565b602082019050919050565b5f6020820190508181035f83015261196a81611931565b9050919050565b5f819050919050565b61198b611986826114f0565b611971565b82525050565b5f61199c828561197a565b6020820191506119ac828461197a565b6020820191508190509392505050565b5f815190506119ca8161173f565b92915050565b5f602082840312156119e5576119e46114ec565b5b5f6119f2848285016119bc565b91505092915050565b7f52657665616c20646f6573206e6f74206d6174636820636f6d6d69746d656e745f82015250565b5f611a2f6020836117c1565b9150611a3a826119fb565b602082019050919050565b5f6020820190508181035f830152611a5c81611a23565b9050919050565b7f4e487b71000000000000000000000000000000000000000000000000000000005f52601160045260245ffd5b5f611a9a826114f0565b91507fffffffffffffffffffffffffffffffffffffffffffffffffffffffffffffffff8203611acc57611acb611a63565b5b600182019050919050565b5f611ae1826114f0565b9150611aec836114f0565b9250828201905080821115611b0457611b03611a63565b5b92915050565b7f47616d6520686173206e6f742074696d6564206f7574207965740000000000005f82015250565b5f611b3e601a836117c1565b9150611b4982611b0a565b602082019050919050565b5f6020820190508181035f830152611b6b81611b32565b9050919050565b7f4e487b71000000000000000000000000000000000000000000000000000000005f52601260045260245ffd5b5f611ba9826114f0565b9150611bb4836114f0565b925082611bc457611bc3611b72565b5b828204905092915050565b7f47616d6520697320616c72656164792066756c6c0000000000000000000000005f82015250565b5f611c036014836117c1565b9150611c0e82611bcf565b602082019050919050565b5f6020820190508181035f830152611c3081611bf7565b9050919050565b7f4d7573742073656e642065786163746c792031204554480000000000000000005f82015250565b5f611c6b6017836117c1565b9150611c7682611c37565b602082019050919050565b5f6020820190508181035f830152611c9881611c5f565b9050919050565b7f506c6179657220616c7265616479206a6f696e656400000000000000000000005f82015250565b5f611cd36015836117c1565b9150611cde82611c9f565b602082019050919050565b5f6020820190508181035f830152611d0081611cc7565b9050919050565b7f43686f69636520616c726561647920636f6d6d697474656400000000000000005f82015250565b5f611d3b6018836117c1565b9150611d4682611d07565b602082019050919050565b5f6020820190508181035f830152611d6881611d2f565b9050919050565b5f611d79826114f0565b9150611d84836114f0565b925082611d9457611d93611b72565b5b82820690509291505056fea2646970667358221220c171db8289dfea867249a626417c198de1f6d598e1a42dc6b093d16bcba29c7864736f6c634300081a0033",
					"opcodes": "PUSH1 0x80 PUSH1 0x40 MSTORE PUSH0 DUP1 SSTORE PUSH0 PUSH1 0x1 SSTORE PUSH0 PUSH1 0x5 SSTORE PUSH2 0x168 PUSH1 0x7 SSTORE PUSH1 0x40 MLOAD DUP1 PUSH1 0x80 ADD PUSH1 0x40 MSTORE DUP1 PUSH20 0x5B38DA6A701C568545DCFCB03FCB875F56BEDDC4 PUSH20 0xFFFFFFFFFFFFFFFFFFFFFFFFFFFFFFFFFFFFFFFF AND PUSH20 0xFFFFFFFFFFFFFFFFFFFFFFFFFFFFFFFFFFFFFFFF AND DUP2 MSTORE PUSH1 0x20 ADD PUSH20 0xAB8483F64D9C6D1ECF9B849AE677DD3315835CB2 PUSH20 0xFFFFFFFFFFFFFFFFFFFFFFFFFFFFFFFFFFFFFFFF AND PUSH20 0xFFFFFFFFFFFFFFFFFFFFFFFFFFFFFFFFFFFFFFFF AND DUP2 MSTORE PUSH1 0x20 ADD PUSH20 0x4B20993BC481177EC7E8F571CECAE8A9E22C02DB PUSH20 0xFFFFFFFFFFFFFFFFFFFFFFFFFFFFFFFFFFFFFFFF AND PUSH20 0xFFFFFFFFFFFFFFFFFFFFFFFFFFFFFFFFFFFFFFFF AND DUP2 MSTORE PUSH1 0x20 ADD PUSH20 0x78731D3CA6B7E34AC0F824C42A7CC18A495CABAB PUSH20 0xFFFFFFFFFFFFFFFFFFFFFFFFFFFFFFFFFFFFFFFF AND PUSH20 0xFFFFFFFFFFFFFFFFFFFFFFFFFFFFFFFFFFFFFFFF AND DUP2 MSTORE POP PUSH1 0xA SWAP1 PUSH1 0x4 PUSH2 0x146 SWAP3 SWAP2 SWAP1 PUSH2 0x1FB JUMP JUMPDEST POP CALLVALUE DUP1 ISZERO PUSH2 0x152 JUMPI PUSH0 DUP1 REVERT JUMPDEST POP PUSH1 0x40 MLOAD PUSH2 0x2110 CODESIZE SUB DUP1 PUSH2 0x2110 DUP4 CODECOPY DUP2 DUP2 ADD PUSH1 0x40 MSTORE DUP2 ADD SWAP1 PUSH2 0x174 SWAP2 SWAP1 PUSH2 0x2F0 JUMP JUMPDEST DUP2 PUSH1 0x8 PUSH0 PUSH2 0x100 EXP DUP2 SLOAD DUP2 PUSH20 0xFFFFFFFFFFFFFFFFFFFFFFFFFFFFFFFFFFFFFFFF MUL NOT AND SWAP1 DUP4 PUSH20 0xFFFFFFFFFFFFFFFFFFFFFFFFFFFFFFFFFFFFFFFF AND MUL OR SWAP1 SSTORE POP DUP1 PUSH1 0x9 PUSH0 PUSH2 0x100 EXP DUP2 SLOAD DUP2 PUSH20 0xFFFFFFFFFFFFFFFFFFFFFFFFFFFFFFFFFFFFFFFF MUL NOT AND SWAP1 DUP4 PUSH20 0xFFFFFFFFFFFFFFFFFFFFFFFFFFFFFFFFFFFFFFFF AND MUL OR SWAP1 SSTORE POP POP POP PUSH2 0x32E JUMP JUMPDEST DUP3 PUSH1 0x4 DUP2 ADD SWAP3 DUP3 ISZERO PUSH2 0x266 JUMPI SWAP2 PUSH1 0x20 MUL DUP3 ADD JUMPDEST DUP3 DUP2 GT ISZERO PUSH2 0x265 JUMPI DUP3 MLOAD DUP3 PUSH0 PUSH2 0x100 EXP DUP2 SLOAD DUP2 PUSH20 0xFFFFFFFFFFFFFFFFFFFFFFFFFFFFFFFFFFFFFFFF MUL NOT AND SWAP1 DUP4 PUSH20 0xFFFFFFFFFFFFFFFFFFFFFFFFFFFFFFFFFFFFFFFF AND MUL OR SWAP1 SSTORE POP SWAP2 PUSH1 0x20 ADD SWAP2 SWAP1 PUSH1 0x1 ADD SWAP1 PUSH2 0x20E JUMP JUMPDEST JUMPDEST POP SWAP1 POP PUSH2 0x273 SWAP2 SWAP1 PUSH2 0x277 JUMP JUMPDEST POP SWAP1 JUMP JUMPDEST JUMPDEST DUP1 DUP3 GT ISZERO PUSH2 0x28E JUMPI PUSH0 DUP2 PUSH0 SWAP1 SSTORE POP PUSH1 0x1 ADD PUSH2 0x278 JUMP JUMPDEST POP SWAP1 JUMP JUMPDEST PUSH0 DUP1 REVERT JUMPDEST PUSH0 PUSH20 0xFFFFFFFFFFFFFFFFFFFFFFFFFFFFFFFFFFFFFFFF DUP3 AND SWAP1 POP SWAP2 SWAP1 POP JUMP JUMPDEST PUSH0 PUSH2 0x2BF DUP3 PUSH2 0x296 JUMP JUMPDEST SWAP1 POP SWAP2 SWAP1 POP JUMP JUMPDEST PUSH2 0x2CF DUP2 PUSH2 0x2B5 JUMP JUMPDEST DUP2 EQ PUSH2 0x2D9 JUMPI PUSH0 DUP1 REVERT JUMPDEST POP JUMP JUMPDEST PUSH0 DUP2 MLOAD SWAP1 POP PUSH2 0x2EA DUP2 PUSH2 0x2C6 JUMP JUMPDEST SWAP3 SWAP2 POP POP JUMP JUMPDEST PUSH0 DUP1 PUSH1 0x40 DUP4 DUP6 SUB SLT ISZERO PUSH2 0x306 JUMPI PUSH2 0x305 PUSH2 0x292 JUMP JUMPDEST JUMPDEST PUSH0 PUSH2 0x313 DUP6 DUP3 DUP7 ADD PUSH2 0x2DC JUMP JUMPDEST SWAP3 POP POP PUSH1 0x20 PUSH2 0x324 DUP6 DUP3 DUP7 ADD PUSH2 0x2DC JUMP JUMPDEST SWAP2 POP POP SWAP3 POP SWAP3 SWAP1 POP JUMP JUMPDEST PUSH2 0x1DD5 DUP1 PUSH2 0x33B PUSH0 CODECOPY PUSH0 RETURN INVALID PUSH1 0x80 PUSH1 0x40 MSTORE PUSH1 0x4 CALLDATASIZE LT PUSH2 0xE7 JUMPI PUSH0 CALLDATALOAD PUSH1 0xE0 SHR DUP1 PUSH4 0xAE65F4FF GT PUSH2 0x89 JUMPI DUP1 PUSH4 0xD4F77B1C GT PUSH2 0x58 JUMPI DUP1 PUSH4 0xD4F77B1C EQ PUSH2 0x2EB JUMPI DUP1 PUSH4 0xE1F0C376 EQ PUSH2 0x2F5 JUMPI DUP1 PUSH4 0xE7DC36AD EQ PUSH2 0x31F JUMPI DUP1 PUSH4 0xFEA3EE59 EQ PUSH2 0x349 JUMPI PUSH2 0xE7 JUMP JUMPDEST DUP1 PUSH4 0xAE65F4FF EQ PUSH2 0x20D JUMPI DUP1 PUSH4 0xB55F108F EQ PUSH2 0x249 JUMPI DUP1 PUSH4 0xC34039FF EQ PUSH2 0x285 JUMPI DUP1 PUSH4 0xC8D9B6D5 EQ PUSH2 0x2C1 JUMPI PUSH2 0xE7 JUMP JUMPDEST DUP1 PUSH4 0x5BFE6E00 GT PUSH2 0xC5 JUMPI DUP1 PUSH4 0x5BFE6E00 EQ PUSH2 0x167 JUMPI DUP1 PUSH4 0x719CE73E EQ PUSH2 0x191 JUMPI DUP1 PUSH4 0x8C0CCF3E EQ PUSH2 0x1BB JUMPI DUP1 PUSH4 0x91B3F40E EQ PUSH2 0x1D1 JUMPI PUSH2 0xE7 JUMP JUMPDEST DUP1 PUSH4 0x652E0F6 EQ PUSH2 0xEB JUMPI DUP1 PUSH4 0x302BCC57 EQ PUSH2 0x113 JUMPI DUP1 PUSH4 0x436BA795 EQ PUSH2 0x13D JUMPI JUMPDEST PUSH0 DUP1 REVERT JUMPDEST CALLVALUE DUP1 ISZERO PUSH2 0xF6 JUMPI PUSH0 DUP1 REVERT JUMPDEST POP PUSH2 0x111 PUSH1 0x4 DUP1 CALLDATASIZE SUB DUP2 ADD SWAP1 PUSH2 0x10C SWAP2 SWAP1 PUSH2 0x1523 JUMP JUMPDEST PUSH2 0x371 JUMP JUMPDEST STOP JUMPDEST CALLVALUE DUP1 ISZERO PUSH2 0x11E JUMPI PUSH0 DUP1 REVERT JUMPDEST POP PUSH2 0x127 PUSH2 0x700 JUMP JUMPDEST PUSH1 0x40 MLOAD PUSH2 0x134 SWAP2 SWAP1 PUSH2 0x1570 JUMP JUMPDEST PUSH1 0x40 MLOAD DUP1 SWAP2 SUB SWAP1 RETURN JUMPDEST CALLVALUE DUP1 ISZERO PUSH2 0x148 JUMPI PUSH0 DUP1 REVERT JUMPDEST POP PUSH2 0x151 PUSH2 0x705 JUMP JUMPDEST PUSH1 0x40 MLOAD PUSH2 0x15E SWAP2 SWAP1 PUSH2 0x1603 JUMP JUMPDEST PUSH1 0x40 MLOAD DUP1 SWAP2 SUB SWAP1 RETURN JUMPDEST CALLVALUE DUP1 ISZERO PUSH2 0x172 JUMPI PUSH0 DUP1 REVERT JUMPDEST POP PUSH2 0x17B PUSH2 0x72A JUMP JUMPDEST PUSH1 0x40 MLOAD PUSH2 0x188 SWAP2 SWAP1 PUSH2 0x1570 JUMP JUMPDEST PUSH1 0x40 MLOAD DUP1 SWAP2 SUB SWAP1 RETURN JUMPDEST CALLVALUE DUP1 ISZERO PUSH2 0x19C JUMPI PUSH0 DUP1 REVERT JUMPDEST POP PUSH2 0x1A5 PUSH2 0x730 JUMP JUMPDEST PUSH1 0x40 MLOAD PUSH2 0x1B2 SWAP2 SWAP1 PUSH2 0x1570 JUMP JUMPDEST PUSH1 0x40 MLOAD DUP1 SWAP2 SUB SWAP1 RETURN JUMPDEST CALLVALUE DUP1 ISZERO PUSH2 0x1C6 JUMPI PUSH0 DUP1 REVERT JUMPDEST POP PUSH2 0x1CF PUSH2 0x736 JUMP JUMPDEST STOP JUMPDEST CALLVALUE DUP1 ISZERO PUSH2 0x1DC JUMPI PUSH0 DUP1 REVERT JUMPDEST POP PUSH2 0x1F7 PUSH1 0x4 DUP1 CALLDATASIZE SUB DUP2 ADD SWAP1 PUSH2 0x1F2 SWAP2 SWAP1 PUSH2 0x1657 JUMP JUMPDEST PUSH2 0x947 JUMP JUMPDEST PUSH1 0x40 MLOAD PUSH2 0x204 SWAP2 SWAP1 PUSH2 0x1570 JUMP JUMPDEST PUSH1 0x40 MLOAD DUP1 SWAP2 SUB SWAP1 RETURN JUMPDEST CALLVALUE DUP1 ISZERO PUSH2 0x218 JUMPI PUSH0 DUP1 REVERT JUMPDEST POP PUSH2 0x233 PUSH1 0x4 DUP1 CALLDATASIZE SUB DUP2 ADD SWAP1 PUSH2 0x22E SWAP2 SWAP1 PUSH2 0x1657 JUMP JUMPDEST PUSH2 0x95C JUMP JUMPDEST PUSH1 0x40 MLOAD PUSH2 0x240 SWAP2 SWAP1 PUSH2 0x169A JUMP JUMPDEST PUSH1 0x40 MLOAD DUP1 SWAP2 SUB SWAP1 RETURN JUMPDEST CALLVALUE DUP1 ISZERO PUSH2 0x254 JUMPI PUSH0 DUP1 REVERT JUMPDEST POP PUSH2 0x26F PUSH1 0x4 DUP1 CALLDATASIZE SUB DUP2 ADD SWAP1 PUSH2 0x26A SWAP2 SWAP1 PUSH2 0x16B3 JUMP JUMPDEST PUSH2 0x971 JUMP JUMPDEST PUSH1 0x40 MLOAD PUSH2 0x27C SWAP2 SWAP1 PUSH2 0x16ED JUMP JUMPDEST PUSH1 0x40 MLOAD DUP1 SWAP2 SUB SWAP1 RETURN JUMPDEST CALLVALUE DUP1 ISZERO PUSH2 0x290 JUMPI PUSH0 DUP1 REVERT JUMPDEST POP PUSH2 0x2AB PUSH1 0x4 DUP1 CALLDATASIZE SUB DUP2 ADD SWAP1 PUSH2 0x2A6 SWAP2 SWAP1 PUSH2 0x1523 JUMP JUMPDEST PUSH2 0x9AC JUMP JUMPDEST PUSH1 0x40 MLOAD PUSH2 0x2B8 SWAP2 SWAP1 PUSH2 0x169A JUMP JUMPDEST PUSH1 0x40 MLOAD DUP1 SWAP2 SUB SWAP1 RETURN JUMPDEST CALLVALUE DUP1 ISZERO PUSH2 0x2CC JUMPI PUSH0 DUP1 REVERT JUMPDEST POP PUSH2 0x2D5 PUSH2 0x9DE JUMP JUMPDEST PUSH1 0x40 MLOAD PUSH2 0x2E2 SWAP2 SWAP1 PUSH2 0x1726 JUMP JUMPDEST PUSH1 0x40 MLOAD DUP1 SWAP2 SUB SWAP1 RETURN JUMPDEST PUSH2 0x2F3 PUSH2 0xA03 JUMP JUMPDEST STOP JUMPDEST CALLVALUE DUP1 ISZERO PUSH2 0x300 JUMPI PUSH0 DUP1 REVERT JUMPDEST POP PUSH2 0x309 PUSH2 0xCB5 JUMP JUMPDEST PUSH1 0x40 MLOAD PUSH2 0x316 SWAP2 SWAP1 PUSH2 0x1570 JUMP JUMPDEST PUSH1 0x40 MLOAD DUP1 SWAP2 SUB SWAP1 RETURN JUMPDEST CALLVALUE DUP1 ISZERO PUSH2 0x32A JUMPI PUSH0 DUP1 REVERT JUMPDEST POP PUSH2 0x333 PUSH2 0xCBB JUMP JUMPDEST PUSH1 0x40 MLOAD PUSH2 0x340 SWAP2 SWAP1 PUSH2 0x1570 JUMP JUMPDEST PUSH1 0x40 MLOAD DUP1 SWAP2 SUB SWAP1 RETURN JUMPDEST CALLVALUE DUP1 ISZERO PUSH2 0x354 JUMPI PUSH0 DUP1 REVERT JUMPDEST POP PUSH2 0x36F PUSH1 0x4 DUP1 CALLDATASIZE SUB DUP2 ADD SWAP1 PUSH2 0x36A SWAP2 SWAP1 PUSH2 0x1769 JUMP JUMPDEST PUSH2 0xCC1 JUMP JUMPDEST STOP JUMPDEST PUSH0 DUP1 JUMPDEST PUSH1 0x4 DUP2 LT ISZERO PUSH2 0x3FA JUMPI PUSH1 0xA DUP2 PUSH1 0x4 DUP2 LT PUSH2 0x391 JUMPI PUSH2 0x390 PUSH2 0x1794 JUMP JUMPDEST JUMPDEST ADD PUSH0 SWAP1 SLOAD SWAP1 PUSH2 0x100 EXP SWAP1 DIV PUSH20 0xFFFFFFFFFFFFFFFFFFFFFFFFFFFFFFFFFFFFFFFF AND PUSH20 0xFFFFFFFFFFFFFFFFFFFFFFFFFFFFFFFFFFFFFFFF AND CALLER PUSH20 0xFFFFFFFFFFFFFFFFFFFFFFFFFFFFFFFFFFFFFFFF AND SUB PUSH2 0x3ED JUMPI PUSH1 0x1 SWAP2 POP PUSH2 0x3FA JUMP JUMPDEST DUP1 DUP1 PUSH1 0x1 ADD SWAP2 POP POP PUSH2 0x374 JUMP JUMPDEST POP DUP1 PUSH2 0x43B JUMPI PUSH1 0x40 MLOAD PUSH32 0x8C379A000000000000000000000000000000000000000000000000000000000 DUP2 MSTORE PUSH1 0x4 ADD PUSH2 0x432 SWAP1 PUSH2 0x181B JUMP JUMPDEST PUSH1 0x40 MLOAD DUP1 SWAP2 SUB SWAP1 REVERT JUMPDEST PUSH1 0x2 PUSH0 SLOAD EQ PUSH2 0x47F JUMPI PUSH1 0x40 MLOAD PUSH32 0x8C379A000000000000000000000000000000000000000000000000000000000 DUP2 MSTORE PUSH1 0x4 ADD PUSH2 0x476 SWAP1 PUSH2 0x1883 JUMP JUMPDEST PUSH1 0x40 MLOAD DUP1 SWAP2 SUB SWAP1 REVERT JUMPDEST PUSH0 DUP1 SHL PUSH1 0x2 PUSH0 CALLER PUSH20 0xFFFFFFFFFFFFFFFFFFFFFFFFFFFFFFFFFFFFFFFF AND PUSH20 0xFFFFFFFFFFFFFFFFFFFFFFFFFFFFFFFFFFFFFFFF AND DUP2 MSTORE PUSH1 0x20 ADD SWAP1 DUP2 MSTORE PUSH1 0x20 ADD PUSH0 KECCAK256 SLOAD SUB PUSH2 0x500 JUMPI PUSH1 0x40 MLOAD PUSH32 0x8C379A000000000000000000000000000000000000000000000000000000000 DUP2 MSTORE PUSH1 0x4 ADD PUSH2 0x4F7 SWAP1 PUSH2 0x18EB JUMP JUMPDEST PUSH1 0x40 MLOAD DUP1 SWAP2 SUB SWAP1 REVERT JUMPDEST PUSH0 DUP4 LT ISZERO DUP1 ISZERO PUSH2 0x511 JUMPI POP PUSH1 0x4 DUP4 GT ISZERO JUMPDEST PUSH2 0x550 JUMPI PUSH1 0x40 MLOAD PUSH32 0x8C379A000000000000000000000000000000000000000000000000000000000 DUP2 MSTORE PUSH1 0x4 ADD PUSH2 0x547 SWAP1 PUSH2 0x1953 JUMP JUMPDEST PUSH1 0x40 MLOAD DUP1 SWAP2 SUB SWAP1 REVERT JUMPDEST PUSH1 0x2 PUSH0 CALLER PUSH20 0xFFFFFFFFFFFFFFFFFFFFFFFFFFFFFFFFFFFFFFFF AND PUSH20 0xFFFFFFFFFFFFFFFFFFFFFFFFFFFFFFFFFFFFFFFF AND DUP2 MSTORE PUSH1 0x20 ADD SWAP1 DUP2 MSTORE PUSH1 0x20 ADD PUSH0 KECCAK256 SLOAD PUSH1 0x9 PUSH0 SWAP1 SLOAD SWAP1 PUSH2 0x100 EXP SWAP1 DIV PUSH20 0xFFFFFFFFFFFFFFFFFFFFFFFFFFFFFFFFFFFFFFFF AND PUSH20 0xFFFFFFFFFFFFFFFFFFFFFFFFFFFFFFFFFFFFFFFF AND PUSH4 0x3CF5040A DUP6 DUP6 PUSH1 0x40 MLOAD PUSH1 0x20 ADD PUSH2 0x5DE SWAP3 SWAP2 SWAP1 PUSH2 0x1991 JUMP JUMPDEST PUSH1 0x40 MLOAD PUSH1 0x20 DUP2 DUP4 SUB SUB DUP2 MSTORE SWAP1 PUSH1 0x40 MSTORE DUP1 MLOAD SWAP1 PUSH1 0x20 ADD KECCAK256 PUSH1 0x40 MLOAD DUP3 PUSH4 0xFFFFFFFF AND PUSH1 0xE0 SHL DUP2 MSTORE PUSH1 0x4 ADD PUSH2 0x610 SWAP2 SWAP1 PUSH2 0x169A JUMP JUMPDEST PUSH1 0x20 PUSH1 0x40 MLOAD DUP1 DUP4 SUB DUP2 DUP7 GAS STATICCALL ISZERO DUP1 ISZERO PUSH2 0x62B JUMPI RETURNDATASIZE PUSH0 DUP1 RETURNDATACOPY RETURNDATASIZE PUSH0 REVERT JUMPDEST POP POP POP POP PUSH1 0x40 MLOAD RETURNDATASIZE PUSH1 0x1F NOT PUSH1 0x1F DUP3 ADD AND DUP3 ADD DUP1 PUSH1 0x40 MSTORE POP DUP2 ADD SWAP1 PUSH2 0x64F SWAP2 SWAP1 PUSH2 0x19D0 JUMP JUMPDEST EQ PUSH2 0x68F JUMPI PUSH1 0x40 MLOAD PUSH32 0x8C379A000000000000000000000000000000000000000000000000000000000 DUP2 MSTORE PUSH1 0x4 ADD PUSH2 0x686 SWAP1 PUSH2 0x1A45 JUMP JUMPDEST PUSH1 0x40 MLOAD DUP1 SWAP2 SUB SWAP1 REVERT JUMPDEST DUP3 PUSH1 0x3 PUSH0 CALLER PUSH20 0xFFFFFFFFFFFFFFFFFFFFFFFFFFFFFFFFFFFFFFFF AND PUSH20 0xFFFFFFFFFFFFFFFFFFFFFFFFFFFFFFFFFFFFFFFF AND DUP2 MSTORE PUSH1 0x20 ADD SWAP1 DUP2 MSTORE PUSH1 0x20 ADD PUSH0 KECCAK256 DUP2 SWAP1 SSTORE POP PUSH1 0x5 PUSH0 DUP2 SLOAD DUP1 SWAP3 SWAP2 SWAP1 PUSH2 0x6E3 SWAP1 PUSH2 0x1A90 JUMP JUMPDEST SWAP2 SWAP1 POP SSTORE POP PUSH1 0x2 PUSH1 0x5 SLOAD SUB PUSH2 0x6FB JUMPI PUSH2 0x6FA PUSH2 0xF1D JUMP JUMPDEST JUMPDEST POP POP POP JUMP JUMPDEST PUSH0 SLOAD DUP2 JUMP JUMPDEST PUSH1 0x9 PUSH0 SWAP1 SLOAD SWAP1 PUSH2 0x100 EXP SWAP1 DIV PUSH20 0xFFFFFFFFFFFFFFFFFFFFFFFFFFFFFFFFFFFFFFFF AND DUP2 JUMP JUMPDEST PUSH1 0x6 SLOAD DUP2 JUMP JUMPDEST PUSH1 0x1 SLOAD DUP2 JUMP JUMPDEST PUSH1 0x7 SLOAD PUSH1 0x6 SLOAD PUSH2 0x746 SWAP2 SWAP1 PUSH2 0x1AD7 JUMP JUMPDEST TIMESTAMP LT ISZERO PUSH2 0x788 JUMPI PUSH1 0x40 MLOAD PUSH32 0x8C379A000000000000000000000000000000000000000000000000000000000 DUP2 MSTORE PUSH1 0x4 ADD PUSH2 0x77F SWAP1 PUSH2 0x1B54 JUMP JUMPDEST PUSH1 0x40 MLOAD DUP1 SWAP2 SUB SWAP1 REVERT JUMPDEST PUSH1 0x1 PUSH0 SLOAD SUB PUSH2 0x817 JUMPI PUSH1 0x4 PUSH0 DUP2 SLOAD DUP2 LT PUSH2 0x7A5 JUMPI PUSH2 0x7A4 PUSH2 0x1794 JUMP JUMPDEST JUMPDEST SWAP1 PUSH0 MSTORE PUSH1 0x20 PUSH0 KECCAK256 ADD PUSH0 SWAP1 SLOAD SWAP1 PUSH2 0x100 EXP SWAP1 DIV PUSH20 0xFFFFFFFFFFFFFFFFFFFFFFFFFFFFFFFFFFFFFFFF AND PUSH20 0xFFFFFFFFFFFFFFFFFFFFFFFFFFFFFFFFFFFFFFFF AND PUSH2 0x8FC PUSH1 0x1 SLOAD SWAP1 DUP2 ISZERO MUL SWAP1 PUSH1 0x40 MLOAD PUSH0 PUSH1 0x40 MLOAD DUP1 DUP4 SUB DUP2 DUP6 DUP9 DUP9 CALL SWAP4 POP POP POP POP ISZERO DUP1 ISZERO PUSH2 0x811 JUMPI RETURNDATASIZE PUSH0 DUP1 RETURNDATACOPY RETURNDATASIZE PUSH0 REVERT JUMPDEST POP PUSH2 0x93D JUMP JUMPDEST PUSH1 0x2 PUSH0 SLOAD SUB PUSH2 0x93C JUMPI PUSH1 0x4 PUSH0 DUP2 SLOAD DUP2 LT PUSH2 0x834 JUMPI PUSH2 0x833 PUSH2 0x1794 JUMP JUMPDEST JUMPDEST SWAP1 PUSH0 MSTORE PUSH1 0x20 PUSH0 KECCAK256 ADD PUSH0 SWAP1 SLOAD SWAP1 PUSH2 0x100 EXP SWAP1 DIV PUSH20 0xFFFFFFFFFFFFFFFFFFFFFFFFFFFFFFFFFFFFFFFF AND PUSH20 0xFFFFFFFFFFFFFFFFFFFFFFFFFFFFFFFFFFFFFFFF AND PUSH2 0x8FC PUSH1 0x2 PUSH1 0x1 SLOAD PUSH2 0x884 SWAP2 SWAP1 PUSH2 0x1B9F JUMP JUMPDEST SWAP1 DUP2 ISZERO MUL SWAP1 PUSH1 0x40 MLOAD PUSH0 PUSH1 0x40 MLOAD DUP1 DUP4 SUB DUP2 DUP6 DUP9 DUP9 CALL SWAP4 POP POP POP POP ISZERO DUP1 ISZERO PUSH2 0x8AC JUMPI RETURNDATASIZE PUSH0 DUP1 RETURNDATACOPY RETURNDATASIZE PUSH0 REVERT JUMPDEST POP PUSH1 0x4 PUSH1 0x1 DUP2 SLOAD DUP2 LT PUSH2 0x8C2 JUMPI PUSH2 0x8C1 PUSH2 0x1794 JUMP JUMPDEST JUMPDEST SWAP1 PUSH0 MSTORE PUSH1 0x20 PUSH0 KECCAK256 ADD PUSH0 SWAP1 SLOAD SWAP1 PUSH2 0x100 EXP SWAP1 DIV PUSH20 0xFFFFFFFFFFFFFFFFFFFFFFFFFFFFFFFFFFFFFFFF AND PUSH20 0xFFFFFFFFFFFFFFFFFFFFFFFFFFFFFFFFFFFFFFFF AND PUSH2 0x8FC PUSH1 0x2 PUSH1 0x1 SLOAD PUSH2 0x912 SWAP2 SWAP1 PUSH2 0x1B9F JUMP JUMPDEST SWAP1 DUP2 ISZERO MUL SWAP1 PUSH1 0x40 MLOAD PUSH0 PUSH1 0x40 MLOAD DUP1 DUP4 SUB DUP2 DUP6 DUP9 DUP9 CALL SWAP4 POP POP POP POP ISZERO DUP1 ISZERO PUSH2 0x93A JUMPI RETURNDATASIZE PUSH0 DUP1 RETURNDATACOPY RETURNDATASIZE PUSH0 REVERT JUMPDEST POP JUMPDEST JUMPDEST PUSH2 0x945 PUSH2 0x1263 JUMP JUMPDEST JUMP JUMPDEST PUSH1 0x3 PUSH1 0x20 MSTORE DUP1 PUSH0 MSTORE PUSH1 0x40 PUSH0 KECCAK256 PUSH0 SWAP2 POP SWAP1 POP SLOAD DUP2 JUMP JUMPDEST PUSH1 0x2 PUSH1 0x20 MSTORE DUP1 PUSH0 MSTORE PUSH1 0x40 PUSH0 KECCAK256 PUSH0 SWAP2 POP SWAP1 POP SLOAD DUP2 JUMP JUMPDEST PUSH1 0x4 DUP2 DUP2 SLOAD DUP2 LT PUSH2 0x980 JUMPI PUSH0 DUP1 REVERT JUMPDEST SWAP1 PUSH0 MSTORE PUSH1 0x20 PUSH0 KECCAK256 ADD PUSH0 SWAP2 POP SLOAD SWAP1 PUSH2 0x100 EXP SWAP1 DIV PUSH20 0xFFFFFFFFFFFFFFFFFFFFFFFFFFFFFFFFFFFFFFFF AND DUP2 JUMP JUMPDEST PUSH0 DUP3 DUP3 PUSH1 0x40 MLOAD PUSH1 0x20 ADD PUSH2 0x9C0 SWAP3 SWAP2 SWAP1 PUSH2 0x1991 JUMP JUMPDEST PUSH1 0x40 MLOAD PUSH1 0x20 DUP2 DUP4 SUB SUB DUP2 MSTORE SWAP1 PUSH1 0x40 MSTORE DUP1 MLOAD SWAP1 PUSH1 0x20 ADD KECCAK256 SWAP1 POP SWAP3 SWAP2 POP POP JUMP JUMPDEST PUSH1 0x8 PUSH0 SWAP1 SLOAD SWAP1 PUSH2 0x100 EXP SWAP1 DIV PUSH20 0xFFFFFFFFFFFFFFFFFFFFFFFFFFFFFFFFFFFFFFFF AND DUP2 JUMP JUMPDEST PUSH0 DUP1 JUMPDEST PUSH1 0x4 DUP2 LT ISZERO PUSH2 0xA8C JUMPI PUSH1 0xA DUP2 PUSH1 0x4 DUP2 LT PUSH2 0xA23 JUMPI PUSH2 0xA22 PUSH2 0x1794 JUMP JUMPDEST JUMPDEST ADD PUSH0 SWAP1 SLOAD SWAP1 PUSH2 0x100 EXP SWAP1 DIV PUSH20 0xFFFFFFFFFFFFFFFFFFFFFFFFFFFFFFFFFFFFFFFF AND PUSH20 0xFFFFFFFFFFFFFFFFFFFFFFFFFFFFFFFFFFFFFFFF AND CALLER PUSH20 0xFFFFFFFFFFFFFFFFFFFFFFFFFFFFFFFFFFFFFFFF AND SUB PUSH2 0xA7F JUMPI PUSH1 0x1 SWAP2 POP PUSH2 0xA8C JUMP JUMPDEST DUP1 DUP1 PUSH1 0x1 ADD SWAP2 POP POP PUSH2 0xA06 JUMP JUMPDEST POP DUP1 PUSH2 0xACD JUMPI PUSH1 0x40 MLOAD PUSH32 0x8C379A000000000000000000000000000000000000000000000000000000000 DUP2 MSTORE PUSH1 0x4 ADD PUSH2 0xAC4 SWAP1 PUSH2 0x181B JUMP JUMPDEST PUSH1 0x40 MLOAD DUP1 SWAP2 SUB SWAP1 REVERT JUMPDEST PUSH1 0x2 PUSH0 SLOAD LT PUSH2 0xB11 JUMPI PUSH1 0x40 MLOAD PUSH32 0x8C379A000000000000000000000000000000000000000000000000000000000 DUP2 MSTORE PUSH1 0x4 ADD PUSH2 0xB08 SWAP1 PUSH2 0x1C19 JUMP JUMPDEST PUSH1 0x40 MLOAD DUP1 SWAP2 SUB SWAP1 REVERT JUMPDEST PUSH8 0xDE0B6B3A7640000 CALLVALUE EQ PUSH2 0xB5B JUMPI PUSH1 0x40 MLOAD PUSH32 0x8C379A000000000000000000000000000000000000000000000000000000000 DUP2 MSTORE PUSH1 0x4 ADD PUSH2 0xB52 SWAP1 PUSH2 0x1C81 JUMP JUMPDEST PUSH1 0x40 MLOAD DUP1 SWAP2 SUB SWAP1 REVERT JUMPDEST PUSH0 PUSH1 0x4 DUP1 SLOAD SWAP1 POP EQ DUP1 PUSH2 0xBD5 JUMPI POP PUSH1 0x4 PUSH0 DUP2 SLOAD DUP2 LT PUSH2 0xB7D JUMPI PUSH2 0xB7C PUSH2 0x1794 JUMP JUMPDEST JUMPDEST SWAP1 PUSH0 MSTORE PUSH1 0x20 PUSH0 KECCAK256 ADD PUSH0 SWAP1 SLOAD SWAP1 PUSH2 0x100 EXP SWAP1 DIV PUSH20 0xFFFFFFFFFFFFFFFFFFFFFFFFFFFFFFFFFFFFFFFF AND PUSH20 0xFFFFFFFFFFFFFFFFFFFFFFFFFFFFFFFFFFFFFFFF AND CALLER PUSH20 0xFFFFFFFFFFFFFFFFFFFFFFFFFFFFFFFFFFFFFFFF AND EQ ISZERO JUMPDEST PUSH2 0xC14 JUMPI PUSH1 0x40 MLOAD PUSH32 0x8C379A000000000000000000000000000000000000000000000000000000000 DUP2 MSTORE PUSH1 0x4 ADD PUSH2 0xC0B SWAP1 PUSH2 0x1CE9 JUMP JUMPDEST PUSH1 0x40 MLOAD DUP1 SWAP2 SUB SWAP1 REVERT JUMPDEST PUSH0 DUP1 SLOAD SUB PUSH2 0xC24 JUMPI TIMESTAMP PUSH1 0x6 DUP2 SWAP1 SSTORE POP JUMPDEST CALLVALUE PUSH1 0x1 PUSH0 DUP3 DUP3 SLOAD PUSH2 0xC35 SWAP2 SWAP1 PUSH2 0x1AD7 JUMP JUMPDEST SWAP3 POP POP DUP2 SWAP1 SSTORE POP PUSH1 0x4 CALLER SWAP1 DUP1 PUSH1 0x1 DUP2 SLOAD ADD DUP1 DUP3 SSTORE DUP1 SWAP2 POP POP PUSH1 0x1 SWAP1 SUB SWAP1 PUSH0 MSTORE PUSH1 0x20 PUSH0 KECCAK256 ADD PUSH0 SWAP1 SWAP2 SWAP1 SWAP2 SWAP1 SWAP2 PUSH2 0x100 EXP DUP2 SLOAD DUP2 PUSH20 0xFFFFFFFFFFFFFFFFFFFFFFFFFFFFFFFFFFFFFFFF MUL NOT AND SWAP1 DUP4 PUSH20 0xFFFFFFFFFFFFFFFFFFFFFFFFFFFFFFFFFFFFFFFF AND MUL OR SWAP1 SSTORE POP PUSH0 DUP1 DUP2 SLOAD DUP1 SWAP3 SWAP2 SWAP1 PUSH2 0xCAD SWAP1 PUSH2 0x1A90 JUMP JUMPDEST SWAP2 SWAP1 POP SSTORE POP POP JUMP JUMPDEST PUSH1 0x7 SLOAD DUP2 JUMP JUMPDEST PUSH1 0x5 SLOAD DUP2 JUMP JUMPDEST PUSH0 DUP1 JUMPDEST PUSH1 0x4 DUP2 LT ISZERO PUSH2 0xD4A JUMPI PUSH1 0xA DUP2 PUSH1 0x4 DUP2 LT PUSH2 0xCE1 JUMPI PUSH2 0xCE0 PUSH2 0x1794 JUMP JUMPDEST JUMPDEST ADD PUSH0 SWAP1 SLOAD SWAP1 PUSH2 0x100 EXP SWAP1 DIV PUSH20 0xFFFFFFFFFFFFFFFFFFFFFFFFFFFFFFFFFFFFFFFF AND PUSH20 0xFFFFFFFFFFFFFFFFFFFFFFFFFFFFFFFFFFFFFFFF AND CALLER PUSH20 0xFFFFFFFFFFFFFFFFFFFFFFFFFFFFFFFFFFFFFFFF AND SUB PUSH2 0xD3D JUMPI PUSH1 0x1 SWAP2 POP PUSH2 0xD4A JUMP JUMPDEST DUP1 DUP1 PUSH1 0x1 ADD SWAP2 POP POP PUSH2 0xCC4 JUMP JUMPDEST POP DUP1 PUSH2 0xD8B JUMPI PUSH1 0x40 MLOAD PUSH32 0x8C379A000000000000000000000000000000000000000000000000000000000 DUP2 MSTORE PUSH1 0x4 ADD PUSH2 0xD82 SWAP1 PUSH2 0x181B JUMP JUMPDEST PUSH1 0x40 MLOAD DUP1 SWAP2 SUB SWAP1 REVERT JUMPDEST PUSH1 0x2 PUSH0 SLOAD EQ PUSH2 0xDCF JUMPI PUSH1 0x40 MLOAD PUSH32 0x8C379A000000000000000000000000000000000000000000000000000000000 DUP2 MSTORE PUSH1 0x4 ADD PUSH2 0xDC6 SWAP1 PUSH2 0x1883 JUMP JUMPDEST PUSH1 0x40 MLOAD DUP1 SWAP2 SUB SWAP1 REVERT JUMPDEST PUSH0 DUP1 SHL PUSH1 0x2 PUSH0 CALLER PUSH20 0xFFFFFFFFFFFFFFFFFFFFFFFFFFFFFFFFFFFFFFFF AND PUSH20 0xFFFFFFFFFFFFFFFFFFFFFFFFFFFFFFFFFFFFFFFF AND DUP2 MSTORE PUSH1 0x20 ADD SWAP1 DUP2 MSTORE PUSH1 0x20 ADD PUSH0 KECCAK256 SLOAD EQ PUSH2 0xE50 JUMPI PUSH1 0x40 MLOAD PUSH32 0x8C379A000000000000000000000000000000000000000000000000000000000 DUP2 MSTORE PUSH1 0x4 ADD PUSH2 0xE47 SWAP1 PUSH2 0x1D51 JUMP JUMPDEST PUSH1 0x40 MLOAD DUP1 SWAP2 SUB SWAP1 REVERT JUMPDEST PUSH1 0x9 PUSH0 SWAP1 SLOAD SWAP1 PUSH2 0x100 EXP SWAP1 DIV PUSH20 0xFFFFFFFFFFFFFFFFFFFFFFFFFFFFFFFFFFFFFFFF AND PUSH20 0xFFFFFFFFFFFFFFFFFFFFFFFFFFFFFFFFFFFFFFFF AND PUSH4 0xF14FCBC8 DUP4 PUSH1 0x40 MLOAD DUP3 PUSH4 0xFFFFFFFF AND PUSH1 0xE0 SHL DUP2 MSTORE PUSH1 0x4 ADD PUSH2 0xEAA SWAP2 SWAP1 PUSH2 0x169A JUMP JUMPDEST PUSH0 PUSH1 0x40 MLOAD DUP1 DUP4 SUB DUP2 PUSH0 DUP8 DUP1 EXTCODESIZE ISZERO DUP1 ISZERO PUSH2 0xEC1 JUMPI PUSH0 DUP1 REVERT JUMPDEST POP GAS CALL ISZERO DUP1 ISZERO PUSH2 0xED3 JUMPI RETURNDATASIZE PUSH0 DUP1 RETURNDATACOPY RETURNDATASIZE PUSH0 REVERT JUMPDEST POP POP POP POP DUP2 PUSH1 0x2 PUSH0 CALLER PUSH20 0xFFFFFFFFFFFFFFFFFFFFFFFFFFFFFFFFFFFFFFFF AND PUSH20 0xFFFFFFFFFFFFFFFFFFFFFFFFFFFFFFFFFFFFFFFF AND DUP2 MSTORE PUSH1 0x20 ADD SWAP1 DUP2 MSTORE PUSH1 0x20 ADD PUSH0 KECCAK256 DUP2 SWAP1 SSTORE POP POP POP JUMP JUMPDEST PUSH0 PUSH1 0x3 PUSH0 PUSH1 0x4 PUSH0 DUP2 SLOAD DUP2 LT PUSH2 0xF35 JUMPI PUSH2 0xF34 PUSH2 0x1794 JUMP JUMPDEST JUMPDEST SWAP1 PUSH0 MSTORE PUSH1 0x20 PUSH0 KECCAK256 ADD PUSH0 SWAP1 SLOAD SWAP1 PUSH2 0x100 EXP SWAP1 DIV PUSH20 0xFFFFFFFFFFFFFFFFFFFFFFFFFFFFFFFFFFFFFFFF AND PUSH20 0xFFFFFFFFFFFFFFFFFFFFFFFFFFFFFFFFFFFFFFFF AND PUSH20 0xFFFFFFFFFFFFFFFFFFFFFFFFFFFFFFFFFFFFFFFF AND DUP2 MSTORE PUSH1 0x20 ADD SWAP1 DUP2 MSTORE PUSH1 0x20 ADD PUSH0 KECCAK256 SLOAD SWAP1 POP PUSH0 PUSH1 0x3 PUSH0 PUSH1 0x4 PUSH1 0x1 DUP2 SLOAD DUP2 LT PUSH2 0xFB2 JUMPI PUSH2 0xFB1 PUSH2 0x1794 JUMP JUMPDEST JUMPDEST SWAP1 PUSH0 MSTORE PUSH1 0x20 PUSH0 KECCAK256 ADD PUSH0 SWAP1 SLOAD SWAP1 PUSH2 0x100 EXP SWAP1 DIV PUSH20 0xFFFFFFFFFFFFFFFFFFFFFFFFFFFFFFFFFFFFFFFF AND PUSH20 0xFFFFFFFFFFFFFFFFFFFFFFFFFFFFFFFFFFFFFFFF AND PUSH20 0xFFFFFFFFFFFFFFFFFFFFFFFFFFFFFFFFFFFFFFFF AND DUP2 MSTORE PUSH1 0x20 ADD SWAP1 DUP2 MSTORE PUSH1 0x20 ADD PUSH0 KECCAK256 SLOAD SWAP1 POP PUSH0 PUSH1 0x4 PUSH0 DUP2 SLOAD DUP2 LT PUSH2 0x102B JUMPI PUSH2 0x102A PUSH2 0x1794 JUMP JUMPDEST JUMPDEST SWAP1 PUSH0 MSTORE PUSH1 0x20 PUSH0 KECCAK256 ADD PUSH0 SWAP1 SLOAD SWAP1 PUSH2 0x100 EXP SWAP1 DIV PUSH20 0xFFFFFFFFFFFFFFFFFFFFFFFFFFFFFFFFFFFFFFFF AND SWAP1 POP PUSH0 PUSH1 0x4 PUSH1 0x1 DUP2 SLOAD DUP2 LT PUSH2 0x106B JUMPI PUSH2 0x106A PUSH2 0x1794 JUMP JUMPDEST JUMPDEST SWAP1 PUSH0 MSTORE PUSH1 0x20 PUSH0 KECCAK256 ADD PUSH0 SWAP1 SLOAD SWAP1 PUSH2 0x100 EXP SWAP1 DIV PUSH20 0xFFFFFFFFFFFFFFFFFFFFFFFFFFFFFFFFFFFFFFFF AND SWAP1 POP DUP3 PUSH1 0x5 PUSH1 0x1 DUP7 PUSH2 0x10A5 SWAP2 SWAP1 PUSH2 0x1AD7 JUMP JUMPDEST PUSH2 0x10AF SWAP2 SWAP1 PUSH2 0x1D6F JUMP JUMPDEST EQ DUP1 PUSH2 0x10D2 JUMPI POP DUP3 PUSH1 0x5 PUSH1 0x3 DUP7 PUSH2 0x10C6 SWAP2 SWAP1 PUSH2 0x1AD7 JUMP JUMPDEST PUSH2 0x10D0 SWAP2 SWAP1 PUSH2 0x1D6F JUMP JUMPDEST EQ JUMPDEST ISZERO PUSH2 0x1122 JUMPI DUP1 PUSH20 0xFFFFFFFFFFFFFFFFFFFFFFFFFFFFFFFFFFFFFFFF AND PUSH2 0x8FC PUSH1 0x1 SLOAD SWAP1 DUP2 ISZERO MUL SWAP1 PUSH1 0x40 MLOAD PUSH0 PUSH1 0x40 MLOAD DUP1 DUP4 SUB DUP2 DUP6 DUP9 DUP9 CALL SWAP4 POP POP POP POP ISZERO DUP1 ISZERO PUSH2 0x111C JUMPI RETURNDATASIZE PUSH0 DUP1 RETURNDATACOPY RETURNDATASIZE PUSH0 REVERT JUMPDEST POP PUSH2 0x1255 JUMP JUMPDEST DUP4 PUSH1 0x5 PUSH1 0x1 DUP6 PUSH2 0x1132 SWAP2 SWAP1 PUSH2 0x1AD7 JUMP JUMPDEST PUSH2 0x113C SWAP2 SWAP1 PUSH2 0x1D6F JUMP JUMPDEST EQ DUP1 PUSH2 0x115F JUMPI POP DUP4 PUSH1 0x5 PUSH1 0x3 DUP6 PUSH2 0x1153 SWAP2 SWAP1 PUSH2 0x1AD7 JUMP JUMPDEST PUSH2 0x115D SWAP2 SWAP1 PUSH2 0x1D6F JUMP JUMPDEST EQ JUMPDEST ISZERO PUSH2 0x11AF JUMPI DUP2 PUSH20 0xFFFFFFFFFFFFFFFFFFFFFFFFFFFFFFFFFFFFFFFF AND PUSH2 0x8FC PUSH1 0x1 SLOAD SWAP1 DUP2 ISZERO MUL SWAP1 PUSH1 0x40 MLOAD PUSH0 PUSH1 0x40 MLOAD DUP1 DUP4 SUB DUP2 DUP6 DUP9 DUP9 CALL SWAP4 POP POP POP POP ISZERO DUP1 ISZERO PUSH2 0x11A9 JUMPI RETURNDATASIZE PUSH0 DUP1 RETURNDATACOPY RETURNDATASIZE PUSH0 REVERT JUMPDEST POP PUSH2 0x1254 JUMP JUMPDEST DUP2 PUSH20 0xFFFFFFFFFFFFFFFFFFFFFFFFFFFFFFFFFFFFFFFF AND PUSH2 0x8FC PUSH1 0x2 PUSH1 0x1 SLOAD PUSH2 0x11D8 SWAP2 SWAP1 PUSH2 0x1B9F JUMP JUMPDEST SWAP1 DUP2 ISZERO MUL SWAP1 PUSH1 0x40 MLOAD PUSH0 PUSH1 0x40 MLOAD DUP1 DUP4 SUB DUP2 DUP6 DUP9 DUP9 CALL SWAP4 POP POP POP POP ISZERO DUP1 ISZERO PUSH2 0x1200 JUMPI RETURNDATASIZE PUSH0 DUP1 RETURNDATACOPY RETURNDATASIZE PUSH0 REVERT JUMPDEST POP DUP1 PUSH20 0xFFFFFFFFFFFFFFFFFFFFFFFFFFFFFFFFFFFFFFFF AND PUSH2 0x8FC PUSH1 0x2 PUSH1 0x1 SLOAD PUSH2 0x122A SWAP2 SWAP1 PUSH2 0x1B9F JUMP JUMPDEST SWAP1 DUP2 ISZERO MUL SWAP1 PUSH1 0x40 MLOAD PUSH0 PUSH1 0x40 MLOAD DUP1 DUP4 SUB DUP2 DUP6 DUP9 DUP9 CALL SWAP4 POP POP POP POP ISZERO DUP1 ISZERO PUSH2 0x1252 JUMPI RETURNDATASIZE PUSH0 DUP1 RETURNDATACOPY RETURNDATASIZE PUSH0 REVERT JUMPDEST POP JUMPDEST JUMPDEST PUSH2 0x125D PUSH2 0x1263 JUMP JUMPDEST POP POP POP POP JUMP JUMPDEST PUSH0 PUSH1 0x1 DUP2 SWAP1 SSTORE POP PUSH0 DUP1 DUP2 SWAP1 SSTORE POP PUSH0 PUSH1 0x5 DUP2 SWAP1 SSTORE POP PUSH0 PUSH1 0x4 DUP1 SLOAD SWAP1 POP GT ISZERO PUSH2 0x1300 JUMPI PUSH1 0x2 PUSH0 PUSH1 0x4 PUSH0 DUP2 SLOAD DUP2 LT PUSH2 0x129B JUMPI PUSH2 0x129A PUSH2 0x1794 JUMP JUMPDEST JUMPDEST SWAP1 PUSH0 MSTORE PUSH1 0x20 PUSH0 KECCAK256 ADD PUSH0 SWAP1 SLOAD SWAP1 PUSH2 0x100 EXP SWAP1 DIV PUSH20 0xFFFFFFFFFFFFFFFFFFFFFFFFFFFFFFFFFFFFFFFF AND PUSH20 0xFFFFFFFFFFFFFFFFFFFFFFFFFFFFFFFFFFFFFFFF AND PUSH20 0xFFFFFFFFFFFFFFFFFFFFFFFFFFFFFFFFFFFFFFFF AND DUP2 MSTORE PUSH1 0x20 ADD SWAP1 DUP2 MSTORE PUSH1 0x20 ADD PUSH0 KECCAK256 PUSH0 SWAP1 SSTORE JUMPDEST PUSH1 0x1 PUSH1 0x4 DUP1 SLOAD SWAP1 POP GT ISZERO PUSH2 0x138B JUMPI PUSH1 0x2 PUSH0 PUSH1 0x4 PUSH1 0x1 DUP2 SLOAD DUP2 LT PUSH2 0x1326 JUMPI PUSH2 0x1325 PUSH2 0x1794 JUMP JUMPDEST JUMPDEST SWAP1 PUSH0 MSTORE PUSH1 0x20 PUSH0 KECCAK256 ADD PUSH0 SWAP1 SLOAD SWAP1 PUSH2 0x100 EXP SWAP1 DIV PUSH20 0xFFFFFFFFFFFFFFFFFFFFFFFFFFFFFFFFFFFFFFFF AND PUSH20 0xFFFFFFFFFFFFFFFFFFFFFFFFFFFFFFFFFFFFFFFF AND PUSH20 0xFFFFFFFFFFFFFFFFFFFFFFFFFFFFFFFFFFFFFFFF AND DUP2 MSTORE PUSH1 0x20 ADD SWAP1 DUP2 MSTORE PUSH1 0x20 ADD PUSH0 KECCAK256 PUSH0 SWAP1 SSTORE JUMPDEST PUSH0 PUSH1 0x4 DUP1 SLOAD SWAP1 POP GT ISZERO PUSH2 0x1414 JUMPI PUSH1 0x3 PUSH0 PUSH1 0x4 PUSH0 DUP2 SLOAD DUP2 LT PUSH2 0x13AF JUMPI PUSH2 0x13AE PUSH2 0x1794 JUMP JUMPDEST JUMPDEST SWAP1 PUSH0 MSTORE PUSH1 0x20 PUSH0 KECCAK256 ADD PUSH0 SWAP1 SLOAD SWAP1 PUSH2 0x100 EXP SWAP1 DIV PUSH20 0xFFFFFFFFFFFFFFFFFFFFFFFFFFFFFFFFFFFFFFFF AND PUSH20 0xFFFFFFFFFFFFFFFFFFFFFFFFFFFFFFFFFFFFFFFF AND PUSH20 0xFFFFFFFFFFFFFFFFFFFFFFFFFFFFFFFFFFFFFFFF AND DUP2 MSTORE PUSH1 0x20 ADD SWAP1 DUP2 MSTORE PUSH1 0x20 ADD PUSH0 KECCAK256 PUSH0 SWAP1 SSTORE JUMPDEST PUSH1 0x1 PUSH1 0x4 DUP1 SLOAD SWAP1 POP GT ISZERO PUSH2 0x149F JUMPI PUSH1 0x3 PUSH0 PUSH1 0x4 PUSH1 0x1 DUP2 SLOAD DUP2 LT PUSH2 0x143A JUMPI PUSH2 0x1439 PUSH2 0x1794 JUMP JUMPDEST JUMPDEST SWAP1 PUSH0 MSTORE PUSH1 0x20 PUSH0 KECCAK256 ADD PUSH0 SWAP1 SLOAD SWAP1 PUSH2 0x100 EXP SWAP1 DIV PUSH20 0xFFFFFFFFFFFFFFFFFFFFFFFFFFFFFFFFFFFFFFFF AND PUSH20 0xFFFFFFFFFFFFFFFFFFFFFFFFFFFFFFFFFFFFFFFF AND PUSH20 0xFFFFFFFFFFFFFFFFFFFFFFFFFFFFFFFFFFFFFFFF AND DUP2 MSTORE PUSH1 0x20 ADD SWAP1 DUP2 MSTORE PUSH1 0x20 ADD PUSH0 KECCAK256 PUSH0 SWAP1 SSTORE JUMPDEST PUSH1 0x4 PUSH0 PUSH2 0x14AC SWAP2 SWAP1 PUSH2 0x14B3 JUMP JUMPDEST PUSH1 0x6 PUSH0 SWAP1 SSTORE JUMP JUMPDEST POP DUP1 SLOAD PUSH0 DUP3 SSTORE SWAP1 PUSH0 MSTORE PUSH1 0x20 PUSH0 KECCAK256 SWAP1 DUP2 ADD SWAP1 PUSH2 0x14CE SWAP2 SWAP1 PUSH2 0x14D1 JUMP JUMPDEST POP JUMP JUMPDEST JUMPDEST DUP1 DUP3 GT ISZERO PUSH2 0x14E8 JUMPI PUSH0 DUP2 PUSH0 SWAP1 SSTORE POP PUSH1 0x1 ADD PUSH2 0x14D2 JUMP JUMPDEST POP SWAP1 JUMP JUMPDEST PUSH0 DUP1 REVERT JUMPDEST PUSH0 DUP2 SWAP1 POP SWAP2 SWAP1 POP JUMP JUMPDEST PUSH2 0x1502 DUP2 PUSH2 0x14F0 JUMP JUMPDEST DUP2 EQ PUSH2 0x150C JUMPI PUSH0 DUP1 REVERT JUMPDEST POP JUMP JUMPDEST PUSH0 DUP2 CALLDATALOAD SWAP1 POP PUSH2 0x151D DUP2 PUSH2 0x14F9 JUMP JUMPDEST SWAP3 SWAP2 POP POP JUMP JUMPDEST PUSH0 DUP1 PUSH1 0x40 DUP4 DUP6 SUB SLT ISZERO PUSH2 0x1539 JUMPI PUSH2 0x1538 PUSH2 0x14EC JUMP JUMPDEST JUMPDEST PUSH0 PUSH2 0x1546 DUP6 DUP3 DUP7 ADD PUSH2 0x150F JUMP JUMPDEST SWAP3 POP POP PUSH1 0x20 PUSH2 0x1557 DUP6 DUP3 DUP7 ADD PUSH2 0x150F JUMP JUMPDEST SWAP2 POP POP SWAP3 POP SWAP3 SWAP1 POP JUMP JUMPDEST PUSH2 0x156A DUP2 PUSH2 0x14F0 JUMP JUMPDEST DUP3 MSTORE POP POP JUMP JUMPDEST PUSH0 PUSH1 0x20 DUP3 ADD SWAP1 POP PUSH2 0x1583 PUSH0 DUP4 ADD DUP5 PUSH2 0x1561 JUMP JUMPDEST SWAP3 SWAP2 POP POP JUMP JUMPDEST PUSH0 PUSH20 0xFFFFFFFFFFFFFFFFFFFFFFFFFFFFFFFFFFFFFFFF DUP3 AND SWAP1 POP SWAP2 SWAP1 POP JUMP JUMPDEST PUSH0 DUP2 SWAP1 POP SWAP2 SWAP1 POP JUMP JUMPDEST PUSH0 PUSH2 0x15CB PUSH2 0x15C6 PUSH2 0x15C1 DUP5 PUSH2 0x1589 JUMP JUMPDEST PUSH2 0x15A8 JUMP JUMPDEST PUSH2 0x1589 JUMP JUMPDEST SWAP1 POP SWAP2 SWAP1 POP JUMP JUMPDEST PUSH0 PUSH2 0x15DC DUP3 PUSH2 0x15B1 JUMP JUMPDEST SWAP1 POP SWAP2 SWAP1 POP JUMP JUMPDEST PUSH0 PUSH2 0x15ED DUP3 PUSH2 0x15D2 JUMP JUMPDEST SWAP1 POP SWAP2 SWAP1 POP JUMP JUMPDEST PUSH2 0x15FD DUP2 PUSH2 0x15E3 JUMP JUMPDEST DUP3 MSTORE POP POP JUMP JUMPDEST PUSH0 PUSH1 0x20 DUP3 ADD SWAP1 POP PUSH2 0x1616 PUSH0 DUP4 ADD DUP5 PUSH2 0x15F4 JUMP JUMPDEST SWAP3 SWAP2 POP POP JUMP JUMPDEST PUSH0 PUSH2 0x1626 DUP3 PUSH2 0x1589 JUMP JUMPDEST SWAP1 POP SWAP2 SWAP1 POP JUMP JUMPDEST PUSH2 0x1636 DUP2 PUSH2 0x161C JUMP JUMPDEST DUP2 EQ PUSH2 0x1640 JUMPI PUSH0 DUP1 REVERT JUMPDEST POP JUMP JUMPDEST PUSH0 DUP2 CALLDATALOAD SWAP1 POP PUSH2 0x1651 DUP2 PUSH2 0x162D JUMP JUMPDEST SWAP3 SWAP2 POP POP JUMP JUMPDEST PUSH0 PUSH1 0x20 DUP3 DUP5 SUB SLT ISZERO PUSH2 0x166C JUMPI PUSH2 0x166B PUSH2 0x14EC JUMP JUMPDEST JUMPDEST PUSH0 PUSH2 0x1679 DUP5 DUP3 DUP6 ADD PUSH2 0x1643 JUMP JUMPDEST SWAP2 POP POP SWAP3 SWAP2 POP POP JUMP JUMPDEST PUSH0 DUP2 SWAP1 POP SWAP2 SWAP1 POP JUMP JUMPDEST PUSH2 0x1694 DUP2 PUSH2 0x1682 JUMP JUMPDEST DUP3 MSTORE POP POP JUMP JUMPDEST PUSH0 PUSH1 0x20 DUP3 ADD SWAP1 POP PUSH2 0x16AD PUSH0 DUP4 ADD DUP5 PUSH2 0x168B JUMP JUMPDEST SWAP3 SWAP2 POP POP JUMP JUMPDEST PUSH0 PUSH1 0x20 DUP3 DUP5 SUB SLT ISZERO PUSH2 0x16C8 JUMPI PUSH2 0x16C7 PUSH2 0x14EC JUMP JUMPDEST JUMPDEST PUSH0 PUSH2 0x16D5 DUP5 DUP3 DUP6 ADD PUSH2 0x150F JUMP JUMPDEST SWAP2 POP POP SWAP3 SWAP2 POP POP JUMP JUMPDEST PUSH2 0x16E7 DUP2 PUSH2 0x161C JUMP JUMPDEST DUP3 MSTORE POP POP JUMP JUMPDEST PUSH0 PUSH1 0x20 DUP3 ADD SWAP1 POP PUSH2 0x1700 PUSH0 DUP4 ADD DUP5 PUSH2 0x16DE JUMP JUMPDEST SWAP3 SWAP2 POP POP JUMP JUMPDEST PUSH0 PUSH2 0x1710 DUP3 PUSH2 0x15D2 JUMP JUMPDEST SWAP1 POP SWAP2 SWAP1 POP JUMP JUMPDEST PUSH2 0x1720 DUP2 PUSH2 0x1706 JUMP JUMPDEST DUP3 MSTORE POP POP JUMP JUMPDEST PUSH0 PUSH1 0x20 DUP3 ADD SWAP1 POP PUSH2 0x1739 PUSH0 DUP4 ADD DUP5 PUSH2 0x1717 JUMP JUMPDEST SWAP3 SWAP2 POP POP JUMP JUMPDEST PUSH2 0x1748 DUP2 PUSH2 0x1682 JUMP JUMPDEST DUP2 EQ PUSH2 0x1752 JUMPI PUSH0 DUP1 REVERT JUMPDEST POP JUMP JUMPDEST PUSH0 DUP2 CALLDATALOAD SWAP1 POP PUSH2 0x1763 DUP2 PUSH2 0x173F JUMP JUMPDEST SWAP3 SWAP2 POP POP JUMP JUMPDEST PUSH0 PUSH1 0x20 DUP3 DUP5 SUB SLT ISZERO PUSH2 0x177E JUMPI PUSH2 0x177D PUSH2 0x14EC JUMP JUMPDEST JUMPDEST PUSH0 PUSH2 0x178B DUP5 DUP3 DUP6 ADD PUSH2 0x1755 JUMP JUMPDEST SWAP2 POP POP SWAP3 SWAP2 POP POP JUMP JUMPDEST PUSH32 0x4E487B7100000000000000000000000000000000000000000000000000000000 PUSH0 MSTORE PUSH1 0x32 PUSH1 0x4 MSTORE PUSH1 0x24 PUSH0 REVERT JUMPDEST PUSH0 DUP3 DUP3 MSTORE PUSH1 0x20 DUP3 ADD SWAP1 POP SWAP3 SWAP2 POP POP JUMP JUMPDEST PUSH32 0x596F7520617265206E6F7420617574686F72697A656420746F20706C61790000 PUSH0 DUP3 ADD MSTORE POP JUMP JUMPDEST PUSH0 PUSH2 0x1805 PUSH1 0x1E DUP4 PUSH2 0x17C1 JUMP JUMPDEST SWAP2 POP PUSH2 0x1810 DUP3 PUSH2 0x17D1 JUMP JUMPDEST PUSH1 0x20 DUP3 ADD SWAP1 POP SWAP2 SWAP1 POP JUMP JUMPDEST PUSH0 PUSH1 0x20 DUP3 ADD SWAP1 POP DUP2 DUP2 SUB PUSH0 DUP4 ADD MSTORE PUSH2 0x1832 DUP2 PUSH2 0x17F9 JUMP JUMPDEST SWAP1 POP SWAP2 SWAP1 POP JUMP JUMPDEST PUSH32 0x47616D6520686173206E6F742073746172746564207965740000000000000000 PUSH0 DUP3 ADD MSTORE POP JUMP JUMPDEST PUSH0 PUSH2 0x186D PUSH1 0x18 DUP4 PUSH2 0x17C1 JUMP JUMPDEST SWAP2 POP PUSH2 0x1878 DUP3 PUSH2 0x1839 JUMP JUMPDEST PUSH1 0x20 DUP3 ADD SWAP1 POP SWAP2 SWAP1 POP JUMP JUMPDEST PUSH0 PUSH1 0x20 DUP3 ADD SWAP1 POP DUP2 DUP2 SUB PUSH0 DUP4 ADD MSTORE PUSH2 0x189A DUP2 PUSH2 0x1861 JUMP JUMPDEST SWAP1 POP SWAP2 SWAP1 POP JUMP JUMPDEST PUSH32 0x4E6F2063686F69636520636F6D6D697474656400000000000000000000000000 PUSH0 DUP3 ADD MSTORE POP JUMP JUMPDEST PUSH0 PUSH2 0x18D5 PUSH1 0x13 DUP4 PUSH2 0x17C1 JUMP JUMPDEST SWAP2 POP PUSH2 0x18E0 DUP3 PUSH2 0x18A1 JUMP JUMPDEST PUSH1 0x20 DUP3 ADD SWAP1 POP SWAP2 SWAP1 POP JUMP JUMPDEST PUSH0 PUSH1 0x20 DUP3 ADD SWAP1 POP DUP2 DUP2 SUB PUSH0 DUP4 ADD MSTORE PUSH2 0x1902 DUP2 PUSH2 0x18C9 JUMP JUMPDEST SWAP1 POP SWAP2 SWAP1 POP JUMP JUMPDEST PUSH32 0x496E76616C69642063686F696365000000000000000000000000000000000000 PUSH0 DUP3 ADD MSTORE POP JUMP JUMPDEST PUSH0 PUSH2 0x193D PUSH1 0xE DUP4 PUSH2 0x17C1 JUMP JUMPDEST SWAP2 POP PUSH2 0x1948 DUP3 PUSH2 0x1909 JUMP JUMPDEST PUSH1 0x20 DUP3 ADD SWAP1 POP SWAP2 SWAP1 POP JUMP JUMPDEST PUSH0 PUSH1 0x20 DUP3 ADD SWAP1 POP DUP2 DUP2 SUB PUSH0 DUP4 ADD MSTORE PUSH2 0x196A DUP2 PUSH2 0x1931 JUMP JUMPDEST SWAP1 POP SWAP2 SWAP1 POP JUMP JUMPDEST PUSH0 DUP2 SWAP1 POP SWAP2 SWAP1 POP JUMP JUMPDEST PUSH2 0x198B PUSH2 0x1986 DUP3 PUSH2 0x14F0 JUMP JUMPDEST PUSH2 0x1971 JUMP JUMPDEST DUP3 MSTORE POP POP JUMP JUMPDEST PUSH0 PUSH2 0x199C DUP3 DUP6 PUSH2 0x197A JUMP JUMPDEST PUSH1 0x20 DUP3 ADD SWAP2 POP PUSH2 0x19AC DUP3 DUP5 PUSH2 0x197A JUMP JUMPDEST PUSH1 0x20 DUP3 ADD SWAP2 POP DUP2 SWAP1 POP SWAP4 SWAP3 POP POP POP JUMP JUMPDEST PUSH0 DUP2 MLOAD SWAP1 POP PUSH2 0x19CA DUP2 PUSH2 0x173F JUMP JUMPDEST SWAP3 SWAP2 POP POP JUMP JUMPDEST PUSH0 PUSH1 0x20 DUP3 DUP5 SUB SLT ISZERO PUSH2 0x19E5 JUMPI PUSH2 0x19E4 PUSH2 0x14EC JUMP JUMPDEST JUMPDEST PUSH0 PUSH2 0x19F2 DUP5 DUP3 DUP6 ADD PUSH2 0x19BC JUMP JUMPDEST SWAP2 POP POP SWAP3 SWAP2 POP POP JUMP JUMPDEST PUSH32 0x52657665616C20646F6573206E6F74206D6174636820636F6D6D69746D656E74 PUSH0 DUP3 ADD MSTORE POP JUMP JUMPDEST PUSH0 PUSH2 0x1A2F PUSH1 0x20 DUP4 PUSH2 0x17C1 JUMP JUMPDEST SWAP2 POP PUSH2 0x1A3A DUP3 PUSH2 0x19FB JUMP JUMPDEST PUSH1 0x20 DUP3 ADD SWAP1 POP SWAP2 SWAP1 POP JUMP JUMPDEST PUSH0 PUSH1 0x20 DUP3 ADD SWAP1 POP DUP2 DUP2 SUB PUSH0 DUP4 ADD MSTORE PUSH2 0x1A5C DUP2 PUSH2 0x1A23 JUMP JUMPDEST SWAP1 POP SWAP2 SWAP1 POP JUMP JUMPDEST PUSH32 0x4E487B7100000000000000000000000000000000000000000000000000000000 PUSH0 MSTORE PUSH1 0x11 PUSH1 0x4 MSTORE PUSH1 0x24 PUSH0 REVERT JUMPDEST PUSH0 PUSH2 0x1A9A DUP3 PUSH2 0x14F0 JUMP JUMPDEST SWAP2 POP PUSH32 0xFFFFFFFFFFFFFFFFFFFFFFFFFFFFFFFFFFFFFFFFFFFFFFFFFFFFFFFFFFFFFFFF DUP3 SUB PUSH2 0x1ACC JUMPI PUSH2 0x1ACB PUSH2 0x1A63 JUMP JUMPDEST JUMPDEST PUSH1 0x1 DUP3 ADD SWAP1 POP SWAP2 SWAP1 POP JUMP JUMPDEST PUSH0 PUSH2 0x1AE1 DUP3 PUSH2 0x14F0 JUMP JUMPDEST SWAP2 POP PUSH2 0x1AEC DUP4 PUSH2 0x14F0 JUMP JUMPDEST SWAP3 POP DUP3 DUP3 ADD SWAP1 POP DUP1 DUP3 GT ISZERO PUSH2 0x1B04 JUMPI PUSH2 0x1B03 PUSH2 0x1A63 JUMP JUMPDEST JUMPDEST SWAP3 SWAP2 POP POP JUMP JUMPDEST PUSH32 0x47616D6520686173206E6F742074696D6564206F757420796574000000000000 PUSH0 DUP3 ADD MSTORE POP JUMP JUMPDEST PUSH0 PUSH2 0x1B3E PUSH1 0x1A DUP4 PUSH2 0x17C1 JUMP JUMPDEST SWAP2 POP PUSH2 0x1B49 DUP3 PUSH2 0x1B0A JUMP JUMPDEST PUSH1 0x20 DUP3 ADD SWAP1 POP SWAP2 SWAP1 POP JUMP JUMPDEST PUSH0 PUSH1 0x20 DUP3 ADD SWAP1 POP DUP2 DUP2 SUB PUSH0 DUP4 ADD MSTORE PUSH2 0x1B6B DUP2 PUSH2 0x1B32 JUMP JUMPDEST SWAP1 POP SWAP2 SWAP1 POP JUMP JUMPDEST PUSH32 0x4E487B7100000000000000000000000000000000000000000000000000000000 PUSH0 MSTORE PUSH1 0x12 PUSH1 0x4 MSTORE PUSH1 0x24 PUSH0 REVERT JUMPDEST PUSH0 PUSH2 0x1BA9 DUP3 PUSH2 0x14F0 JUMP JUMPDEST SWAP2 POP PUSH2 0x1BB4 DUP4 PUSH2 0x14F0 JUMP JUMPDEST SWAP3 POP DUP3 PUSH2 0x1BC4 JUMPI PUSH2 0x1BC3 PUSH2 0x1B72 JUMP JUMPDEST JUMPDEST DUP3 DUP3 DIV SWAP1 POP SWAP3 SWAP2 POP POP JUMP JUMPDEST PUSH32 0x47616D6520697320616C72656164792066756C6C000000000000000000000000 PUSH0 DUP3 ADD MSTORE POP JUMP JUMPDEST PUSH0 PUSH2 0x1C03 PUSH1 0x14 DUP4 PUSH2 0x17C1 JUMP JUMPDEST SWAP2 POP PUSH2 0x1C0E DUP3 PUSH2 0x1BCF JUMP JUMPDEST PUSH1 0x20 DUP3 ADD SWAP1 POP SWAP2 SWAP1 POP JUMP JUMPDEST PUSH0 PUSH1 0x20 DUP3 ADD SWAP1 POP DUP2 DUP2 SUB PUSH0 DUP4 ADD MSTORE PUSH2 0x1C30 DUP2 PUSH2 0x1BF7 JUMP JUMPDEST SWAP1 POP SWAP2 SWAP1 POP JUMP JUMPDEST PUSH32 0x4D7573742073656E642065786163746C79203120455448000000000000000000 PUSH0 DUP3 ADD MSTORE POP JUMP JUMPDEST PUSH0 PUSH2 0x1C6B PUSH1 0x17 DUP4 PUSH2 0x17C1 JUMP JUMPDEST SWAP2 POP PUSH2 0x1C76 DUP3 PUSH2 0x1C37 JUMP JUMPDEST PUSH1 0x20 DUP3 ADD SWAP1 POP SWAP2 SWAP1 POP JUMP JUMPDEST PUSH0 PUSH1 0x20 DUP3 ADD SWAP1 POP DUP2 DUP2 SUB PUSH0 DUP4 ADD MSTORE PUSH2 0x1C98 DUP2 PUSH2 0x1C5F JUMP JUMPDEST SWAP1 POP SWAP2 SWAP1 POP JUMP JUMPDEST PUSH32 0x506C6179657220616C7265616479206A6F696E65640000000000000000000000 PUSH0 DUP3 ADD MSTORE POP JUMP JUMPDEST PUSH0 PUSH2 0x1CD3 PUSH1 0x15 DUP4 PUSH2 0x17C1 JUMP JUMPDEST SWAP2 POP PUSH2 0x1CDE DUP3 PUSH2 0x1C9F JUMP JUMPDEST PUSH1 0x20 DUP3 ADD SWAP1 POP SWAP2 SWAP1 POP JUMP JUMPDEST PUSH0 PUSH1 0x20 DUP3 ADD SWAP1 POP DUP2 DUP2 SUB PUSH0 DUP4 ADD MSTORE PUSH2 0x1D00 DUP2 PUSH2 0x1CC7 JUMP JUMPDEST SWAP1 POP SWAP2 SWAP1 POP JUMP JUMPDEST PUSH32 0x43686F69636520616C726561647920636F6D6D69747465640000000000000000 PUSH0 DUP3 ADD MSTORE POP JUMP JUMPDEST PUSH0 PUSH2 0x1D3B PUSH1 0x18 DUP4 PUSH2 0x17C1 JUMP JUMPDEST SWAP2 POP PUSH2 0x1D46 DUP3 PUSH2 0x1D07 JUMP JUMPDEST PUSH1 0x20 DUP3 ADD SWAP1 POP SWAP2 SWAP1 POP JUMP JUMPDEST PUSH0 PUSH1 0x20 DUP3 ADD SWAP1 POP DUP2 DUP2 SUB PUSH0 DUP4 ADD MSTORE PUSH2 0x1D68 DUP2 PUSH2 0x1D2F JUMP JUMPDEST SWAP1 POP SWAP2 SWAP1 POP JUMP JUMPDEST PUSH0 PUSH2 0x1D79 DUP3 PUSH2 0x14F0 JUMP JUMPDEST SWAP2 POP PUSH2 0x1D84 DUP4 PUSH2 0x14F0 JUMP JUMPDEST SWAP3 POP DUP3 PUSH2 0x1D94 JUMPI PUSH2 0x1D93 PUSH2 0x1B72 JUMP JUMPDEST JUMPDEST DUP3 DUP3 MOD SWAP1 POP SWAP3 SWAP2 POP POP JUMP INVALID LOG2 PUSH5 0x6970667358 0x22 SLT KECCAK256 0xC1 PUSH18 0xDB8289DFEA867249A626417C198DE1F6D598 0xE1 LOG4 0x2D 0xC6 0xB0 SWAP4 0xD1 PUSH12 0xCBA29C7864736F6C63430008 BYTE STOP CALLER "
				},
				"gasEstimates": {
					"creation": {
						"codeDepositCost": "1527400",
						"executionCost": "infinite",
						"totalCost": "infinite"
					},
					"external": {
						"activePlayers(uint256)": "4989",
						"commitPlayerChoice(bytes32)": "infinite",
						"commitRevealModule()": "infinite",
						"computeCommitmentHash(uint256,uint256)": "infinite",
						"gameDuration()": "2469",
						"gameStartTimestamp()": "2448",
						"inputCount()": "2491",
						"joinGame()": "infinite",
						"playerChoices(address)": "2891",
						"playerCount()": "2470",
						"playerHashes(address)": "2825",
						"prizePool()": "2470",
						"revealPlayerChoice(uint256,uint256)": "infinite",
						"timeModule()": "infinite",
						"withdrawIfGameTimedOut()": "infinite"
					},
					"internal": {
						"determineWinnerAndReward()": "infinite",
						"resetGame()": "infinite"
					}
				},
				"methodIdentifiers": {
					"activePlayers(uint256)": "b55f108f",
					"commitPlayerChoice(bytes32)": "fea3ee59",
					"commitRevealModule()": "436ba795",
					"computeCommitmentHash(uint256,uint256)": "c34039ff",
					"gameDuration()": "e1f0c376",
					"gameStartTimestamp()": "5bfe6e00",
					"inputCount()": "e7dc36ad",
					"joinGame()": "d4f77b1c",
					"playerChoices(address)": "91b3f40e",
					"playerCount()": "302bcc57",
					"playerHashes(address)": "ae65f4ff",
					"prizePool()": "719ce73e",
					"revealPlayerChoice(uint256,uint256)": "0652e0f6",
					"timeModule()": "c8d9b6d5",
					"withdrawIfGameTimedOut()": "8c0ccf3e"
				}
			},
			"storageLayout": {
				"storage": [
					{
						"astId": 146,
						"contract": "RPS.sol:RPSGame",
						"label": "playerCount",
						"offset": 0,
						"slot": "0",
						"type": "t_uint256"
					},
					{
						"astId": 149,
						"contract": "RPS.sol:RPSGame",
						"label": "prizePool",
						"offset": 0,
						"slot": "1",
						"type": "t_uint256"
					},
					{
						"astId": 153,
						"contract": "RPS.sol:RPSGame",
						"label": "playerHashes",
						"offset": 0,
						"slot": "2",
						"type": "t_mapping(t_address,t_bytes32)"
					},
					{
						"astId": 157,
						"contract": "RPS.sol:RPSGame",
						"label": "playerChoices",
						"offset": 0,
						"slot": "3",
						"type": "t_mapping(t_address,t_uint256)"
					},
					{
						"astId": 160,
						"contract": "RPS.sol:RPSGame",
						"label": "activePlayers",
						"offset": 0,
						"slot": "4",
						"type": "t_array(t_address)dyn_storage"
					},
					{
						"astId": 163,
						"contract": "RPS.sol:RPSGame",
						"label": "inputCount",
						"offset": 0,
						"slot": "5",
						"type": "t_uint256"
					},
					{
						"astId": 165,
						"contract": "RPS.sol:RPSGame",
						"label": "gameStartTimestamp",
						"offset": 0,
						"slot": "6",
						"type": "t_uint256"
					},
					{
						"astId": 168,
						"contract": "RPS.sol:RPSGame",
						"label": "gameDuration",
						"offset": 0,
						"slot": "7",
						"type": "t_uint256"
					},
					{
						"astId": 171,
						"contract": "RPS.sol:RPSGame",
						"label": "timeModule",
						"offset": 0,
						"slot": "8",
						"type": "t_contract(TimeUnit)718"
					},
					{
						"astId": 174,
						"contract": "RPS.sol:RPSGame",
						"label": "commitRevealModule",
						"offset": 0,
						"slot": "9",
						"type": "t_contract(CommitReveal)139"
					},
					{
						"astId": 203,
						"contract": "RPS.sol:RPSGame",
						"label": "allowedPlayers",
						"offset": 0,
						"slot": "10",
						"type": "t_array(t_address)4_storage"
					}
				],
				"types": {
					"t_address": {
						"encoding": "inplace",
						"label": "address",
						"numberOfBytes": "20"
					},
					"t_array(t_address)4_storage": {
						"base": "t_address",
						"encoding": "inplace",
						"label": "address[4]",
						"numberOfBytes": "128"
					},
					"t_array(t_address)dyn_storage": {
						"base": "t_address",
						"encoding": "dynamic_array",
						"label": "address[]",
						"numberOfBytes": "32"
					},
					"t_bytes32": {
						"encoding": "inplace",
						"label": "bytes32",
						"numberOfBytes": "32"
					},
					"t_contract(CommitReveal)139": {
						"encoding": "inplace",
						"label": "contract CommitReveal",
						"numberOfBytes": "20"
					},
					"t_contract(TimeUnit)718": {
						"encoding": "inplace",
						"label": "contract TimeUnit",
						"numberOfBytes": "20"
					},
					"t_mapping(t_address,t_bytes32)": {
						"encoding": "mapping",
						"key": "t_address",
						"label": "mapping(address => bytes32)",
						"numberOfBytes": "32",
						"value": "t_bytes32"
					},
					"t_mapping(t_address,t_uint256)": {
						"encoding": "mapping",
						"key": "t_address",
						"label": "mapping(address => uint256)",
						"numberOfBytes": "32",
						"value": "t_uint256"
					},
					"t_uint256": {
						"encoding": "inplace",
						"label": "uint256",
						"numberOfBytes": "32"
					}
				}
			},
			"userdoc": {
				"kind": "user",
				"methods": {},
				"version": 1
			}
		}
	}
}